{
	"ABI/EncodePacked.sol": {
		"EncodePackedExample": {
			"abi": [
				{
					"inputs": [
						{
							"internalType": "uint256",
							"name": "number",
							"type": "uint256"
						},
						{
							"internalType": "string",
							"name": "text",
							"type": "string"
						}
					],
					"name": "encodePackedData",
					"outputs": [
						{
							"internalType": "bytes",
							"name": "",
							"type": "bytes"
						}
					],
					"stateMutability": "pure",
					"type": "function"
				}
			],
			"devdoc": {
				"kind": "dev",
				"methods": {},
				"version": 1
			},
			"evm": {
				"assembly": "    /* \"ABI/EncodePacked.sol\":61:253  contract EncodePackedExample {... */\n  mstore(0x40, 0x80)\n  callvalue\n  dup1\n  iszero\n  tag_1\n  jumpi\n  revert(0x00, 0x00)\ntag_1:\n  pop\n  dataSize(sub_0)\n  dup1\n  dataOffset(sub_0)\n  0x00\n  codecopy\n  0x00\n  return\nstop\n\nsub_0: assembly {\n        /* \"ABI/EncodePacked.sol\":61:253  contract EncodePackedExample {... */\n      mstore(0x40, 0x80)\n      callvalue\n      dup1\n      iszero\n      tag_1\n      jumpi\n      revert(0x00, 0x00)\n    tag_1:\n      pop\n      jumpi(tag_2, lt(calldatasize, 0x04))\n      shr(0xe0, calldataload(0x00))\n      dup1\n      0x0caa9c18\n      eq\n      tag_3\n      jumpi\n    tag_2:\n      revert(0x00, 0x00)\n        /* \"ABI/EncodePacked.sol\":97:250  function encodePackedData(uint256 number, string memory text) public pure returns (bytes memory) {... */\n    tag_3:\n      tag_4\n      0x04\n      dup1\n      calldatasize\n      sub\n      dup2\n      add\n      swap1\n      tag_5\n      swap2\n      swap1\n      tag_6\n      jump\t// in\n    tag_5:\n      tag_7\n      jump\t// in\n    tag_4:\n      mload(0x40)\n      tag_8\n      swap2\n      swap1\n      tag_9\n      jump\t// in\n    tag_8:\n      mload(0x40)\n      dup1\n      swap2\n      sub\n      swap1\n      return\n    tag_7:\n        /* \"ABI/EncodePacked.sol\":180:192  bytes memory */\n      0x60\n        /* \"ABI/EncodePacked.sol\":229:235  number */\n      dup3\n        /* \"ABI/EncodePacked.sol\":237:241  text */\n      dup3\n        /* \"ABI/EncodePacked.sol\":212:242  abi.encodePacked(number, text) */\n      add(0x20, mload(0x40))\n      tag_11\n      swap3\n      swap2\n      swap1\n      tag_12\n      jump\t// in\n    tag_11:\n      mload(0x40)\n      0x20\n      dup2\n      dup4\n      sub\n      sub\n      dup2\n      mstore\n      swap1\n      0x40\n      mstore\n        /* \"ABI/EncodePacked.sol\":205:242  return abi.encodePacked(number, text) */\n      swap1\n      pop\n        /* \"ABI/EncodePacked.sol\":97:250  function encodePackedData(uint256 number, string memory text) public pure returns (bytes memory) {... */\n      swap3\n      swap2\n      pop\n      pop\n      jump\t// out\n        /* \"#utility.yul\":7:82   */\n    tag_13:\n        /* \"#utility.yul\":40:46   */\n      0x00\n        /* \"#utility.yul\":73:75   */\n      0x40\n        /* \"#utility.yul\":67:76   */\n      mload\n        /* \"#utility.yul\":57:76   */\n      swap1\n      pop\n        /* \"#utility.yul\":7:82   */\n      swap1\n      jump\t// out\n        /* \"#utility.yul\":88:205   */\n    tag_14:\n        /* \"#utility.yul\":197:198   */\n      0x00\n        /* \"#utility.yul\":194:195   */\n      0x00\n        /* \"#utility.yul\":187:199   */\n      revert\n        /* \"#utility.yul\":211:328   */\n    tag_15:\n        /* \"#utility.yul\":320:321   */\n      0x00\n        /* \"#utility.yul\":317:318   */\n      0x00\n        /* \"#utility.yul\":310:322   */\n      revert\n        /* \"#utility.yul\":334:411   */\n    tag_16:\n        /* \"#utility.yul\":371:378   */\n      0x00\n        /* \"#utility.yul\":400:405   */\n      dup2\n        /* \"#utility.yul\":389:405   */\n      swap1\n      pop\n        /* \"#utility.yul\":334:411   */\n      swap2\n      swap1\n      pop\n      jump\t// out\n        /* \"#utility.yul\":417:539   */\n    tag_17:\n        /* \"#utility.yul\":490:514   */\n      tag_44\n        /* \"#utility.yul\":508:513   */\n      dup2\n        /* \"#utility.yul\":490:514   */\n      tag_16\n      jump\t// in\n    tag_44:\n        /* \"#utility.yul\":483:488   */\n      dup2\n        /* \"#utility.yul\":480:515   */\n      eq\n        /* \"#utility.yul\":470:533   */\n      tag_45\n      jumpi\n        /* \"#utility.yul\":529:530   */\n      0x00\n        /* \"#utility.yul\":526:527   */\n      0x00\n        /* \"#utility.yul\":519:531   */\n      revert\n        /* \"#utility.yul\":470:533   */\n    tag_45:\n        /* \"#utility.yul\":417:539   */\n      pop\n      jump\t// out\n        /* \"#utility.yul\":545:684   */\n    tag_18:\n        /* \"#utility.yul\":591:596   */\n      0x00\n        /* \"#utility.yul\":629:635   */\n      dup2\n        /* \"#utility.yul\":616:636   */\n      calldataload\n        /* \"#utility.yul\":607:636   */\n      swap1\n      pop\n        /* \"#utility.yul\":645:678   */\n      tag_47\n        /* \"#utility.yul\":672:677   */\n      dup2\n        /* \"#utility.yul\":645:678   */\n      tag_17\n      jump\t// in\n    tag_47:\n        /* \"#utility.yul\":545:684   */\n      swap3\n      swap2\n      pop\n      pop\n      jump\t// out\n        /* \"#utility.yul\":690:807   */\n    tag_19:\n        /* \"#utility.yul\":799:800   */\n      0x00\n        /* \"#utility.yul\":796:797   */\n      0x00\n        /* \"#utility.yul\":789:801   */\n      revert\n        /* \"#utility.yul\":813:930   */\n    tag_20:\n        /* \"#utility.yul\":922:923   */\n      0x00\n        /* \"#utility.yul\":919:920   */\n      0x00\n        /* \"#utility.yul\":912:924   */\n      revert\n        /* \"#utility.yul\":936:1038   */\n    tag_21:\n        /* \"#utility.yul\":977:983   */\n      0x00\n        /* \"#utility.yul\":1028:1030   */\n      0x1f\n        /* \"#utility.yul\":1024:1031   */\n      not\n        /* \"#utility.yul\":1019:1021   */\n      0x1f\n        /* \"#utility.yul\":1012:1017   */\n      dup4\n        /* \"#utility.yul\":1008:1022   */\n      add\n        /* \"#utility.yul\":1004:1032   */\n      and\n        /* \"#utility.yul\":994:1032   */\n      swap1\n      pop\n        /* \"#utility.yul\":936:1038   */\n      swap2\n      swap1\n      pop\n      jump\t// out\n        /* \"#utility.yul\":1044:1224   */\n    tag_22:\n        /* \"#utility.yul\":1092:1169   */\n      0x4e487b7100000000000000000000000000000000000000000000000000000000\n        /* \"#utility.yul\":1089:1090   */\n      0x00\n        /* \"#utility.yul\":1082:1170   */\n      mstore\n        /* \"#utility.yul\":1189:1193   */\n      0x41\n        /* \"#utility.yul\":1186:1187   */\n      0x04\n        /* \"#utility.yul\":1179:1194   */\n      mstore\n        /* \"#utility.yul\":1213:1217   */\n      0x24\n        /* \"#utility.yul\":1210:1211   */\n      0x00\n        /* \"#utility.yul\":1203:1218   */\n      revert\n        /* \"#utility.yul\":1230:1511   */\n    tag_23:\n        /* \"#utility.yul\":1313:1340   */\n      tag_53\n        /* \"#utility.yul\":1335:1339   */\n      dup3\n        /* \"#utility.yul\":1313:1340   */\n      tag_21\n      jump\t// in\n    tag_53:\n        /* \"#utility.yul\":1305:1311   */\n      dup2\n        /* \"#utility.yul\":1301:1341   */\n      add\n        /* \"#utility.yul\":1443:1449   */\n      dup2\n        /* \"#utility.yul\":1431:1441   */\n      dup2\n        /* \"#utility.yul\":1428:1450   */\n      lt\n        /* \"#utility.yul\":1407:1425   */\n      0xffffffffffffffff\n        /* \"#utility.yul\":1395:1405   */\n      dup3\n        /* \"#utility.yul\":1392:1426   */\n      gt\n        /* \"#utility.yul\":1389:1451   */\n      or\n        /* \"#utility.yul\":1386:1474   */\n      iszero\n      tag_54\n      jumpi\n        /* \"#utility.yul\":1454:1472   */\n      tag_55\n      tag_22\n      jump\t// in\n    tag_55:\n        /* \"#utility.yul\":1386:1474   */\n    tag_54:\n        /* \"#utility.yul\":1494:1504   */\n      dup1\n        /* \"#utility.yul\":1490:1492   */\n      0x40\n        /* \"#utility.yul\":1483:1505   */\n      mstore\n        /* \"#utility.yul\":1273:1511   */\n      pop\n        /* \"#utility.yul\":1230:1511   */\n      pop\n      pop\n      jump\t// out\n        /* \"#utility.yul\":1517:1646   */\n    tag_24:\n        /* \"#utility.yul\":1551:1557   */\n      0x00\n        /* \"#utility.yul\":1578:1598   */\n      tag_57\n      tag_13\n      jump\t// in\n    tag_57:\n        /* \"#utility.yul\":1568:1598   */\n      swap1\n      pop\n        /* \"#utility.yul\":1607:1640   */\n      tag_58\n        /* \"#utility.yul\":1635:1639   */\n      dup3\n        /* \"#utility.yul\":1627:1633   */\n      dup3\n        /* \"#utility.yul\":1607:1640   */\n      tag_23\n      jump\t// in\n    tag_58:\n        /* \"#utility.yul\":1517:1646   */\n      swap2\n      swap1\n      pop\n      jump\t// out\n        /* \"#utility.yul\":1652:1960   */\n    tag_25:\n        /* \"#utility.yul\":1714:1718   */\n      0x00\n        /* \"#utility.yul\":1804:1822   */\n      0xffffffffffffffff\n        /* \"#utility.yul\":1796:1802   */\n      dup3\n        /* \"#utility.yul\":1793:1823   */\n      gt\n        /* \"#utility.yul\":1790:1846   */\n      iszero\n      tag_60\n      jumpi\n        /* \"#utility.yul\":1826:1844   */\n      tag_61\n      tag_22\n      jump\t// in\n    tag_61:\n        /* \"#utility.yul\":1790:1846   */\n    tag_60:\n        /* \"#utility.yul\":1864:1893   */\n      tag_62\n        /* \"#utility.yul\":1886:1892   */\n      dup3\n        /* \"#utility.yul\":1864:1893   */\n      tag_21\n      jump\t// in\n    tag_62:\n        /* \"#utility.yul\":1856:1893   */\n      swap1\n      pop\n        /* \"#utility.yul\":1948:1952   */\n      0x20\n        /* \"#utility.yul\":1942:1946   */\n      dup2\n        /* \"#utility.yul\":1938:1953   */\n      add\n        /* \"#utility.yul\":1930:1953   */\n      swap1\n      pop\n        /* \"#utility.yul\":1652:1960   */\n      swap2\n      swap1\n      pop\n      jump\t// out\n        /* \"#utility.yul\":1966:2114   */\n    tag_26:\n        /* \"#utility.yul\":2064:2070   */\n      dup3\n        /* \"#utility.yul\":2059:2062   */\n      dup2\n        /* \"#utility.yul\":2054:2057   */\n      dup4\n        /* \"#utility.yul\":2041:2071   */\n      calldatacopy\n        /* \"#utility.yul\":2105:2106   */\n      0x00\n        /* \"#utility.yul\":2096:2102   */\n      dup4\n        /* \"#utility.yul\":2091:2094   */\n      dup4\n        /* \"#utility.yul\":2087:2103   */\n      add\n        /* \"#utility.yul\":2080:2107   */\n      mstore\n        /* \"#utility.yul\":1966:2114   */\n      pop\n      pop\n      pop\n      jump\t// out\n        /* \"#utility.yul\":2120:2545   */\n    tag_27:\n        /* \"#utility.yul\":2198:2203   */\n      0x00\n        /* \"#utility.yul\":2223:2289   */\n      tag_65\n        /* \"#utility.yul\":2239:2288   */\n      tag_66\n        /* \"#utility.yul\":2281:2287   */\n      dup5\n        /* \"#utility.yul\":2239:2288   */\n      tag_25\n      jump\t// in\n    tag_66:\n        /* \"#utility.yul\":2223:2289   */\n      tag_24\n      jump\t// in\n    tag_65:\n        /* \"#utility.yul\":2214:2289   */\n      swap1\n      pop\n        /* \"#utility.yul\":2312:2318   */\n      dup3\n        /* \"#utility.yul\":2305:2310   */\n      dup2\n        /* \"#utility.yul\":2298:2319   */\n      mstore\n        /* \"#utility.yul\":2350:2354   */\n      0x20\n        /* \"#utility.yul\":2343:2348   */\n      dup2\n        /* \"#utility.yul\":2339:2355   */\n      add\n        /* \"#utility.yul\":2388:2391   */\n      dup5\n        /* \"#utility.yul\":2379:2385   */\n      dup5\n        /* \"#utility.yul\":2374:2377   */\n      dup5\n        /* \"#utility.yul\":2370:2386   */\n      add\n        /* \"#utility.yul\":2367:2392   */\n      gt\n        /* \"#utility.yul\":2364:2476   */\n      iszero\n      tag_67\n      jumpi\n        /* \"#utility.yul\":2395:2474   */\n      tag_68\n      tag_20\n      jump\t// in\n    tag_68:\n        /* \"#utility.yul\":2364:2476   */\n    tag_67:\n        /* \"#utility.yul\":2485:2539   */\n      tag_69\n        /* \"#utility.yul\":2532:2538   */\n      dup5\n        /* \"#utility.yul\":2527:2530   */\n      dup3\n        /* \"#utility.yul\":2522:2525   */\n      dup6\n        /* \"#utility.yul\":2485:2539   */\n      tag_26\n      jump\t// in\n    tag_69:\n        /* \"#utility.yul\":2204:2545   */\n      pop\n        /* \"#utility.yul\":2120:2545   */\n      swap4\n      swap3\n      pop\n      pop\n      pop\n      jump\t// out\n        /* \"#utility.yul\":2565:2905   */\n    tag_28:\n        /* \"#utility.yul\":2621:2626   */\n      0x00\n        /* \"#utility.yul\":2670:2673   */\n      dup3\n        /* \"#utility.yul\":2663:2667   */\n      0x1f\n        /* \"#utility.yul\":2655:2661   */\n      dup4\n        /* \"#utility.yul\":2651:2668   */\n      add\n        /* \"#utility.yul\":2647:2674   */\n      slt\n        /* \"#utility.yul\":2637:2759   */\n      tag_71\n      jumpi\n        /* \"#utility.yul\":2678:2757   */\n      tag_72\n      tag_19\n      jump\t// in\n    tag_72:\n        /* \"#utility.yul\":2637:2759   */\n    tag_71:\n        /* \"#utility.yul\":2795:2801   */\n      dup2\n        /* \"#utility.yul\":2782:2802   */\n      calldataload\n        /* \"#utility.yul\":2820:2899   */\n      tag_73\n        /* \"#utility.yul\":2895:2898   */\n      dup5\n        /* \"#utility.yul\":2887:2893   */\n      dup3\n        /* \"#utility.yul\":2880:2884   */\n      0x20\n        /* \"#utility.yul\":2872:2878   */\n      dup7\n        /* \"#utility.yul\":2868:2885   */\n      add\n        /* \"#utility.yul\":2820:2899   */\n      tag_27\n      jump\t// in\n    tag_73:\n        /* \"#utility.yul\":2811:2899   */\n      swap2\n      pop\n        /* \"#utility.yul\":2627:2905   */\n      pop\n        /* \"#utility.yul\":2565:2905   */\n      swap3\n      swap2\n      pop\n      pop\n      jump\t// out\n        /* \"#utility.yul\":2911:3565   */\n    tag_6:\n        /* \"#utility.yul\":2989:2995   */\n      0x00\n        /* \"#utility.yul\":2997:3003   */\n      0x00\n        /* \"#utility.yul\":3046:3048   */\n      0x40\n        /* \"#utility.yul\":3034:3043   */\n      dup4\n        /* \"#utility.yul\":3025:3032   */\n      dup6\n        /* \"#utility.yul\":3021:3044   */\n      sub\n        /* \"#utility.yul\":3017:3049   */\n      slt\n        /* \"#utility.yul\":3014:3133   */\n      iszero\n      tag_75\n      jumpi\n        /* \"#utility.yul\":3052:3131   */\n      tag_76\n      tag_14\n      jump\t// in\n    tag_76:\n        /* \"#utility.yul\":3014:3133   */\n    tag_75:\n        /* \"#utility.yul\":3172:3173   */\n      0x00\n        /* \"#utility.yul\":3197:3250   */\n      tag_77\n        /* \"#utility.yul\":3242:3249   */\n      dup6\n        /* \"#utility.yul\":3233:3239   */\n      dup3\n        /* \"#utility.yul\":3222:3231   */\n      dup7\n        /* \"#utility.yul\":3218:3240   */\n      add\n        /* \"#utility.yul\":3197:3250   */\n      tag_18\n      jump\t// in\n    tag_77:\n        /* \"#utility.yul\":3187:3250   */\n      swap3\n      pop\n        /* \"#utility.yul\":3143:3260   */\n      pop\n        /* \"#utility.yul\":3327:3329   */\n      0x20\n        /* \"#utility.yul\":3316:3325   */\n      dup4\n        /* \"#utility.yul\":3312:3330   */\n      add\n        /* \"#utility.yul\":3299:3331   */\n      calldataload\n        /* \"#utility.yul\":3358:3376   */\n      0xffffffffffffffff\n        /* \"#utility.yul\":3350:3356   */\n      dup2\n        /* \"#utility.yul\":3347:3377   */\n      gt\n        /* \"#utility.yul\":3344:3461   */\n      iszero\n      tag_78\n      jumpi\n        /* \"#utility.yul\":3380:3459   */\n      tag_79\n      tag_15\n      jump\t// in\n    tag_79:\n        /* \"#utility.yul\":3344:3461   */\n    tag_78:\n        /* \"#utility.yul\":3485:3548   */\n      tag_80\n        /* \"#utility.yul\":3540:3547   */\n      dup6\n        /* \"#utility.yul\":3531:3537   */\n      dup3\n        /* \"#utility.yul\":3520:3529   */\n      dup7\n        /* \"#utility.yul\":3516:3538   */\n      add\n        /* \"#utility.yul\":3485:3548   */\n      tag_28\n      jump\t// in\n    tag_80:\n        /* \"#utility.yul\":3475:3548   */\n      swap2\n      pop\n        /* \"#utility.yul\":3270:3558   */\n      pop\n        /* \"#utility.yul\":2911:3565   */\n      swap3\n      pop\n      swap3\n      swap1\n      pop\n      jump\t// out\n        /* \"#utility.yul\":3571:3669   */\n    tag_29:\n        /* \"#utility.yul\":3622:3628   */\n      0x00\n        /* \"#utility.yul\":3656:3661   */\n      dup2\n        /* \"#utility.yul\":3650:3662   */\n      mload\n        /* \"#utility.yul\":3640:3662   */\n      swap1\n      pop\n        /* \"#utility.yul\":3571:3669   */\n      swap2\n      swap1\n      pop\n      jump\t// out\n        /* \"#utility.yul\":3675:3843   */\n    tag_30:\n        /* \"#utility.yul\":3758:3769   */\n      0x00\n        /* \"#utility.yul\":3792:3798   */\n      dup3\n        /* \"#utility.yul\":3787:3790   */\n      dup3\n        /* \"#utility.yul\":3780:3799   */\n      mstore\n        /* \"#utility.yul\":3832:3836   */\n      0x20\n        /* \"#utility.yul\":3827:3830   */\n      dup3\n        /* \"#utility.yul\":3823:3837   */\n      add\n        /* \"#utility.yul\":3808:3837   */\n      swap1\n      pop\n        /* \"#utility.yul\":3675:3843   */\n      swap3\n      swap2\n      pop\n      pop\n      jump\t// out\n        /* \"#utility.yul\":3849:3988   */\n    tag_31:\n        /* \"#utility.yul\":3938:3944   */\n      dup3\n        /* \"#utility.yul\":3933:3936   */\n      dup2\n        /* \"#utility.yul\":3928:3931   */\n      dup4\n        /* \"#utility.yul\":3922:3945   */\n      mcopy\n        /* \"#utility.yul\":3979:3980   */\n      0x00\n        /* \"#utility.yul\":3970:3976   */\n      dup4\n        /* \"#utility.yul\":3965:3968   */\n      dup4\n        /* \"#utility.yul\":3961:3977   */\n      add\n        /* \"#utility.yul\":3954:3981   */\n      mstore\n        /* \"#utility.yul\":3849:3988   */\n      pop\n      pop\n      pop\n      jump\t// out\n        /* \"#utility.yul\":3994:4367   */\n    tag_32:\n        /* \"#utility.yul\":4080:4083   */\n      0x00\n        /* \"#utility.yul\":4108:4146   */\n      tag_85\n        /* \"#utility.yul\":4140:4145   */\n      dup3\n        /* \"#utility.yul\":4108:4146   */\n      tag_29\n      jump\t// in\n    tag_85:\n        /* \"#utility.yul\":4162:4232   */\n      tag_86\n        /* \"#utility.yul\":4225:4231   */\n      dup2\n        /* \"#utility.yul\":4220:4223   */\n      dup6\n        /* \"#utility.yul\":4162:4232   */\n      tag_30\n      jump\t// in\n    tag_86:\n        /* \"#utility.yul\":4155:4232   */\n      swap4\n      pop\n        /* \"#utility.yul\":4241:4306   */\n      tag_87\n        /* \"#utility.yul\":4299:4305   */\n      dup2\n        /* \"#utility.yul\":4294:4297   */\n      dup6\n        /* \"#utility.yul\":4287:4291   */\n      0x20\n        /* \"#utility.yul\":4280:4285   */\n      dup7\n        /* \"#utility.yul\":4276:4292   */\n      add\n        /* \"#utility.yul\":4241:4306   */\n      tag_31\n      jump\t// in\n    tag_87:\n        /* \"#utility.yul\":4331:4360   */\n      tag_88\n        /* \"#utility.yul\":4353:4359   */\n      dup2\n        /* \"#utility.yul\":4331:4360   */\n      tag_21\n      jump\t// in\n    tag_88:\n        /* \"#utility.yul\":4326:4329   */\n      dup5\n        /* \"#utility.yul\":4322:4361   */\n      add\n        /* \"#utility.yul\":4315:4361   */\n      swap2\n      pop\n        /* \"#utility.yul\":4084:4367   */\n      pop\n        /* \"#utility.yul\":3994:4367   */\n      swap3\n      swap2\n      pop\n      pop\n      jump\t// out\n        /* \"#utility.yul\":4373:4682   */\n    tag_9:\n        /* \"#utility.yul\":4484:4488   */\n      0x00\n        /* \"#utility.yul\":4522:4524   */\n      0x20\n        /* \"#utility.yul\":4511:4520   */\n      dup3\n        /* \"#utility.yul\":4507:4525   */\n      add\n        /* \"#utility.yul\":4499:4525   */\n      swap1\n      pop\n        /* \"#utility.yul\":4571:4580   */\n      dup2\n        /* \"#utility.yul\":4565:4569   */\n      dup2\n        /* \"#utility.yul\":4561:4581   */\n      sub\n        /* \"#utility.yul\":4557:4558   */\n      0x00\n        /* \"#utility.yul\":4546:4555   */\n      dup4\n        /* \"#utility.yul\":4542:4559   */\n      add\n        /* \"#utility.yul\":4535:4582   */\n      mstore\n        /* \"#utility.yul\":4599:4675   */\n      tag_90\n        /* \"#utility.yul\":4670:4674   */\n      dup2\n        /* \"#utility.yul\":4661:4667   */\n      dup5\n        /* \"#utility.yul\":4599:4675   */\n      tag_32\n      jump\t// in\n    tag_90:\n        /* \"#utility.yul\":4591:4675   */\n      swap1\n      pop\n        /* \"#utility.yul\":4373:4682   */\n      swap3\n      swap2\n      pop\n      pop\n      jump\t// out\n        /* \"#utility.yul\":4688:4767   */\n    tag_33:\n        /* \"#utility.yul\":4727:4734   */\n      0x00\n        /* \"#utility.yul\":4756:4761   */\n      dup2\n        /* \"#utility.yul\":4745:4761   */\n      swap1\n      pop\n        /* \"#utility.yul\":4688:4767   */\n      swap2\n      swap1\n      pop\n      jump\t// out\n        /* \"#utility.yul\":4773:4930   */\n    tag_34:\n        /* \"#utility.yul\":4878:4923   */\n      tag_93\n        /* \"#utility.yul\":4898:4922   */\n      tag_94\n        /* \"#utility.yul\":4916:4921   */\n      dup3\n        /* \"#utility.yul\":4898:4922   */\n      tag_16\n      jump\t// in\n    tag_94:\n        /* \"#utility.yul\":4878:4923   */\n      tag_33\n      jump\t// in\n    tag_93:\n        /* \"#utility.yul\":4873:4876   */\n      dup3\n        /* \"#utility.yul\":4866:4924   */\n      mstore\n        /* \"#utility.yul\":4773:4930   */\n      pop\n      pop\n      jump\t// out\n        /* \"#utility.yul\":4936:5035   */\n    tag_35:\n        /* \"#utility.yul\":4988:4994   */\n      0x00\n        /* \"#utility.yul\":5022:5027   */\n      dup2\n        /* \"#utility.yul\":5016:5028   */\n      mload\n        /* \"#utility.yul\":5006:5028   */\n      swap1\n      pop\n        /* \"#utility.yul\":4936:5035   */\n      swap2\n      swap1\n      pop\n      jump\t// out\n        /* \"#utility.yul\":5041:5189   */\n    tag_36:\n        /* \"#utility.yul\":5143:5154   */\n      0x00\n        /* \"#utility.yul\":5180:5183   */\n      dup2\n        /* \"#utility.yul\":5165:5183   */\n      swap1\n      pop\n        /* \"#utility.yul\":5041:5189   */\n      swap3\n      swap2\n      pop\n      pop\n      jump\t// out\n        /* \"#utility.yul\":5195:5585   */\n    tag_37:\n        /* \"#utility.yul\":5301:5304   */\n      0x00\n        /* \"#utility.yul\":5329:5368   */\n      tag_98\n        /* \"#utility.yul\":5362:5367   */\n      dup3\n        /* \"#utility.yul\":5329:5368   */\n      tag_35\n      jump\t// in\n    tag_98:\n        /* \"#utility.yul\":5384:5473   */\n      tag_99\n        /* \"#utility.yul\":5466:5472   */\n      dup2\n        /* \"#utility.yul\":5461:5464   */\n      dup6\n        /* \"#utility.yul\":5384:5473   */\n      tag_36\n      jump\t// in\n    tag_99:\n        /* \"#utility.yul\":5377:5473   */\n      swap4\n      pop\n        /* \"#utility.yul\":5482:5547   */\n      tag_100\n        /* \"#utility.yul\":5540:5546   */\n      dup2\n        /* \"#utility.yul\":5535:5538   */\n      dup6\n        /* \"#utility.yul\":5528:5532   */\n      0x20\n        /* \"#utility.yul\":5521:5526   */\n      dup7\n        /* \"#utility.yul\":5517:5533   */\n      add\n        /* \"#utility.yul\":5482:5547   */\n      tag_31\n      jump\t// in\n    tag_100:\n        /* \"#utility.yul\":5572:5578   */\n      dup1\n        /* \"#utility.yul\":5567:5570   */\n      dup5\n        /* \"#utility.yul\":5563:5579   */\n      add\n        /* \"#utility.yul\":5556:5579   */\n      swap2\n      pop\n        /* \"#utility.yul\":5305:5585   */\n      pop\n        /* \"#utility.yul\":5195:5585   */\n      swap3\n      swap2\n      pop\n      pop\n      jump\t// out\n        /* \"#utility.yul\":5591:6007   */\n    tag_12:\n        /* \"#utility.yul\":5751:5754   */\n      0x00\n        /* \"#utility.yul\":5766:5841   */\n      tag_102\n        /* \"#utility.yul\":5837:5840   */\n      dup3\n        /* \"#utility.yul\":5828:5834   */\n      dup6\n        /* \"#utility.yul\":5766:5841   */\n      tag_34\n      jump\t// in\n    tag_102:\n        /* \"#utility.yul\":5866:5868   */\n      0x20\n        /* \"#utility.yul\":5861:5864   */\n      dup3\n        /* \"#utility.yul\":5857:5869   */\n      add\n        /* \"#utility.yul\":5850:5869   */\n      swap2\n      pop\n        /* \"#utility.yul\":5886:5981   */\n      tag_103\n        /* \"#utility.yul\":5977:5980   */\n      dup3\n        /* \"#utility.yul\":5968:5974   */\n      dup5\n        /* \"#utility.yul\":5886:5981   */\n      tag_37\n      jump\t// in\n    tag_103:\n        /* \"#utility.yul\":5879:5981   */\n      swap2\n      pop\n        /* \"#utility.yul\":5998:6001   */\n      dup2\n        /* \"#utility.yul\":5991:6001   */\n      swap1\n      pop\n        /* \"#utility.yul\":5591:6007   */\n      swap4\n      swap3\n      pop\n      pop\n      pop\n      jump\t// out\n\n    auxdata: 0xa26469706673582212208678e387212d8120020173b3ca4e45e8d6d5c046627b0a067b8a201b4cd3eaaa64736f6c634300081e0033\n}\n",
				"bytecode": {
					"linkReferences": {},
					"object": "6080604052348015600e575f5ffd5b506103a48061001c5f395ff3fe608060405234801561000f575f5ffd5b5060043610610029575f3560e01c80630caa9c181461002d575b5f5ffd5b61004760048036038101906100429190610209565b61005d565b60405161005491906102c3565b60405180910390f35b60608282604051602001610072929190610347565b604051602081830303815290604052905092915050565b5f604051905090565b5f5ffd5b5f5ffd5b5f819050919050565b6100ac8161009a565b81146100b6575f5ffd5b50565b5f813590506100c7816100a3565b92915050565b5f5ffd5b5f5ffd5b5f601f19601f8301169050919050565b7f4e487b71000000000000000000000000000000000000000000000000000000005f52604160045260245ffd5b61011b826100d5565b810181811067ffffffffffffffff8211171561013a576101396100e5565b5b80604052505050565b5f61014c610089565b90506101588282610112565b919050565b5f67ffffffffffffffff821115610177576101766100e5565b5b610180826100d5565b9050602081019050919050565b828183375f83830152505050565b5f6101ad6101a88461015d565b610143565b9050828152602081018484840111156101c9576101c86100d1565b5b6101d484828561018d565b509392505050565b5f82601f8301126101f0576101ef6100cd565b5b813561020084826020860161019b565b91505092915050565b5f5f6040838503121561021f5761021e610092565b5b5f61022c858286016100b9565b925050602083013567ffffffffffffffff81111561024d5761024c610096565b5b610259858286016101dc565b9150509250929050565b5f81519050919050565b5f82825260208201905092915050565b8281835e5f83830152505050565b5f61029582610263565b61029f818561026d565b93506102af81856020860161027d565b6102b8816100d5565b840191505092915050565b5f6020820190508181035f8301526102db818461028b565b905092915050565b5f819050919050565b6102fd6102f88261009a565b6102e3565b82525050565b5f81519050919050565b5f81905092915050565b5f61032182610303565b61032b818561030d565b935061033b81856020860161027d565b80840191505092915050565b5f61035282856102ec565b6020820191506103628284610317565b9150819050939250505056fea26469706673582212208678e387212d8120020173b3ca4e45e8d6d5c046627b0a067b8a201b4cd3eaaa64736f6c634300081e0033",
					"opcodes": "PUSH1 0x80 PUSH1 0x40 MSTORE CALLVALUE DUP1 ISZERO PUSH1 0xE JUMPI PUSH0 PUSH0 REVERT JUMPDEST POP PUSH2 0x3A4 DUP1 PUSH2 0x1C PUSH0 CODECOPY PUSH0 RETURN INVALID PUSH1 0x80 PUSH1 0x40 MSTORE CALLVALUE DUP1 ISZERO PUSH2 0xF JUMPI PUSH0 PUSH0 REVERT JUMPDEST POP PUSH1 0x4 CALLDATASIZE LT PUSH2 0x29 JUMPI PUSH0 CALLDATALOAD PUSH1 0xE0 SHR DUP1 PUSH4 0xCAA9C18 EQ PUSH2 0x2D JUMPI JUMPDEST PUSH0 PUSH0 REVERT JUMPDEST PUSH2 0x47 PUSH1 0x4 DUP1 CALLDATASIZE SUB DUP2 ADD SWAP1 PUSH2 0x42 SWAP2 SWAP1 PUSH2 0x209 JUMP JUMPDEST PUSH2 0x5D JUMP JUMPDEST PUSH1 0x40 MLOAD PUSH2 0x54 SWAP2 SWAP1 PUSH2 0x2C3 JUMP JUMPDEST PUSH1 0x40 MLOAD DUP1 SWAP2 SUB SWAP1 RETURN JUMPDEST PUSH1 0x60 DUP3 DUP3 PUSH1 0x40 MLOAD PUSH1 0x20 ADD PUSH2 0x72 SWAP3 SWAP2 SWAP1 PUSH2 0x347 JUMP JUMPDEST PUSH1 0x40 MLOAD PUSH1 0x20 DUP2 DUP4 SUB SUB DUP2 MSTORE SWAP1 PUSH1 0x40 MSTORE SWAP1 POP SWAP3 SWAP2 POP POP JUMP JUMPDEST PUSH0 PUSH1 0x40 MLOAD SWAP1 POP SWAP1 JUMP JUMPDEST PUSH0 PUSH0 REVERT JUMPDEST PUSH0 PUSH0 REVERT JUMPDEST PUSH0 DUP2 SWAP1 POP SWAP2 SWAP1 POP JUMP JUMPDEST PUSH2 0xAC DUP2 PUSH2 0x9A JUMP JUMPDEST DUP2 EQ PUSH2 0xB6 JUMPI PUSH0 PUSH0 REVERT JUMPDEST POP JUMP JUMPDEST PUSH0 DUP2 CALLDATALOAD SWAP1 POP PUSH2 0xC7 DUP2 PUSH2 0xA3 JUMP JUMPDEST SWAP3 SWAP2 POP POP JUMP JUMPDEST PUSH0 PUSH0 REVERT JUMPDEST PUSH0 PUSH0 REVERT JUMPDEST PUSH0 PUSH1 0x1F NOT PUSH1 0x1F DUP4 ADD AND SWAP1 POP SWAP2 SWAP1 POP JUMP JUMPDEST PUSH32 0x4E487B7100000000000000000000000000000000000000000000000000000000 PUSH0 MSTORE PUSH1 0x41 PUSH1 0x4 MSTORE PUSH1 0x24 PUSH0 REVERT JUMPDEST PUSH2 0x11B DUP3 PUSH2 0xD5 JUMP JUMPDEST DUP2 ADD DUP2 DUP2 LT PUSH8 0xFFFFFFFFFFFFFFFF DUP3 GT OR ISZERO PUSH2 0x13A JUMPI PUSH2 0x139 PUSH2 0xE5 JUMP JUMPDEST JUMPDEST DUP1 PUSH1 0x40 MSTORE POP POP POP JUMP JUMPDEST PUSH0 PUSH2 0x14C PUSH2 0x89 JUMP JUMPDEST SWAP1 POP PUSH2 0x158 DUP3 DUP3 PUSH2 0x112 JUMP JUMPDEST SWAP2 SWAP1 POP JUMP JUMPDEST PUSH0 PUSH8 0xFFFFFFFFFFFFFFFF DUP3 GT ISZERO PUSH2 0x177 JUMPI PUSH2 0x176 PUSH2 0xE5 JUMP JUMPDEST JUMPDEST PUSH2 0x180 DUP3 PUSH2 0xD5 JUMP JUMPDEST SWAP1 POP PUSH1 0x20 DUP2 ADD SWAP1 POP SWAP2 SWAP1 POP JUMP JUMPDEST DUP3 DUP2 DUP4 CALLDATACOPY PUSH0 DUP4 DUP4 ADD MSTORE POP POP POP JUMP JUMPDEST PUSH0 PUSH2 0x1AD PUSH2 0x1A8 DUP5 PUSH2 0x15D JUMP JUMPDEST PUSH2 0x143 JUMP JUMPDEST SWAP1 POP DUP3 DUP2 MSTORE PUSH1 0x20 DUP2 ADD DUP5 DUP5 DUP5 ADD GT ISZERO PUSH2 0x1C9 JUMPI PUSH2 0x1C8 PUSH2 0xD1 JUMP JUMPDEST JUMPDEST PUSH2 0x1D4 DUP5 DUP3 DUP6 PUSH2 0x18D JUMP JUMPDEST POP SWAP4 SWAP3 POP POP POP JUMP JUMPDEST PUSH0 DUP3 PUSH1 0x1F DUP4 ADD SLT PUSH2 0x1F0 JUMPI PUSH2 0x1EF PUSH2 0xCD JUMP JUMPDEST JUMPDEST DUP2 CALLDATALOAD PUSH2 0x200 DUP5 DUP3 PUSH1 0x20 DUP7 ADD PUSH2 0x19B JUMP JUMPDEST SWAP2 POP POP SWAP3 SWAP2 POP POP JUMP JUMPDEST PUSH0 PUSH0 PUSH1 0x40 DUP4 DUP6 SUB SLT ISZERO PUSH2 0x21F JUMPI PUSH2 0x21E PUSH2 0x92 JUMP JUMPDEST JUMPDEST PUSH0 PUSH2 0x22C DUP6 DUP3 DUP7 ADD PUSH2 0xB9 JUMP JUMPDEST SWAP3 POP POP PUSH1 0x20 DUP4 ADD CALLDATALOAD PUSH8 0xFFFFFFFFFFFFFFFF DUP2 GT ISZERO PUSH2 0x24D JUMPI PUSH2 0x24C PUSH2 0x96 JUMP JUMPDEST JUMPDEST PUSH2 0x259 DUP6 DUP3 DUP7 ADD PUSH2 0x1DC JUMP JUMPDEST SWAP2 POP POP SWAP3 POP SWAP3 SWAP1 POP JUMP JUMPDEST PUSH0 DUP2 MLOAD SWAP1 POP SWAP2 SWAP1 POP JUMP JUMPDEST PUSH0 DUP3 DUP3 MSTORE PUSH1 0x20 DUP3 ADD SWAP1 POP SWAP3 SWAP2 POP POP JUMP JUMPDEST DUP3 DUP2 DUP4 MCOPY PUSH0 DUP4 DUP4 ADD MSTORE POP POP POP JUMP JUMPDEST PUSH0 PUSH2 0x295 DUP3 PUSH2 0x263 JUMP JUMPDEST PUSH2 0x29F DUP2 DUP6 PUSH2 0x26D JUMP JUMPDEST SWAP4 POP PUSH2 0x2AF DUP2 DUP6 PUSH1 0x20 DUP7 ADD PUSH2 0x27D JUMP JUMPDEST PUSH2 0x2B8 DUP2 PUSH2 0xD5 JUMP JUMPDEST DUP5 ADD SWAP2 POP POP SWAP3 SWAP2 POP POP JUMP JUMPDEST PUSH0 PUSH1 0x20 DUP3 ADD SWAP1 POP DUP2 DUP2 SUB PUSH0 DUP4 ADD MSTORE PUSH2 0x2DB DUP2 DUP5 PUSH2 0x28B JUMP JUMPDEST SWAP1 POP SWAP3 SWAP2 POP POP JUMP JUMPDEST PUSH0 DUP2 SWAP1 POP SWAP2 SWAP1 POP JUMP JUMPDEST PUSH2 0x2FD PUSH2 0x2F8 DUP3 PUSH2 0x9A JUMP JUMPDEST PUSH2 0x2E3 JUMP JUMPDEST DUP3 MSTORE POP POP JUMP JUMPDEST PUSH0 DUP2 MLOAD SWAP1 POP SWAP2 SWAP1 POP JUMP JUMPDEST PUSH0 DUP2 SWAP1 POP SWAP3 SWAP2 POP POP JUMP JUMPDEST PUSH0 PUSH2 0x321 DUP3 PUSH2 0x303 JUMP JUMPDEST PUSH2 0x32B DUP2 DUP6 PUSH2 0x30D JUMP JUMPDEST SWAP4 POP PUSH2 0x33B DUP2 DUP6 PUSH1 0x20 DUP7 ADD PUSH2 0x27D JUMP JUMPDEST DUP1 DUP5 ADD SWAP2 POP POP SWAP3 SWAP2 POP POP JUMP JUMPDEST PUSH0 PUSH2 0x352 DUP3 DUP6 PUSH2 0x2EC JUMP JUMPDEST PUSH1 0x20 DUP3 ADD SWAP2 POP PUSH2 0x362 DUP3 DUP5 PUSH2 0x317 JUMP JUMPDEST SWAP2 POP DUP2 SWAP1 POP SWAP4 SWAP3 POP POP POP JUMP INVALID LOG2 PUSH5 0x6970667358 0x22 SLT KECCAK256 DUP7 PUSH25 0xE387212D8120020173B3CA4E45E8D6D5C046627B0A067B8A20 SHL 0x4C 0xD3 0xEA 0xAA PUSH5 0x736F6C6343 STOP ADDMOD 0x1E STOP CALLER "
				},
				"gasEstimates": {
					"creation": {
						"codeDepositCost": "186400",
						"executionCost": "230",
						"totalCost": "186630"
					},
					"external": {
						"encodePackedData(uint256,string)": "infinite"
					}
				},
				"methodIdentifiers": {
					"encodePackedData(uint256,string)": "0caa9c18"
				}
			},
			"storageLayout": {
				"storage": [],
				"types": null
			},
			"userdoc": {
				"kind": "user",
				"methods": {},
				"version": 1
			}
		}
	}
}