{
	"ABI/EncodeWithSelector.sol": {
		"EncodeWithSelectorExample": {
			"abi": [
				{
					"inputs": [
						{
							"internalType": "uint256",
							"name": "number",
							"type": "uint256"
						},
						{
							"internalType": "string",
							"name": "text",
							"type": "string"
						}
					],
					"name": "encodeWithSelector",
					"outputs": [
						{
							"internalType": "bytes",
							"name": "",
							"type": "bytes"
						}
					],
					"stateMutability": "pure",
					"type": "function"
				}
			],
			"devdoc": {
				"kind": "dev",
				"methods": {},
				"version": 1
			},
			"evm": {
				"assembly": "    /* \"ABI/EncodeWithSelector.sol\":61:353  contract EncodeWithSelectorExample {... */\n  mstore(0x40, 0x80)\n  callvalue\n  dup1\n  iszero\n  tag_1\n  jumpi\n  revert(0x00, 0x00)\ntag_1:\n  pop\n  dataSize(sub_0)\n  dup1\n  dataOffset(sub_0)\n  0x00\n  codecopy\n  0x00\n  return\nstop\n\nsub_0: assembly {\n        /* \"ABI/EncodeWithSelector.sol\":61:353  contract EncodeWithSelectorExample {... */\n      mstore(0x40, 0x80)\n      callvalue\n      dup1\n      iszero\n      tag_1\n      jumpi\n      revert(0x00, 0x00)\n    tag_1:\n      pop\n      jumpi(tag_2, lt(calldatasize, 0x04))\n      shr(0xe0, calldataload(0x00))\n      dup1\n      0xd950cc43\n      eq\n      tag_3\n      jumpi\n    tag_2:\n      revert(0x00, 0x00)\n        /* \"ABI/EncodeWithSelector.sol\":103:350  function encodeWithSelector(uint256 number, string memory text) public pure returns (bytes memory) {... */\n    tag_3:\n      tag_4\n      0x04\n      dup1\n      calldatasize\n      sub\n      dup2\n      add\n      swap1\n      tag_5\n      swap2\n      swap1\n      tag_6\n      jump\t// in\n    tag_5:\n      tag_7\n      jump\t// in\n    tag_4:\n      mload(0x40)\n      tag_8\n      swap2\n      swap1\n      tag_9\n      jump\t// in\n    tag_8:\n      mload(0x40)\n      dup1\n      swap2\n      sub\n      swap1\n      return\n    tag_7:\n        /* \"ABI/EncodeWithSelector.sol\":188:200  bytes memory */\n      0x60\n        /* \"ABI/EncodeWithSelector.sol\":213:228  bytes4 selector */\n      0x00\n        /* \"ABI/EncodeWithSelector.sol\":238:277  keccak256(\"myFunction(uint256,string)\") */\n      0xafac276de1d1fd109f71cc1fc38a492d001b17dcc6a848e770cf6984d3536672\n        /* \"ABI/EncodeWithSelector.sol\":213:278  bytes4 selector = bytes4(keccak256(\"myFunction(uint256,string)\")) */\n      swap1\n      pop\n        /* \"ABI/EncodeWithSelector.sol\":319:327  selector */\n      dup1\n        /* \"ABI/EncodeWithSelector.sol\":329:335  number */\n      dup5\n        /* \"ABI/EncodeWithSelector.sol\":337:341  text */\n      dup5\n        /* \"ABI/EncodeWithSelector.sol\":296:342  abi.encodeWithSelector(selector, number, text) */\n      add(0x24, mload(0x40))\n      tag_11\n      swap3\n      swap2\n      swap1\n      tag_12\n      jump\t// in\n    tag_11:\n      mload(0x40)\n      0x20\n      dup2\n      dup4\n      sub\n      sub\n      dup2\n      mstore\n      swap1\n      0x40\n      mstore\n      swap1\n      not(0xffffffffffffffffffffffffffffffffffffffffffffffffffffffff)\n      and\n      0x20\n      dup3\n      add\n      dup1\n      mload\n      0xffffffffffffffffffffffffffffffffffffffffffffffffffffffff\n      dup4\n      dup2\n      dup4\n      and\n      or\n      dup4\n      mstore\n      pop\n      pop\n      pop\n      pop\n        /* \"ABI/EncodeWithSelector.sol\":289:342  return abi.encodeWithSelector(selector, number, text) */\n      swap2\n      pop\n      pop\n        /* \"ABI/EncodeWithSelector.sol\":103:350  function encodeWithSelector(uint256 number, string memory text) public pure returns (bytes memory) {... */\n      swap3\n      swap2\n      pop\n      pop\n      jump\t// out\n        /* \"#utility.yul\":7:82   */\n    tag_13:\n        /* \"#utility.yul\":40:46   */\n      0x00\n        /* \"#utility.yul\":73:75   */\n      0x40\n        /* \"#utility.yul\":67:76   */\n      mload\n        /* \"#utility.yul\":57:76   */\n      swap1\n      pop\n        /* \"#utility.yul\":7:82   */\n      swap1\n      jump\t// out\n        /* \"#utility.yul\":88:205   */\n    tag_14:\n        /* \"#utility.yul\":197:198   */\n      0x00\n        /* \"#utility.yul\":194:195   */\n      0x00\n        /* \"#utility.yul\":187:199   */\n      revert\n        /* \"#utility.yul\":211:328   */\n    tag_15:\n        /* \"#utility.yul\":320:321   */\n      0x00\n        /* \"#utility.yul\":317:318   */\n      0x00\n        /* \"#utility.yul\":310:322   */\n      revert\n        /* \"#utility.yul\":334:411   */\n    tag_16:\n        /* \"#utility.yul\":371:378   */\n      0x00\n        /* \"#utility.yul\":400:405   */\n      dup2\n        /* \"#utility.yul\":389:405   */\n      swap1\n      pop\n        /* \"#utility.yul\":334:411   */\n      swap2\n      swap1\n      pop\n      jump\t// out\n        /* \"#utility.yul\":417:539   */\n    tag_17:\n        /* \"#utility.yul\":490:514   */\n      tag_43\n        /* \"#utility.yul\":508:513   */\n      dup2\n        /* \"#utility.yul\":490:514   */\n      tag_16\n      jump\t// in\n    tag_43:\n        /* \"#utility.yul\":483:488   */\n      dup2\n        /* \"#utility.yul\":480:515   */\n      eq\n        /* \"#utility.yul\":470:533   */\n      tag_44\n      jumpi\n        /* \"#utility.yul\":529:530   */\n      0x00\n        /* \"#utility.yul\":526:527   */\n      0x00\n        /* \"#utility.yul\":519:531   */\n      revert\n        /* \"#utility.yul\":470:533   */\n    tag_44:\n        /* \"#utility.yul\":417:539   */\n      pop\n      jump\t// out\n        /* \"#utility.yul\":545:684   */\n    tag_18:\n        /* \"#utility.yul\":591:596   */\n      0x00\n        /* \"#utility.yul\":629:635   */\n      dup2\n        /* \"#utility.yul\":616:636   */\n      calldataload\n        /* \"#utility.yul\":607:636   */\n      swap1\n      pop\n        /* \"#utility.yul\":645:678   */\n      tag_46\n        /* \"#utility.yul\":672:677   */\n      dup2\n        /* \"#utility.yul\":645:678   */\n      tag_17\n      jump\t// in\n    tag_46:\n        /* \"#utility.yul\":545:684   */\n      swap3\n      swap2\n      pop\n      pop\n      jump\t// out\n        /* \"#utility.yul\":690:807   */\n    tag_19:\n        /* \"#utility.yul\":799:800   */\n      0x00\n        /* \"#utility.yul\":796:797   */\n      0x00\n        /* \"#utility.yul\":789:801   */\n      revert\n        /* \"#utility.yul\":813:930   */\n    tag_20:\n        /* \"#utility.yul\":922:923   */\n      0x00\n        /* \"#utility.yul\":919:920   */\n      0x00\n        /* \"#utility.yul\":912:924   */\n      revert\n        /* \"#utility.yul\":936:1038   */\n    tag_21:\n        /* \"#utility.yul\":977:983   */\n      0x00\n        /* \"#utility.yul\":1028:1030   */\n      0x1f\n        /* \"#utility.yul\":1024:1031   */\n      not\n        /* \"#utility.yul\":1019:1021   */\n      0x1f\n        /* \"#utility.yul\":1012:1017   */\n      dup4\n        /* \"#utility.yul\":1008:1022   */\n      add\n        /* \"#utility.yul\":1004:1032   */\n      and\n        /* \"#utility.yul\":994:1032   */\n      swap1\n      pop\n        /* \"#utility.yul\":936:1038   */\n      swap2\n      swap1\n      pop\n      jump\t// out\n        /* \"#utility.yul\":1044:1224   */\n    tag_22:\n        /* \"#utility.yul\":1092:1169   */\n      0x4e487b7100000000000000000000000000000000000000000000000000000000\n        /* \"#utility.yul\":1089:1090   */\n      0x00\n        /* \"#utility.yul\":1082:1170   */\n      mstore\n        /* \"#utility.yul\":1189:1193   */\n      0x41\n        /* \"#utility.yul\":1186:1187   */\n      0x04\n        /* \"#utility.yul\":1179:1194   */\n      mstore\n        /* \"#utility.yul\":1213:1217   */\n      0x24\n        /* \"#utility.yul\":1210:1211   */\n      0x00\n        /* \"#utility.yul\":1203:1218   */\n      revert\n        /* \"#utility.yul\":1230:1511   */\n    tag_23:\n        /* \"#utility.yul\":1313:1340   */\n      tag_52\n        /* \"#utility.yul\":1335:1339   */\n      dup3\n        /* \"#utility.yul\":1313:1340   */\n      tag_21\n      jump\t// in\n    tag_52:\n        /* \"#utility.yul\":1305:1311   */\n      dup2\n        /* \"#utility.yul\":1301:1341   */\n      add\n        /* \"#utility.yul\":1443:1449   */\n      dup2\n        /* \"#utility.yul\":1431:1441   */\n      dup2\n        /* \"#utility.yul\":1428:1450   */\n      lt\n        /* \"#utility.yul\":1407:1425   */\n      0xffffffffffffffff\n        /* \"#utility.yul\":1395:1405   */\n      dup3\n        /* \"#utility.yul\":1392:1426   */\n      gt\n        /* \"#utility.yul\":1389:1451   */\n      or\n        /* \"#utility.yul\":1386:1474   */\n      iszero\n      tag_53\n      jumpi\n        /* \"#utility.yul\":1454:1472   */\n      tag_54\n      tag_22\n      jump\t// in\n    tag_54:\n        /* \"#utility.yul\":1386:1474   */\n    tag_53:\n        /* \"#utility.yul\":1494:1504   */\n      dup1\n        /* \"#utility.yul\":1490:1492   */\n      0x40\n        /* \"#utility.yul\":1483:1505   */\n      mstore\n        /* \"#utility.yul\":1273:1511   */\n      pop\n        /* \"#utility.yul\":1230:1511   */\n      pop\n      pop\n      jump\t// out\n        /* \"#utility.yul\":1517:1646   */\n    tag_24:\n        /* \"#utility.yul\":1551:1557   */\n      0x00\n        /* \"#utility.yul\":1578:1598   */\n      tag_56\n      tag_13\n      jump\t// in\n    tag_56:\n        /* \"#utility.yul\":1568:1598   */\n      swap1\n      pop\n        /* \"#utility.yul\":1607:1640   */\n      tag_57\n        /* \"#utility.yul\":1635:1639   */\n      dup3\n        /* \"#utility.yul\":1627:1633   */\n      dup3\n        /* \"#utility.yul\":1607:1640   */\n      tag_23\n      jump\t// in\n    tag_57:\n        /* \"#utility.yul\":1517:1646   */\n      swap2\n      swap1\n      pop\n      jump\t// out\n        /* \"#utility.yul\":1652:1960   */\n    tag_25:\n        /* \"#utility.yul\":1714:1718   */\n      0x00\n        /* \"#utility.yul\":1804:1822   */\n      0xffffffffffffffff\n        /* \"#utility.yul\":1796:1802   */\n      dup3\n        /* \"#utility.yul\":1793:1823   */\n      gt\n        /* \"#utility.yul\":1790:1846   */\n      iszero\n      tag_59\n      jumpi\n        /* \"#utility.yul\":1826:1844   */\n      tag_60\n      tag_22\n      jump\t// in\n    tag_60:\n        /* \"#utility.yul\":1790:1846   */\n    tag_59:\n        /* \"#utility.yul\":1864:1893   */\n      tag_61\n        /* \"#utility.yul\":1886:1892   */\n      dup3\n        /* \"#utility.yul\":1864:1893   */\n      tag_21\n      jump\t// in\n    tag_61:\n        /* \"#utility.yul\":1856:1893   */\n      swap1\n      pop\n        /* \"#utility.yul\":1948:1952   */\n      0x20\n        /* \"#utility.yul\":1942:1946   */\n      dup2\n        /* \"#utility.yul\":1938:1953   */\n      add\n        /* \"#utility.yul\":1930:1953   */\n      swap1\n      pop\n        /* \"#utility.yul\":1652:1960   */\n      swap2\n      swap1\n      pop\n      jump\t// out\n        /* \"#utility.yul\":1966:2114   */\n    tag_26:\n        /* \"#utility.yul\":2064:2070   */\n      dup3\n        /* \"#utility.yul\":2059:2062   */\n      dup2\n        /* \"#utility.yul\":2054:2057   */\n      dup4\n        /* \"#utility.yul\":2041:2071   */\n      calldatacopy\n        /* \"#utility.yul\":2105:2106   */\n      0x00\n        /* \"#utility.yul\":2096:2102   */\n      dup4\n        /* \"#utility.yul\":2091:2094   */\n      dup4\n        /* \"#utility.yul\":2087:2103   */\n      add\n        /* \"#utility.yul\":2080:2107   */\n      mstore\n        /* \"#utility.yul\":1966:2114   */\n      pop\n      pop\n      pop\n      jump\t// out\n        /* \"#utility.yul\":2120:2545   */\n    tag_27:\n        /* \"#utility.yul\":2198:2203   */\n      0x00\n        /* \"#utility.yul\":2223:2289   */\n      tag_64\n        /* \"#utility.yul\":2239:2288   */\n      tag_65\n        /* \"#utility.yul\":2281:2287   */\n      dup5\n        /* \"#utility.yul\":2239:2288   */\n      tag_25\n      jump\t// in\n    tag_65:\n        /* \"#utility.yul\":2223:2289   */\n      tag_24\n      jump\t// in\n    tag_64:\n        /* \"#utility.yul\":2214:2289   */\n      swap1\n      pop\n        /* \"#utility.yul\":2312:2318   */\n      dup3\n        /* \"#utility.yul\":2305:2310   */\n      dup2\n        /* \"#utility.yul\":2298:2319   */\n      mstore\n        /* \"#utility.yul\":2350:2354   */\n      0x20\n        /* \"#utility.yul\":2343:2348   */\n      dup2\n        /* \"#utility.yul\":2339:2355   */\n      add\n        /* \"#utility.yul\":2388:2391   */\n      dup5\n        /* \"#utility.yul\":2379:2385   */\n      dup5\n        /* \"#utility.yul\":2374:2377   */\n      dup5\n        /* \"#utility.yul\":2370:2386   */\n      add\n        /* \"#utility.yul\":2367:2392   */\n      gt\n        /* \"#utility.yul\":2364:2476   */\n      iszero\n      tag_66\n      jumpi\n        /* \"#utility.yul\":2395:2474   */\n      tag_67\n      tag_20\n      jump\t// in\n    tag_67:\n        /* \"#utility.yul\":2364:2476   */\n    tag_66:\n        /* \"#utility.yul\":2485:2539   */\n      tag_68\n        /* \"#utility.yul\":2532:2538   */\n      dup5\n        /* \"#utility.yul\":2527:2530   */\n      dup3\n        /* \"#utility.yul\":2522:2525   */\n      dup6\n        /* \"#utility.yul\":2485:2539   */\n      tag_26\n      jump\t// in\n    tag_68:\n        /* \"#utility.yul\":2204:2545   */\n      pop\n        /* \"#utility.yul\":2120:2545   */\n      swap4\n      swap3\n      pop\n      pop\n      pop\n      jump\t// out\n        /* \"#utility.yul\":2565:2905   */\n    tag_28:\n        /* \"#utility.yul\":2621:2626   */\n      0x00\n        /* \"#utility.yul\":2670:2673   */\n      dup3\n        /* \"#utility.yul\":2663:2667   */\n      0x1f\n        /* \"#utility.yul\":2655:2661   */\n      dup4\n        /* \"#utility.yul\":2651:2668   */\n      add\n        /* \"#utility.yul\":2647:2674   */\n      slt\n        /* \"#utility.yul\":2637:2759   */\n      tag_70\n      jumpi\n        /* \"#utility.yul\":2678:2757   */\n      tag_71\n      tag_19\n      jump\t// in\n    tag_71:\n        /* \"#utility.yul\":2637:2759   */\n    tag_70:\n        /* \"#utility.yul\":2795:2801   */\n      dup2\n        /* \"#utility.yul\":2782:2802   */\n      calldataload\n        /* \"#utility.yul\":2820:2899   */\n      tag_72\n        /* \"#utility.yul\":2895:2898   */\n      dup5\n        /* \"#utility.yul\":2887:2893   */\n      dup3\n        /* \"#utility.yul\":2880:2884   */\n      0x20\n        /* \"#utility.yul\":2872:2878   */\n      dup7\n        /* \"#utility.yul\":2868:2885   */\n      add\n        /* \"#utility.yul\":2820:2899   */\n      tag_27\n      jump\t// in\n    tag_72:\n        /* \"#utility.yul\":2811:2899   */\n      swap2\n      pop\n        /* \"#utility.yul\":2627:2905   */\n      pop\n        /* \"#utility.yul\":2565:2905   */\n      swap3\n      swap2\n      pop\n      pop\n      jump\t// out\n        /* \"#utility.yul\":2911:3565   */\n    tag_6:\n        /* \"#utility.yul\":2989:2995   */\n      0x00\n        /* \"#utility.yul\":2997:3003   */\n      0x00\n        /* \"#utility.yul\":3046:3048   */\n      0x40\n        /* \"#utility.yul\":3034:3043   */\n      dup4\n        /* \"#utility.yul\":3025:3032   */\n      dup6\n        /* \"#utility.yul\":3021:3044   */\n      sub\n        /* \"#utility.yul\":3017:3049   */\n      slt\n        /* \"#utility.yul\":3014:3133   */\n      iszero\n      tag_74\n      jumpi\n        /* \"#utility.yul\":3052:3131   */\n      tag_75\n      tag_14\n      jump\t// in\n    tag_75:\n        /* \"#utility.yul\":3014:3133   */\n    tag_74:\n        /* \"#utility.yul\":3172:3173   */\n      0x00\n        /* \"#utility.yul\":3197:3250   */\n      tag_76\n        /* \"#utility.yul\":3242:3249   */\n      dup6\n        /* \"#utility.yul\":3233:3239   */\n      dup3\n        /* \"#utility.yul\":3222:3231   */\n      dup7\n        /* \"#utility.yul\":3218:3240   */\n      add\n        /* \"#utility.yul\":3197:3250   */\n      tag_18\n      jump\t// in\n    tag_76:\n        /* \"#utility.yul\":3187:3250   */\n      swap3\n      pop\n        /* \"#utility.yul\":3143:3260   */\n      pop\n        /* \"#utility.yul\":3327:3329   */\n      0x20\n        /* \"#utility.yul\":3316:3325   */\n      dup4\n        /* \"#utility.yul\":3312:3330   */\n      add\n        /* \"#utility.yul\":3299:3331   */\n      calldataload\n        /* \"#utility.yul\":3358:3376   */\n      0xffffffffffffffff\n        /* \"#utility.yul\":3350:3356   */\n      dup2\n        /* \"#utility.yul\":3347:3377   */\n      gt\n        /* \"#utility.yul\":3344:3461   */\n      iszero\n      tag_77\n      jumpi\n        /* \"#utility.yul\":3380:3459   */\n      tag_78\n      tag_15\n      jump\t// in\n    tag_78:\n        /* \"#utility.yul\":3344:3461   */\n    tag_77:\n        /* \"#utility.yul\":3485:3548   */\n      tag_79\n        /* \"#utility.yul\":3540:3547   */\n      dup6\n        /* \"#utility.yul\":3531:3537   */\n      dup3\n        /* \"#utility.yul\":3520:3529   */\n      dup7\n        /* \"#utility.yul\":3516:3538   */\n      add\n        /* \"#utility.yul\":3485:3548   */\n      tag_28\n      jump\t// in\n    tag_79:\n        /* \"#utility.yul\":3475:3548   */\n      swap2\n      pop\n        /* \"#utility.yul\":3270:3558   */\n      pop\n        /* \"#utility.yul\":2911:3565   */\n      swap3\n      pop\n      swap3\n      swap1\n      pop\n      jump\t// out\n        /* \"#utility.yul\":3571:3669   */\n    tag_29:\n        /* \"#utility.yul\":3622:3628   */\n      0x00\n        /* \"#utility.yul\":3656:3661   */\n      dup2\n        /* \"#utility.yul\":3650:3662   */\n      mload\n        /* \"#utility.yul\":3640:3662   */\n      swap1\n      pop\n        /* \"#utility.yul\":3571:3669   */\n      swap2\n      swap1\n      pop\n      jump\t// out\n        /* \"#utility.yul\":3675:3843   */\n    tag_30:\n        /* \"#utility.yul\":3758:3769   */\n      0x00\n        /* \"#utility.yul\":3792:3798   */\n      dup3\n        /* \"#utility.yul\":3787:3790   */\n      dup3\n        /* \"#utility.yul\":3780:3799   */\n      mstore\n        /* \"#utility.yul\":3832:3836   */\n      0x20\n        /* \"#utility.yul\":3827:3830   */\n      dup3\n        /* \"#utility.yul\":3823:3837   */\n      add\n        /* \"#utility.yul\":3808:3837   */\n      swap1\n      pop\n        /* \"#utility.yul\":3675:3843   */\n      swap3\n      swap2\n      pop\n      pop\n      jump\t// out\n        /* \"#utility.yul\":3849:3988   */\n    tag_31:\n        /* \"#utility.yul\":3938:3944   */\n      dup3\n        /* \"#utility.yul\":3933:3936   */\n      dup2\n        /* \"#utility.yul\":3928:3931   */\n      dup4\n        /* \"#utility.yul\":3922:3945   */\n      mcopy\n        /* \"#utility.yul\":3979:3980   */\n      0x00\n        /* \"#utility.yul\":3970:3976   */\n      dup4\n        /* \"#utility.yul\":3965:3968   */\n      dup4\n        /* \"#utility.yul\":3961:3977   */\n      add\n        /* \"#utility.yul\":3954:3981   */\n      mstore\n        /* \"#utility.yul\":3849:3988   */\n      pop\n      pop\n      pop\n      jump\t// out\n        /* \"#utility.yul\":3994:4367   */\n    tag_32:\n        /* \"#utility.yul\":4080:4083   */\n      0x00\n        /* \"#utility.yul\":4108:4146   */\n      tag_84\n        /* \"#utility.yul\":4140:4145   */\n      dup3\n        /* \"#utility.yul\":4108:4146   */\n      tag_29\n      jump\t// in\n    tag_84:\n        /* \"#utility.yul\":4162:4232   */\n      tag_85\n        /* \"#utility.yul\":4225:4231   */\n      dup2\n        /* \"#utility.yul\":4220:4223   */\n      dup6\n        /* \"#utility.yul\":4162:4232   */\n      tag_30\n      jump\t// in\n    tag_85:\n        /* \"#utility.yul\":4155:4232   */\n      swap4\n      pop\n        /* \"#utility.yul\":4241:4306   */\n      tag_86\n        /* \"#utility.yul\":4299:4305   */\n      dup2\n        /* \"#utility.yul\":4294:4297   */\n      dup6\n        /* \"#utility.yul\":4287:4291   */\n      0x20\n        /* \"#utility.yul\":4280:4285   */\n      dup7\n        /* \"#utility.yul\":4276:4292   */\n      add\n        /* \"#utility.yul\":4241:4306   */\n      tag_31\n      jump\t// in\n    tag_86:\n        /* \"#utility.yul\":4331:4360   */\n      tag_87\n        /* \"#utility.yul\":4353:4359   */\n      dup2\n        /* \"#utility.yul\":4331:4360   */\n      tag_21\n      jump\t// in\n    tag_87:\n        /* \"#utility.yul\":4326:4329   */\n      dup5\n        /* \"#utility.yul\":4322:4361   */\n      add\n        /* \"#utility.yul\":4315:4361   */\n      swap2\n      pop\n        /* \"#utility.yul\":4084:4367   */\n      pop\n        /* \"#utility.yul\":3994:4367   */\n      swap3\n      swap2\n      pop\n      pop\n      jump\t// out\n        /* \"#utility.yul\":4373:4682   */\n    tag_9:\n        /* \"#utility.yul\":4484:4488   */\n      0x00\n        /* \"#utility.yul\":4522:4524   */\n      0x20\n        /* \"#utility.yul\":4511:4520   */\n      dup3\n        /* \"#utility.yul\":4507:4525   */\n      add\n        /* \"#utility.yul\":4499:4525   */\n      swap1\n      pop\n        /* \"#utility.yul\":4571:4580   */\n      dup2\n        /* \"#utility.yul\":4565:4569   */\n      dup2\n        /* \"#utility.yul\":4561:4581   */\n      sub\n        /* \"#utility.yul\":4557:4558   */\n      0x00\n        /* \"#utility.yul\":4546:4555   */\n      dup4\n        /* \"#utility.yul\":4542:4559   */\n      add\n        /* \"#utility.yul\":4535:4582   */\n      mstore\n        /* \"#utility.yul\":4599:4675   */\n      tag_89\n        /* \"#utility.yul\":4670:4674   */\n      dup2\n        /* \"#utility.yul\":4661:4667   */\n      dup5\n        /* \"#utility.yul\":4599:4675   */\n      tag_32\n      jump\t// in\n    tag_89:\n        /* \"#utility.yul\":4591:4675   */\n      swap1\n      pop\n        /* \"#utility.yul\":4373:4682   */\n      swap3\n      swap2\n      pop\n      pop\n      jump\t// out\n        /* \"#utility.yul\":4688:4806   */\n    tag_33:\n        /* \"#utility.yul\":4775:4799   */\n      tag_91\n        /* \"#utility.yul\":4793:4798   */\n      dup2\n        /* \"#utility.yul\":4775:4799   */\n      tag_16\n      jump\t// in\n    tag_91:\n        /* \"#utility.yul\":4770:4773   */\n      dup3\n        /* \"#utility.yul\":4763:4800   */\n      mstore\n        /* \"#utility.yul\":4688:4806   */\n      pop\n      pop\n      jump\t// out\n        /* \"#utility.yul\":4812:4911   */\n    tag_34:\n        /* \"#utility.yul\":4864:4870   */\n      0x00\n        /* \"#utility.yul\":4898:4903   */\n      dup2\n        /* \"#utility.yul\":4892:4904   */\n      mload\n        /* \"#utility.yul\":4882:4904   */\n      swap1\n      pop\n        /* \"#utility.yul\":4812:4911   */\n      swap2\n      swap1\n      pop\n      jump\t// out\n        /* \"#utility.yul\":4917:5086   */\n    tag_35:\n        /* \"#utility.yul\":5001:5012   */\n      0x00\n        /* \"#utility.yul\":5035:5041   */\n      dup3\n        /* \"#utility.yul\":5030:5033   */\n      dup3\n        /* \"#utility.yul\":5023:5042   */\n      mstore\n        /* \"#utility.yul\":5075:5079   */\n      0x20\n        /* \"#utility.yul\":5070:5073   */\n      dup3\n        /* \"#utility.yul\":5066:5080   */\n      add\n        /* \"#utility.yul\":5051:5080   */\n      swap1\n      pop\n        /* \"#utility.yul\":4917:5086   */\n      swap3\n      swap2\n      pop\n      pop\n      jump\t// out\n        /* \"#utility.yul\":5092:5469   */\n    tag_36:\n        /* \"#utility.yul\":5180:5183   */\n      0x00\n        /* \"#utility.yul\":5208:5247   */\n      tag_95\n        /* \"#utility.yul\":5241:5246   */\n      dup3\n        /* \"#utility.yul\":5208:5247   */\n      tag_34\n      jump\t// in\n    tag_95:\n        /* \"#utility.yul\":5263:5334   */\n      tag_96\n        /* \"#utility.yul\":5327:5333   */\n      dup2\n        /* \"#utility.yul\":5322:5325   */\n      dup6\n        /* \"#utility.yul\":5263:5334   */\n      tag_35\n      jump\t// in\n    tag_96:\n        /* \"#utility.yul\":5256:5334   */\n      swap4\n      pop\n        /* \"#utility.yul\":5343:5408   */\n      tag_97\n        /* \"#utility.yul\":5401:5407   */\n      dup2\n        /* \"#utility.yul\":5396:5399   */\n      dup6\n        /* \"#utility.yul\":5389:5393   */\n      0x20\n        /* \"#utility.yul\":5382:5387   */\n      dup7\n        /* \"#utility.yul\":5378:5394   */\n      add\n        /* \"#utility.yul\":5343:5408   */\n      tag_31\n      jump\t// in\n    tag_97:\n        /* \"#utility.yul\":5433:5462   */\n      tag_98\n        /* \"#utility.yul\":5455:5461   */\n      dup2\n        /* \"#utility.yul\":5433:5462   */\n      tag_21\n      jump\t// in\n    tag_98:\n        /* \"#utility.yul\":5428:5431   */\n      dup5\n        /* \"#utility.yul\":5424:5463   */\n      add\n        /* \"#utility.yul\":5417:5463   */\n      swap2\n      pop\n        /* \"#utility.yul\":5184:5469   */\n      pop\n        /* \"#utility.yul\":5092:5469   */\n      swap3\n      swap2\n      pop\n      pop\n      jump\t// out\n        /* \"#utility.yul\":5475:5898   */\n    tag_12:\n        /* \"#utility.yul\":5616:5620   */\n      0x00\n        /* \"#utility.yul\":5654:5656   */\n      0x40\n        /* \"#utility.yul\":5643:5652   */\n      dup3\n        /* \"#utility.yul\":5639:5657   */\n      add\n        /* \"#utility.yul\":5631:5657   */\n      swap1\n      pop\n        /* \"#utility.yul\":5667:5738   */\n      tag_100\n        /* \"#utility.yul\":5735:5736   */\n      0x00\n        /* \"#utility.yul\":5724:5733   */\n      dup4\n        /* \"#utility.yul\":5720:5737   */\n      add\n        /* \"#utility.yul\":5711:5717   */\n      dup6\n        /* \"#utility.yul\":5667:5738   */\n      tag_33\n      jump\t// in\n    tag_100:\n        /* \"#utility.yul\":5785:5794   */\n      dup2\n        /* \"#utility.yul\":5779:5783   */\n      dup2\n        /* \"#utility.yul\":5775:5795   */\n      sub\n        /* \"#utility.yul\":5770:5772   */\n      0x20\n        /* \"#utility.yul\":5759:5768   */\n      dup4\n        /* \"#utility.yul\":5755:5773   */\n      add\n        /* \"#utility.yul\":5748:5796   */\n      mstore\n        /* \"#utility.yul\":5813:5891   */\n      tag_101\n        /* \"#utility.yul\":5886:5890   */\n      dup2\n        /* \"#utility.yul\":5877:5883   */\n      dup5\n        /* \"#utility.yul\":5813:5891   */\n      tag_36\n      jump\t// in\n    tag_101:\n        /* \"#utility.yul\":5805:5891   */\n      swap1\n      pop\n        /* \"#utility.yul\":5475:5898   */\n      swap4\n      swap3\n      pop\n      pop\n      pop\n      jump\t// out\n\n    auxdata: 0xa2646970667358221220aca9cdf2559f3d936cf3c1b8e2614f7d43e6023432cafdfe3fc7c87fb3d1755064736f6c634300081e0033\n}\n",
				"bytecode": {
					"linkReferences": {},
					"object": "6080604052348015600e575f5ffd5b5061041c8061001c5f395ff3fe608060405234801561000f575f5ffd5b5060043610610029575f3560e01c8063d950cc431461002d575b5f5ffd5b6100476004803603810190610042919061027d565b61005d565b6040516100549190610337565b60405180910390f35b60605f7fafac276de1d1fd109f71cc1fc38a492d001b17dcc6a848e770cf6984d353667290508084846040516024016100979291906103b8565b604051602081830303815290604052907bffffffffffffffffffffffffffffffffffffffffffffffffffffffff19166020820180517bffffffffffffffffffffffffffffffffffffffffffffffffffffffff838183161783525050505091505092915050565b5f604051905090565b5f5ffd5b5f5ffd5b5f819050919050565b6101208161010e565b811461012a575f5ffd5b50565b5f8135905061013b81610117565b92915050565b5f5ffd5b5f5ffd5b5f601f19601f8301169050919050565b7f4e487b71000000000000000000000000000000000000000000000000000000005f52604160045260245ffd5b61018f82610149565b810181811067ffffffffffffffff821117156101ae576101ad610159565b5b80604052505050565b5f6101c06100fd565b90506101cc8282610186565b919050565b5f67ffffffffffffffff8211156101eb576101ea610159565b5b6101f482610149565b9050602081019050919050565b828183375f83830152505050565b5f61022161021c846101d1565b6101b7565b90508281526020810184848401111561023d5761023c610145565b5b610248848285610201565b509392505050565b5f82601f83011261026457610263610141565b5b813561027484826020860161020f565b91505092915050565b5f5f6040838503121561029357610292610106565b5b5f6102a08582860161012d565b925050602083013567ffffffffffffffff8111156102c1576102c061010a565b5b6102cd85828601610250565b9150509250929050565b5f81519050919050565b5f82825260208201905092915050565b8281835e5f83830152505050565b5f610309826102d7565b61031381856102e1565b93506103238185602086016102f1565b61032c81610149565b840191505092915050565b5f6020820190508181035f83015261034f81846102ff565b905092915050565b6103608161010e565b82525050565b5f81519050919050565b5f82825260208201905092915050565b5f61038a82610366565b6103948185610370565b93506103a48185602086016102f1565b6103ad81610149565b840191505092915050565b5f6040820190506103cb5f830185610357565b81810360208301526103dd8184610380565b9050939250505056fea2646970667358221220aca9cdf2559f3d936cf3c1b8e2614f7d43e6023432cafdfe3fc7c87fb3d1755064736f6c634300081e0033",
					"opcodes": "PUSH1 0x80 PUSH1 0x40 MSTORE CALLVALUE DUP1 ISZERO PUSH1 0xE JUMPI PUSH0 PUSH0 REVERT JUMPDEST POP PUSH2 0x41C DUP1 PUSH2 0x1C PUSH0 CODECOPY PUSH0 RETURN INVALID PUSH1 0x80 PUSH1 0x40 MSTORE CALLVALUE DUP1 ISZERO PUSH2 0xF JUMPI PUSH0 PUSH0 REVERT JUMPDEST POP PUSH1 0x4 CALLDATASIZE LT PUSH2 0x29 JUMPI PUSH0 CALLDATALOAD PUSH1 0xE0 SHR DUP1 PUSH4 0xD950CC43 EQ PUSH2 0x2D JUMPI JUMPDEST PUSH0 PUSH0 REVERT JUMPDEST PUSH2 0x47 PUSH1 0x4 DUP1 CALLDATASIZE SUB DUP2 ADD SWAP1 PUSH2 0x42 SWAP2 SWAP1 PUSH2 0x27D JUMP JUMPDEST PUSH2 0x5D JUMP JUMPDEST PUSH1 0x40 MLOAD PUSH2 0x54 SWAP2 SWAP1 PUSH2 0x337 JUMP JUMPDEST PUSH1 0x40 MLOAD DUP1 SWAP2 SUB SWAP1 RETURN JUMPDEST PUSH1 0x60 PUSH0 PUSH32 0xAFAC276DE1D1FD109F71CC1FC38A492D001B17DCC6A848E770CF6984D3536672 SWAP1 POP DUP1 DUP5 DUP5 PUSH1 0x40 MLOAD PUSH1 0x24 ADD PUSH2 0x97 SWAP3 SWAP2 SWAP1 PUSH2 0x3B8 JUMP JUMPDEST PUSH1 0x40 MLOAD PUSH1 0x20 DUP2 DUP4 SUB SUB DUP2 MSTORE SWAP1 PUSH1 0x40 MSTORE SWAP1 PUSH28 0xFFFFFFFFFFFFFFFFFFFFFFFFFFFFFFFFFFFFFFFFFFFFFFFFFFFFFFFF NOT AND PUSH1 0x20 DUP3 ADD DUP1 MLOAD PUSH28 0xFFFFFFFFFFFFFFFFFFFFFFFFFFFFFFFFFFFFFFFFFFFFFFFFFFFFFFFF DUP4 DUP2 DUP4 AND OR DUP4 MSTORE POP POP POP POP SWAP2 POP POP SWAP3 SWAP2 POP POP JUMP JUMPDEST PUSH0 PUSH1 0x40 MLOAD SWAP1 POP SWAP1 JUMP JUMPDEST PUSH0 PUSH0 REVERT JUMPDEST PUSH0 PUSH0 REVERT JUMPDEST PUSH0 DUP2 SWAP1 POP SWAP2 SWAP1 POP JUMP JUMPDEST PUSH2 0x120 DUP2 PUSH2 0x10E JUMP JUMPDEST DUP2 EQ PUSH2 0x12A JUMPI PUSH0 PUSH0 REVERT JUMPDEST POP JUMP JUMPDEST PUSH0 DUP2 CALLDATALOAD SWAP1 POP PUSH2 0x13B DUP2 PUSH2 0x117 JUMP JUMPDEST SWAP3 SWAP2 POP POP JUMP JUMPDEST PUSH0 PUSH0 REVERT JUMPDEST PUSH0 PUSH0 REVERT JUMPDEST PUSH0 PUSH1 0x1F NOT PUSH1 0x1F DUP4 ADD AND SWAP1 POP SWAP2 SWAP1 POP JUMP JUMPDEST PUSH32 0x4E487B7100000000000000000000000000000000000000000000000000000000 PUSH0 MSTORE PUSH1 0x41 PUSH1 0x4 MSTORE PUSH1 0x24 PUSH0 REVERT JUMPDEST PUSH2 0x18F DUP3 PUSH2 0x149 JUMP JUMPDEST DUP2 ADD DUP2 DUP2 LT PUSH8 0xFFFFFFFFFFFFFFFF DUP3 GT OR ISZERO PUSH2 0x1AE JUMPI PUSH2 0x1AD PUSH2 0x159 JUMP JUMPDEST JUMPDEST DUP1 PUSH1 0x40 MSTORE POP POP POP JUMP JUMPDEST PUSH0 PUSH2 0x1C0 PUSH2 0xFD JUMP JUMPDEST SWAP1 POP PUSH2 0x1CC DUP3 DUP3 PUSH2 0x186 JUMP JUMPDEST SWAP2 SWAP1 POP JUMP JUMPDEST PUSH0 PUSH8 0xFFFFFFFFFFFFFFFF DUP3 GT ISZERO PUSH2 0x1EB JUMPI PUSH2 0x1EA PUSH2 0x159 JUMP JUMPDEST JUMPDEST PUSH2 0x1F4 DUP3 PUSH2 0x149 JUMP JUMPDEST SWAP1 POP PUSH1 0x20 DUP2 ADD SWAP1 POP SWAP2 SWAP1 POP JUMP JUMPDEST DUP3 DUP2 DUP4 CALLDATACOPY PUSH0 DUP4 DUP4 ADD MSTORE POP POP POP JUMP JUMPDEST PUSH0 PUSH2 0x221 PUSH2 0x21C DUP5 PUSH2 0x1D1 JUMP JUMPDEST PUSH2 0x1B7 JUMP JUMPDEST SWAP1 POP DUP3 DUP2 MSTORE PUSH1 0x20 DUP2 ADD DUP5 DUP5 DUP5 ADD GT ISZERO PUSH2 0x23D JUMPI PUSH2 0x23C PUSH2 0x145 JUMP JUMPDEST JUMPDEST PUSH2 0x248 DUP5 DUP3 DUP6 PUSH2 0x201 JUMP JUMPDEST POP SWAP4 SWAP3 POP POP POP JUMP JUMPDEST PUSH0 DUP3 PUSH1 0x1F DUP4 ADD SLT PUSH2 0x264 JUMPI PUSH2 0x263 PUSH2 0x141 JUMP JUMPDEST JUMPDEST DUP2 CALLDATALOAD PUSH2 0x274 DUP5 DUP3 PUSH1 0x20 DUP7 ADD PUSH2 0x20F JUMP JUMPDEST SWAP2 POP POP SWAP3 SWAP2 POP POP JUMP JUMPDEST PUSH0 PUSH0 PUSH1 0x40 DUP4 DUP6 SUB SLT ISZERO PUSH2 0x293 JUMPI PUSH2 0x292 PUSH2 0x106 JUMP JUMPDEST JUMPDEST PUSH0 PUSH2 0x2A0 DUP6 DUP3 DUP7 ADD PUSH2 0x12D JUMP JUMPDEST SWAP3 POP POP PUSH1 0x20 DUP4 ADD CALLDATALOAD PUSH8 0xFFFFFFFFFFFFFFFF DUP2 GT ISZERO PUSH2 0x2C1 JUMPI PUSH2 0x2C0 PUSH2 0x10A JUMP JUMPDEST JUMPDEST PUSH2 0x2CD DUP6 DUP3 DUP7 ADD PUSH2 0x250 JUMP JUMPDEST SWAP2 POP POP SWAP3 POP SWAP3 SWAP1 POP JUMP JUMPDEST PUSH0 DUP2 MLOAD SWAP1 POP SWAP2 SWAP1 POP JUMP JUMPDEST PUSH0 DUP3 DUP3 MSTORE PUSH1 0x20 DUP3 ADD SWAP1 POP SWAP3 SWAP2 POP POP JUMP JUMPDEST DUP3 DUP2 DUP4 MCOPY PUSH0 DUP4 DUP4 ADD MSTORE POP POP POP JUMP JUMPDEST PUSH0 PUSH2 0x309 DUP3 PUSH2 0x2D7 JUMP JUMPDEST PUSH2 0x313 DUP2 DUP6 PUSH2 0x2E1 JUMP JUMPDEST SWAP4 POP PUSH2 0x323 DUP2 DUP6 PUSH1 0x20 DUP7 ADD PUSH2 0x2F1 JUMP JUMPDEST PUSH2 0x32C DUP2 PUSH2 0x149 JUMP JUMPDEST DUP5 ADD SWAP2 POP POP SWAP3 SWAP2 POP POP JUMP JUMPDEST PUSH0 PUSH1 0x20 DUP3 ADD SWAP1 POP DUP2 DUP2 SUB PUSH0 DUP4 ADD MSTORE PUSH2 0x34F DUP2 DUP5 PUSH2 0x2FF JUMP JUMPDEST SWAP1 POP SWAP3 SWAP2 POP POP JUMP JUMPDEST PUSH2 0x360 DUP2 PUSH2 0x10E JUMP JUMPDEST DUP3 MSTORE POP POP JUMP JUMPDEST PUSH0 DUP2 MLOAD SWAP1 POP SWAP2 SWAP1 POP JUMP JUMPDEST PUSH0 DUP3 DUP3 MSTORE PUSH1 0x20 DUP3 ADD SWAP1 POP SWAP3 SWAP2 POP POP JUMP JUMPDEST PUSH0 PUSH2 0x38A DUP3 PUSH2 0x366 JUMP JUMPDEST PUSH2 0x394 DUP2 DUP6 PUSH2 0x370 JUMP JUMPDEST SWAP4 POP PUSH2 0x3A4 DUP2 DUP6 PUSH1 0x20 DUP7 ADD PUSH2 0x2F1 JUMP JUMPDEST PUSH2 0x3AD DUP2 PUSH2 0x149 JUMP JUMPDEST DUP5 ADD SWAP2 POP POP SWAP3 SWAP2 POP POP JUMP JUMPDEST PUSH0 PUSH1 0x40 DUP3 ADD SWAP1 POP PUSH2 0x3CB PUSH0 DUP4 ADD DUP6 PUSH2 0x357 JUMP JUMPDEST DUP2 DUP2 SUB PUSH1 0x20 DUP4 ADD MSTORE PUSH2 0x3DD DUP2 DUP5 PUSH2 0x380 JUMP JUMPDEST SWAP1 POP SWAP4 SWAP3 POP POP POP JUMP INVALID LOG2 PUSH5 0x6970667358 0x22 SLT KECCAK256 0xAC 0xA9 0xCD CALLCODE SSTORE SWAP16 RETURNDATASIZE SWAP4 PUSH13 0xF3C1B8E2614F7D43E6023432CA REVERT INVALID EXTCODEHASH 0xC7 0xC8 PUSH32 0xB3D1755064736F6C634300081E00330000000000000000000000000000000000 "
				},
				"gasEstimates": {
					"creation": {
						"codeDepositCost": "210400",
						"executionCost": "249",
						"totalCost": "210649"
					},
					"external": {
						"encodeWithSelector(uint256,string)": "infinite"
					}
				},
				"methodIdentifiers": {
					"encodeWithSelector(uint256,string)": "d950cc43"
				}
			},
			"storageLayout": {
				"storage": [],
				"types": null
			},
			"userdoc": {
				"kind": "user",
				"methods": {},
				"version": 1
			}
		}
	}
}