{
	"ABI/DecodeExample.sol": {
		"DataReceiver": {
			"abi": [
				{
					"inputs": [
						{
							"internalType": "uint256",
							"name": "number",
							"type": "uint256"
						},
						{
							"internalType": "string",
							"name": "text",
							"type": "string"
						}
					],
					"name": "encodeData",
					"outputs": [
						{
							"internalType": "bytes",
							"name": "",
							"type": "bytes"
						}
					],
					"stateMutability": "pure",
					"type": "function"
				},
				{
					"inputs": [
						{
							"internalType": "bytes",
							"name": "encodedData",
							"type": "bytes"
						}
					],
					"name": "receiveData",
					"outputs": [
						{
							"internalType": "uint256",
							"name": "number",
							"type": "uint256"
						},
						{
							"internalType": "string",
							"name": "text",
							"type": "string"
						}
					],
					"stateMutability": "pure",
					"type": "function"
				}
			],
			"devdoc": {
				"kind": "dev",
				"methods": {},
				"version": 1
			},
			"evm": {
				"assembly": "    /* \"ABI/DecodeExample.sol\":61:460  contract DataReceiver {... */\n  mstore(0x40, 0x80)\n  callvalue\n  dup1\n  iszero\n  tag_1\n  jumpi\n  revert(0x00, 0x00)\ntag_1:\n  pop\n  dataSize(sub_0)\n  dup1\n  dataOffset(sub_0)\n  0x00\n  codecopy\n  0x00\n  return\nstop\n\nsub_0: assembly {\n        /* \"ABI/DecodeExample.sol\":61:460  contract DataReceiver {... */\n      mstore(0x40, 0x80)\n      callvalue\n      dup1\n      iszero\n      tag_1\n      jumpi\n      revert(0x00, 0x00)\n    tag_1:\n      pop\n      jumpi(tag_2, lt(calldatasize, 0x04))\n      shr(0xe0, calldataload(0x00))\n      dup1\n      0x42a6e672\n      eq\n      tag_3\n      jumpi\n      dup1\n      0xb410f645\n      eq\n      tag_4\n      jumpi\n    tag_2:\n      revert(0x00, 0x00)\n        /* \"ABI/DecodeExample.sol\":96:236  function encodeData(uint256 number, string memory text) public pure returns (bytes memory){... */\n    tag_3:\n      tag_5\n      0x04\n      dup1\n      calldatasize\n      sub\n      dup2\n      add\n      swap1\n      tag_6\n      swap2\n      swap1\n      tag_7\n      jump\t// in\n    tag_6:\n      tag_8\n      jump\t// in\n    tag_5:\n      mload(0x40)\n      tag_9\n      swap2\n      swap1\n      tag_10\n      jump\t// in\n    tag_9:\n      mload(0x40)\n      dup1\n      swap2\n      sub\n      swap1\n      return\n        /* \"ABI/DecodeExample.sol\":244:457  function receiveData(bytes memory encodedData)public pure returns (uint256 number, string memory text) {... */\n    tag_4:\n      tag_11\n      0x04\n      dup1\n      calldatasize\n      sub\n      dup2\n      add\n      swap1\n      tag_12\n      swap2\n      swap1\n      tag_13\n      jump\t// in\n    tag_12:\n      tag_14\n      jump\t// in\n    tag_11:\n      mload(0x40)\n      tag_15\n      swap3\n      swap2\n      swap1\n      tag_16\n      jump\t// in\n    tag_15:\n      mload(0x40)\n      dup1\n      swap2\n      sub\n      swap1\n      return\n        /* \"ABI/DecodeExample.sol\":96:236  function encodeData(uint256 number, string memory text) public pure returns (bytes memory){... */\n    tag_8:\n        /* \"ABI/DecodeExample.sol\":173:185  bytes memory */\n      0x60\n        /* \"ABI/DecodeExample.sol\":215:221  number */\n      dup3\n        /* \"ABI/DecodeExample.sol\":223:227  text */\n      dup3\n        /* \"ABI/DecodeExample.sol\":204:228  abi.encode(number, text) */\n      add(0x20, mload(0x40))\n      tag_18\n      swap3\n      swap2\n      swap1\n      tag_16\n      jump\t// in\n    tag_18:\n      mload(0x40)\n      0x20\n      dup2\n      dup4\n      sub\n      sub\n      dup2\n      mstore\n      swap1\n      0x40\n      mstore\n        /* \"ABI/DecodeExample.sol\":197:228  return abi.encode(number, text) */\n      swap1\n      pop\n        /* \"ABI/DecodeExample.sol\":96:236  function encodeData(uint256 number, string memory text) public pure returns (bytes memory){... */\n      swap3\n      swap2\n      pop\n      pop\n      jump\t// out\n        /* \"ABI/DecodeExample.sol\":244:457  function receiveData(bytes memory encodedData)public pure returns (uint256 number, string memory text) {... */\n    tag_14:\n        /* \"ABI/DecodeExample.sol\":311:325  uint256 number */\n      0x00\n        /* \"ABI/DecodeExample.sol\":327:345  string memory text */\n      0x60\n        /* \"ABI/DecodeExample.sol\":386:397  encodedData */\n      dup3\n        /* \"ABI/DecodeExample.sol\":375:417  abi.decode(encodedData, (uint256, string)) */\n      dup1\n      0x20\n      add\n      swap1\n      mload\n      dup2\n      add\n      swap1\n      tag_20\n      swap2\n      swap1\n      tag_21\n      jump\t// in\n    tag_20:\n        /* \"ABI/DecodeExample.sol\":358:417  (number, text) = abi.decode(encodedData, (uint256, string)) */\n      dup1\n      swap3\n      pop\n      dup2\n      swap4\n      pop\n      pop\n      pop\n        /* \"ABI/DecodeExample.sol\":244:457  function receiveData(bytes memory encodedData)public pure returns (uint256 number, string memory text) {... */\n      swap2\n      pop\n      swap2\n      jump\t// out\n        /* \"#utility.yul\":7:82   */\n    tag_22:\n        /* \"#utility.yul\":40:46   */\n      0x00\n        /* \"#utility.yul\":73:75   */\n      0x40\n        /* \"#utility.yul\":67:76   */\n      mload\n        /* \"#utility.yul\":57:76   */\n      swap1\n      pop\n        /* \"#utility.yul\":7:82   */\n      swap1\n      jump\t// out\n        /* \"#utility.yul\":88:205   */\n    tag_23:\n        /* \"#utility.yul\":197:198   */\n      0x00\n        /* \"#utility.yul\":194:195   */\n      0x00\n        /* \"#utility.yul\":187:199   */\n      revert\n        /* \"#utility.yul\":211:328   */\n    tag_24:\n        /* \"#utility.yul\":320:321   */\n      0x00\n        /* \"#utility.yul\":317:318   */\n      0x00\n        /* \"#utility.yul\":310:322   */\n      revert\n        /* \"#utility.yul\":334:411   */\n    tag_25:\n        /* \"#utility.yul\":371:378   */\n      0x00\n        /* \"#utility.yul\":400:405   */\n      dup2\n        /* \"#utility.yul\":389:405   */\n      swap1\n      pop\n        /* \"#utility.yul\":334:411   */\n      swap2\n      swap1\n      pop\n      jump\t// out\n        /* \"#utility.yul\":417:539   */\n    tag_26:\n        /* \"#utility.yul\":490:514   */\n      tag_58\n        /* \"#utility.yul\":508:513   */\n      dup2\n        /* \"#utility.yul\":490:514   */\n      tag_25\n      jump\t// in\n    tag_58:\n        /* \"#utility.yul\":483:488   */\n      dup2\n        /* \"#utility.yul\":480:515   */\n      eq\n        /* \"#utility.yul\":470:533   */\n      tag_59\n      jumpi\n        /* \"#utility.yul\":529:530   */\n      0x00\n        /* \"#utility.yul\":526:527   */\n      0x00\n        /* \"#utility.yul\":519:531   */\n      revert\n        /* \"#utility.yul\":470:533   */\n    tag_59:\n        /* \"#utility.yul\":417:539   */\n      pop\n      jump\t// out\n        /* \"#utility.yul\":545:684   */\n    tag_27:\n        /* \"#utility.yul\":591:596   */\n      0x00\n        /* \"#utility.yul\":629:635   */\n      dup2\n        /* \"#utility.yul\":616:636   */\n      calldataload\n        /* \"#utility.yul\":607:636   */\n      swap1\n      pop\n        /* \"#utility.yul\":645:678   */\n      tag_61\n        /* \"#utility.yul\":672:677   */\n      dup2\n        /* \"#utility.yul\":645:678   */\n      tag_26\n      jump\t// in\n    tag_61:\n        /* \"#utility.yul\":545:684   */\n      swap3\n      swap2\n      pop\n      pop\n      jump\t// out\n        /* \"#utility.yul\":690:807   */\n    tag_28:\n        /* \"#utility.yul\":799:800   */\n      0x00\n        /* \"#utility.yul\":796:797   */\n      0x00\n        /* \"#utility.yul\":789:801   */\n      revert\n        /* \"#utility.yul\":813:930   */\n    tag_29:\n        /* \"#utility.yul\":922:923   */\n      0x00\n        /* \"#utility.yul\":919:920   */\n      0x00\n        /* \"#utility.yul\":912:924   */\n      revert\n        /* \"#utility.yul\":936:1038   */\n    tag_30:\n        /* \"#utility.yul\":977:983   */\n      0x00\n        /* \"#utility.yul\":1028:1030   */\n      0x1f\n        /* \"#utility.yul\":1024:1031   */\n      not\n        /* \"#utility.yul\":1019:1021   */\n      0x1f\n        /* \"#utility.yul\":1012:1017   */\n      dup4\n        /* \"#utility.yul\":1008:1022   */\n      add\n        /* \"#utility.yul\":1004:1032   */\n      and\n        /* \"#utility.yul\":994:1032   */\n      swap1\n      pop\n        /* \"#utility.yul\":936:1038   */\n      swap2\n      swap1\n      pop\n      jump\t// out\n        /* \"#utility.yul\":1044:1224   */\n    tag_31:\n        /* \"#utility.yul\":1092:1169   */\n      0x4e487b7100000000000000000000000000000000000000000000000000000000\n        /* \"#utility.yul\":1089:1090   */\n      0x00\n        /* \"#utility.yul\":1082:1170   */\n      mstore\n        /* \"#utility.yul\":1189:1193   */\n      0x41\n        /* \"#utility.yul\":1186:1187   */\n      0x04\n        /* \"#utility.yul\":1179:1194   */\n      mstore\n        /* \"#utility.yul\":1213:1217   */\n      0x24\n        /* \"#utility.yul\":1210:1211   */\n      0x00\n        /* \"#utility.yul\":1203:1218   */\n      revert\n        /* \"#utility.yul\":1230:1511   */\n    tag_32:\n        /* \"#utility.yul\":1313:1340   */\n      tag_67\n        /* \"#utility.yul\":1335:1339   */\n      dup3\n        /* \"#utility.yul\":1313:1340   */\n      tag_30\n      jump\t// in\n    tag_67:\n        /* \"#utility.yul\":1305:1311   */\n      dup2\n        /* \"#utility.yul\":1301:1341   */\n      add\n        /* \"#utility.yul\":1443:1449   */\n      dup2\n        /* \"#utility.yul\":1431:1441   */\n      dup2\n        /* \"#utility.yul\":1428:1450   */\n      lt\n        /* \"#utility.yul\":1407:1425   */\n      0xffffffffffffffff\n        /* \"#utility.yul\":1395:1405   */\n      dup3\n        /* \"#utility.yul\":1392:1426   */\n      gt\n        /* \"#utility.yul\":1389:1451   */\n      or\n        /* \"#utility.yul\":1386:1474   */\n      iszero\n      tag_68\n      jumpi\n        /* \"#utility.yul\":1454:1472   */\n      tag_69\n      tag_31\n      jump\t// in\n    tag_69:\n        /* \"#utility.yul\":1386:1474   */\n    tag_68:\n        /* \"#utility.yul\":1494:1504   */\n      dup1\n        /* \"#utility.yul\":1490:1492   */\n      0x40\n        /* \"#utility.yul\":1483:1505   */\n      mstore\n        /* \"#utility.yul\":1273:1511   */\n      pop\n        /* \"#utility.yul\":1230:1511   */\n      pop\n      pop\n      jump\t// out\n        /* \"#utility.yul\":1517:1646   */\n    tag_33:\n        /* \"#utility.yul\":1551:1557   */\n      0x00\n        /* \"#utility.yul\":1578:1598   */\n      tag_71\n      tag_22\n      jump\t// in\n    tag_71:\n        /* \"#utility.yul\":1568:1598   */\n      swap1\n      pop\n        /* \"#utility.yul\":1607:1640   */\n      tag_72\n        /* \"#utility.yul\":1635:1639   */\n      dup3\n        /* \"#utility.yul\":1627:1633   */\n      dup3\n        /* \"#utility.yul\":1607:1640   */\n      tag_32\n      jump\t// in\n    tag_72:\n        /* \"#utility.yul\":1517:1646   */\n      swap2\n      swap1\n      pop\n      jump\t// out\n        /* \"#utility.yul\":1652:1960   */\n    tag_34:\n        /* \"#utility.yul\":1714:1718   */\n      0x00\n        /* \"#utility.yul\":1804:1822   */\n      0xffffffffffffffff\n        /* \"#utility.yul\":1796:1802   */\n      dup3\n        /* \"#utility.yul\":1793:1823   */\n      gt\n        /* \"#utility.yul\":1790:1846   */\n      iszero\n      tag_74\n      jumpi\n        /* \"#utility.yul\":1826:1844   */\n      tag_75\n      tag_31\n      jump\t// in\n    tag_75:\n        /* \"#utility.yul\":1790:1846   */\n    tag_74:\n        /* \"#utility.yul\":1864:1893   */\n      tag_76\n        /* \"#utility.yul\":1886:1892   */\n      dup3\n        /* \"#utility.yul\":1864:1893   */\n      tag_30\n      jump\t// in\n    tag_76:\n        /* \"#utility.yul\":1856:1893   */\n      swap1\n      pop\n        /* \"#utility.yul\":1948:1952   */\n      0x20\n        /* \"#utility.yul\":1942:1946   */\n      dup2\n        /* \"#utility.yul\":1938:1953   */\n      add\n        /* \"#utility.yul\":1930:1953   */\n      swap1\n      pop\n        /* \"#utility.yul\":1652:1960   */\n      swap2\n      swap1\n      pop\n      jump\t// out\n        /* \"#utility.yul\":1966:2114   */\n    tag_35:\n        /* \"#utility.yul\":2064:2070   */\n      dup3\n        /* \"#utility.yul\":2059:2062   */\n      dup2\n        /* \"#utility.yul\":2054:2057   */\n      dup4\n        /* \"#utility.yul\":2041:2071   */\n      calldatacopy\n        /* \"#utility.yul\":2105:2106   */\n      0x00\n        /* \"#utility.yul\":2096:2102   */\n      dup4\n        /* \"#utility.yul\":2091:2094   */\n      dup4\n        /* \"#utility.yul\":2087:2103   */\n      add\n        /* \"#utility.yul\":2080:2107   */\n      mstore\n        /* \"#utility.yul\":1966:2114   */\n      pop\n      pop\n      pop\n      jump\t// out\n        /* \"#utility.yul\":2120:2545   */\n    tag_36:\n        /* \"#utility.yul\":2198:2203   */\n      0x00\n        /* \"#utility.yul\":2223:2289   */\n      tag_79\n        /* \"#utility.yul\":2239:2288   */\n      tag_80\n        /* \"#utility.yul\":2281:2287   */\n      dup5\n        /* \"#utility.yul\":2239:2288   */\n      tag_34\n      jump\t// in\n    tag_80:\n        /* \"#utility.yul\":2223:2289   */\n      tag_33\n      jump\t// in\n    tag_79:\n        /* \"#utility.yul\":2214:2289   */\n      swap1\n      pop\n        /* \"#utility.yul\":2312:2318   */\n      dup3\n        /* \"#utility.yul\":2305:2310   */\n      dup2\n        /* \"#utility.yul\":2298:2319   */\n      mstore\n        /* \"#utility.yul\":2350:2354   */\n      0x20\n        /* \"#utility.yul\":2343:2348   */\n      dup2\n        /* \"#utility.yul\":2339:2355   */\n      add\n        /* \"#utility.yul\":2388:2391   */\n      dup5\n        /* \"#utility.yul\":2379:2385   */\n      dup5\n        /* \"#utility.yul\":2374:2377   */\n      dup5\n        /* \"#utility.yul\":2370:2386   */\n      add\n        /* \"#utility.yul\":2367:2392   */\n      gt\n        /* \"#utility.yul\":2364:2476   */\n      iszero\n      tag_81\n      jumpi\n        /* \"#utility.yul\":2395:2474   */\n      tag_82\n      tag_29\n      jump\t// in\n    tag_82:\n        /* \"#utility.yul\":2364:2476   */\n    tag_81:\n        /* \"#utility.yul\":2485:2539   */\n      tag_83\n        /* \"#utility.yul\":2532:2538   */\n      dup5\n        /* \"#utility.yul\":2527:2530   */\n      dup3\n        /* \"#utility.yul\":2522:2525   */\n      dup6\n        /* \"#utility.yul\":2485:2539   */\n      tag_35\n      jump\t// in\n    tag_83:\n        /* \"#utility.yul\":2204:2545   */\n      pop\n        /* \"#utility.yul\":2120:2545   */\n      swap4\n      swap3\n      pop\n      pop\n      pop\n      jump\t// out\n        /* \"#utility.yul\":2565:2905   */\n    tag_37:\n        /* \"#utility.yul\":2621:2626   */\n      0x00\n        /* \"#utility.yul\":2670:2673   */\n      dup3\n        /* \"#utility.yul\":2663:2667   */\n      0x1f\n        /* \"#utility.yul\":2655:2661   */\n      dup4\n        /* \"#utility.yul\":2651:2668   */\n      add\n        /* \"#utility.yul\":2647:2674   */\n      slt\n        /* \"#utility.yul\":2637:2759   */\n      tag_85\n      jumpi\n        /* \"#utility.yul\":2678:2757   */\n      tag_86\n      tag_28\n      jump\t// in\n    tag_86:\n        /* \"#utility.yul\":2637:2759   */\n    tag_85:\n        /* \"#utility.yul\":2795:2801   */\n      dup2\n        /* \"#utility.yul\":2782:2802   */\n      calldataload\n        /* \"#utility.yul\":2820:2899   */\n      tag_87\n        /* \"#utility.yul\":2895:2898   */\n      dup5\n        /* \"#utility.yul\":2887:2893   */\n      dup3\n        /* \"#utility.yul\":2880:2884   */\n      0x20\n        /* \"#utility.yul\":2872:2878   */\n      dup7\n        /* \"#utility.yul\":2868:2885   */\n      add\n        /* \"#utility.yul\":2820:2899   */\n      tag_36\n      jump\t// in\n    tag_87:\n        /* \"#utility.yul\":2811:2899   */\n      swap2\n      pop\n        /* \"#utility.yul\":2627:2905   */\n      pop\n        /* \"#utility.yul\":2565:2905   */\n      swap3\n      swap2\n      pop\n      pop\n      jump\t// out\n        /* \"#utility.yul\":2911:3565   */\n    tag_7:\n        /* \"#utility.yul\":2989:2995   */\n      0x00\n        /* \"#utility.yul\":2997:3003   */\n      0x00\n        /* \"#utility.yul\":3046:3048   */\n      0x40\n        /* \"#utility.yul\":3034:3043   */\n      dup4\n        /* \"#utility.yul\":3025:3032   */\n      dup6\n        /* \"#utility.yul\":3021:3044   */\n      sub\n        /* \"#utility.yul\":3017:3049   */\n      slt\n        /* \"#utility.yul\":3014:3133   */\n      iszero\n      tag_89\n      jumpi\n        /* \"#utility.yul\":3052:3131   */\n      tag_90\n      tag_23\n      jump\t// in\n    tag_90:\n        /* \"#utility.yul\":3014:3133   */\n    tag_89:\n        /* \"#utility.yul\":3172:3173   */\n      0x00\n        /* \"#utility.yul\":3197:3250   */\n      tag_91\n        /* \"#utility.yul\":3242:3249   */\n      dup6\n        /* \"#utility.yul\":3233:3239   */\n      dup3\n        /* \"#utility.yul\":3222:3231   */\n      dup7\n        /* \"#utility.yul\":3218:3240   */\n      add\n        /* \"#utility.yul\":3197:3250   */\n      tag_27\n      jump\t// in\n    tag_91:\n        /* \"#utility.yul\":3187:3250   */\n      swap3\n      pop\n        /* \"#utility.yul\":3143:3260   */\n      pop\n        /* \"#utility.yul\":3327:3329   */\n      0x20\n        /* \"#utility.yul\":3316:3325   */\n      dup4\n        /* \"#utility.yul\":3312:3330   */\n      add\n        /* \"#utility.yul\":3299:3331   */\n      calldataload\n        /* \"#utility.yul\":3358:3376   */\n      0xffffffffffffffff\n        /* \"#utility.yul\":3350:3356   */\n      dup2\n        /* \"#utility.yul\":3347:3377   */\n      gt\n        /* \"#utility.yul\":3344:3461   */\n      iszero\n      tag_92\n      jumpi\n        /* \"#utility.yul\":3380:3459   */\n      tag_93\n      tag_24\n      jump\t// in\n    tag_93:\n        /* \"#utility.yul\":3344:3461   */\n    tag_92:\n        /* \"#utility.yul\":3485:3548   */\n      tag_94\n        /* \"#utility.yul\":3540:3547   */\n      dup6\n        /* \"#utility.yul\":3531:3537   */\n      dup3\n        /* \"#utility.yul\":3520:3529   */\n      dup7\n        /* \"#utility.yul\":3516:3538   */\n      add\n        /* \"#utility.yul\":3485:3548   */\n      tag_37\n      jump\t// in\n    tag_94:\n        /* \"#utility.yul\":3475:3548   */\n      swap2\n      pop\n        /* \"#utility.yul\":3270:3558   */\n      pop\n        /* \"#utility.yul\":2911:3565   */\n      swap3\n      pop\n      swap3\n      swap1\n      pop\n      jump\t// out\n        /* \"#utility.yul\":3571:3669   */\n    tag_38:\n        /* \"#utility.yul\":3622:3628   */\n      0x00\n        /* \"#utility.yul\":3656:3661   */\n      dup2\n        /* \"#utility.yul\":3650:3662   */\n      mload\n        /* \"#utility.yul\":3640:3662   */\n      swap1\n      pop\n        /* \"#utility.yul\":3571:3669   */\n      swap2\n      swap1\n      pop\n      jump\t// out\n        /* \"#utility.yul\":3675:3843   */\n    tag_39:\n        /* \"#utility.yul\":3758:3769   */\n      0x00\n        /* \"#utility.yul\":3792:3798   */\n      dup3\n        /* \"#utility.yul\":3787:3790   */\n      dup3\n        /* \"#utility.yul\":3780:3799   */\n      mstore\n        /* \"#utility.yul\":3832:3836   */\n      0x20\n        /* \"#utility.yul\":3827:3830   */\n      dup3\n        /* \"#utility.yul\":3823:3837   */\n      add\n        /* \"#utility.yul\":3808:3837   */\n      swap1\n      pop\n        /* \"#utility.yul\":3675:3843   */\n      swap3\n      swap2\n      pop\n      pop\n      jump\t// out\n        /* \"#utility.yul\":3849:3988   */\n    tag_40:\n        /* \"#utility.yul\":3938:3944   */\n      dup3\n        /* \"#utility.yul\":3933:3936   */\n      dup2\n        /* \"#utility.yul\":3928:3931   */\n      dup4\n        /* \"#utility.yul\":3922:3945   */\n      mcopy\n        /* \"#utility.yul\":3979:3980   */\n      0x00\n        /* \"#utility.yul\":3970:3976   */\n      dup4\n        /* \"#utility.yul\":3965:3968   */\n      dup4\n        /* \"#utility.yul\":3961:3977   */\n      add\n        /* \"#utility.yul\":3954:3981   */\n      mstore\n        /* \"#utility.yul\":3849:3988   */\n      pop\n      pop\n      pop\n      jump\t// out\n        /* \"#utility.yul\":3994:4367   */\n    tag_41:\n        /* \"#utility.yul\":4080:4083   */\n      0x00\n        /* \"#utility.yul\":4108:4146   */\n      tag_99\n        /* \"#utility.yul\":4140:4145   */\n      dup3\n        /* \"#utility.yul\":4108:4146   */\n      tag_38\n      jump\t// in\n    tag_99:\n        /* \"#utility.yul\":4162:4232   */\n      tag_100\n        /* \"#utility.yul\":4225:4231   */\n      dup2\n        /* \"#utility.yul\":4220:4223   */\n      dup6\n        /* \"#utility.yul\":4162:4232   */\n      tag_39\n      jump\t// in\n    tag_100:\n        /* \"#utility.yul\":4155:4232   */\n      swap4\n      pop\n        /* \"#utility.yul\":4241:4306   */\n      tag_101\n        /* \"#utility.yul\":4299:4305   */\n      dup2\n        /* \"#utility.yul\":4294:4297   */\n      dup6\n        /* \"#utility.yul\":4287:4291   */\n      0x20\n        /* \"#utility.yul\":4280:4285   */\n      dup7\n        /* \"#utility.yul\":4276:4292   */\n      add\n        /* \"#utility.yul\":4241:4306   */\n      tag_40\n      jump\t// in\n    tag_101:\n        /* \"#utility.yul\":4331:4360   */\n      tag_102\n        /* \"#utility.yul\":4353:4359   */\n      dup2\n        /* \"#utility.yul\":4331:4360   */\n      tag_30\n      jump\t// in\n    tag_102:\n        /* \"#utility.yul\":4326:4329   */\n      dup5\n        /* \"#utility.yul\":4322:4361   */\n      add\n        /* \"#utility.yul\":4315:4361   */\n      swap2\n      pop\n        /* \"#utility.yul\":4084:4367   */\n      pop\n        /* \"#utility.yul\":3994:4367   */\n      swap3\n      swap2\n      pop\n      pop\n      jump\t// out\n        /* \"#utility.yul\":4373:4682   */\n    tag_10:\n        /* \"#utility.yul\":4484:4488   */\n      0x00\n        /* \"#utility.yul\":4522:4524   */\n      0x20\n        /* \"#utility.yul\":4511:4520   */\n      dup3\n        /* \"#utility.yul\":4507:4525   */\n      add\n        /* \"#utility.yul\":4499:4525   */\n      swap1\n      pop\n        /* \"#utility.yul\":4571:4580   */\n      dup2\n        /* \"#utility.yul\":4565:4569   */\n      dup2\n        /* \"#utility.yul\":4561:4581   */\n      sub\n        /* \"#utility.yul\":4557:4558   */\n      0x00\n        /* \"#utility.yul\":4546:4555   */\n      dup4\n        /* \"#utility.yul\":4542:4559   */\n      add\n        /* \"#utility.yul\":4535:4582   */\n      mstore\n        /* \"#utility.yul\":4599:4675   */\n      tag_104\n        /* \"#utility.yul\":4670:4674   */\n      dup2\n        /* \"#utility.yul\":4661:4667   */\n      dup5\n        /* \"#utility.yul\":4599:4675   */\n      tag_41\n      jump\t// in\n    tag_104:\n        /* \"#utility.yul\":4591:4675   */\n      swap1\n      pop\n        /* \"#utility.yul\":4373:4682   */\n      swap3\n      swap2\n      pop\n      pop\n      jump\t// out\n        /* \"#utility.yul\":4688:4995   */\n    tag_42:\n        /* \"#utility.yul\":4749:4753   */\n      0x00\n        /* \"#utility.yul\":4839:4857   */\n      0xffffffffffffffff\n        /* \"#utility.yul\":4831:4837   */\n      dup3\n        /* \"#utility.yul\":4828:4858   */\n      gt\n        /* \"#utility.yul\":4825:4881   */\n      iszero\n      tag_106\n      jumpi\n        /* \"#utility.yul\":4861:4879   */\n      tag_107\n      tag_31\n      jump\t// in\n    tag_107:\n        /* \"#utility.yul\":4825:4881   */\n    tag_106:\n        /* \"#utility.yul\":4899:4928   */\n      tag_108\n        /* \"#utility.yul\":4921:4927   */\n      dup3\n        /* \"#utility.yul\":4899:4928   */\n      tag_30\n      jump\t// in\n    tag_108:\n        /* \"#utility.yul\":4891:4928   */\n      swap1\n      pop\n        /* \"#utility.yul\":4983:4987   */\n      0x20\n        /* \"#utility.yul\":4977:4981   */\n      dup2\n        /* \"#utility.yul\":4973:4988   */\n      add\n        /* \"#utility.yul\":4965:4988   */\n      swap1\n      pop\n        /* \"#utility.yul\":4688:4995   */\n      swap2\n      swap1\n      pop\n      jump\t// out\n        /* \"#utility.yul\":5001:5424   */\n    tag_43:\n        /* \"#utility.yul\":5078:5083   */\n      0x00\n        /* \"#utility.yul\":5103:5168   */\n      tag_110\n        /* \"#utility.yul\":5119:5167   */\n      tag_111\n        /* \"#utility.yul\":5160:5166   */\n      dup5\n        /* \"#utility.yul\":5119:5167   */\n      tag_42\n      jump\t// in\n    tag_111:\n        /* \"#utility.yul\":5103:5168   */\n      tag_33\n      jump\t// in\n    tag_110:\n        /* \"#utility.yul\":5094:5168   */\n      swap1\n      pop\n        /* \"#utility.yul\":5191:5197   */\n      dup3\n        /* \"#utility.yul\":5184:5189   */\n      dup2\n        /* \"#utility.yul\":5177:5198   */\n      mstore\n        /* \"#utility.yul\":5229:5233   */\n      0x20\n        /* \"#utility.yul\":5222:5227   */\n      dup2\n        /* \"#utility.yul\":5218:5234   */\n      add\n        /* \"#utility.yul\":5267:5270   */\n      dup5\n        /* \"#utility.yul\":5258:5264   */\n      dup5\n        /* \"#utility.yul\":5253:5256   */\n      dup5\n        /* \"#utility.yul\":5249:5265   */\n      add\n        /* \"#utility.yul\":5246:5271   */\n      gt\n        /* \"#utility.yul\":5243:5355   */\n      iszero\n      tag_112\n      jumpi\n        /* \"#utility.yul\":5274:5353   */\n      tag_113\n      tag_29\n      jump\t// in\n    tag_113:\n        /* \"#utility.yul\":5243:5355   */\n    tag_112:\n        /* \"#utility.yul\":5364:5418   */\n      tag_114\n        /* \"#utility.yul\":5411:5417   */\n      dup5\n        /* \"#utility.yul\":5406:5409   */\n      dup3\n        /* \"#utility.yul\":5401:5404   */\n      dup6\n        /* \"#utility.yul\":5364:5418   */\n      tag_35\n      jump\t// in\n    tag_114:\n        /* \"#utility.yul\":5084:5424   */\n      pop\n        /* \"#utility.yul\":5001:5424   */\n      swap4\n      swap3\n      pop\n      pop\n      pop\n      jump\t// out\n        /* \"#utility.yul\":5443:5781   */\n    tag_44:\n        /* \"#utility.yul\":5498:5503   */\n      0x00\n        /* \"#utility.yul\":5547:5550   */\n      dup3\n        /* \"#utility.yul\":5540:5544   */\n      0x1f\n        /* \"#utility.yul\":5532:5538   */\n      dup4\n        /* \"#utility.yul\":5528:5545   */\n      add\n        /* \"#utility.yul\":5524:5551   */\n      slt\n        /* \"#utility.yul\":5514:5636   */\n      tag_116\n      jumpi\n        /* \"#utility.yul\":5555:5634   */\n      tag_117\n      tag_28\n      jump\t// in\n    tag_117:\n        /* \"#utility.yul\":5514:5636   */\n    tag_116:\n        /* \"#utility.yul\":5672:5678   */\n      dup2\n        /* \"#utility.yul\":5659:5679   */\n      calldataload\n        /* \"#utility.yul\":5697:5775   */\n      tag_118\n        /* \"#utility.yul\":5771:5774   */\n      dup5\n        /* \"#utility.yul\":5763:5769   */\n      dup3\n        /* \"#utility.yul\":5756:5760   */\n      0x20\n        /* \"#utility.yul\":5748:5754   */\n      dup7\n        /* \"#utility.yul\":5744:5761   */\n      add\n        /* \"#utility.yul\":5697:5775   */\n      tag_43\n      jump\t// in\n    tag_118:\n        /* \"#utility.yul\":5688:5775   */\n      swap2\n      pop\n        /* \"#utility.yul\":5504:5781   */\n      pop\n        /* \"#utility.yul\":5443:5781   */\n      swap3\n      swap2\n      pop\n      pop\n      jump\t// out\n        /* \"#utility.yul\":5787:6294   */\n    tag_13:\n        /* \"#utility.yul\":5855:5861   */\n      0x00\n        /* \"#utility.yul\":5904:5906   */\n      0x20\n        /* \"#utility.yul\":5892:5901   */\n      dup3\n        /* \"#utility.yul\":5883:5890   */\n      dup5\n        /* \"#utility.yul\":5879:5902   */\n      sub\n        /* \"#utility.yul\":5875:5907   */\n      slt\n        /* \"#utility.yul\":5872:5991   */\n      iszero\n      tag_120\n      jumpi\n        /* \"#utility.yul\":5910:5989   */\n      tag_121\n      tag_23\n      jump\t// in\n    tag_121:\n        /* \"#utility.yul\":5872:5991   */\n    tag_120:\n        /* \"#utility.yul\":6058:6059   */\n      0x00\n        /* \"#utility.yul\":6047:6056   */\n      dup3\n        /* \"#utility.yul\":6043:6060   */\n      add\n        /* \"#utility.yul\":6030:6061   */\n      calldataload\n        /* \"#utility.yul\":6088:6106   */\n      0xffffffffffffffff\n        /* \"#utility.yul\":6080:6086   */\n      dup2\n        /* \"#utility.yul\":6077:6107   */\n      gt\n        /* \"#utility.yul\":6074:6191   */\n      iszero\n      tag_122\n      jumpi\n        /* \"#utility.yul\":6110:6189   */\n      tag_123\n      tag_24\n      jump\t// in\n    tag_123:\n        /* \"#utility.yul\":6074:6191   */\n    tag_122:\n        /* \"#utility.yul\":6215:6277   */\n      tag_124\n        /* \"#utility.yul\":6269:6276   */\n      dup5\n        /* \"#utility.yul\":6260:6266   */\n      dup3\n        /* \"#utility.yul\":6249:6258   */\n      dup6\n        /* \"#utility.yul\":6245:6267   */\n      add\n        /* \"#utility.yul\":6215:6277   */\n      tag_44\n      jump\t// in\n    tag_124:\n        /* \"#utility.yul\":6205:6277   */\n      swap2\n      pop\n        /* \"#utility.yul\":6001:6287   */\n      pop\n        /* \"#utility.yul\":5787:6294   */\n      swap3\n      swap2\n      pop\n      pop\n      jump\t// out\n        /* \"#utility.yul\":6300:6418   */\n    tag_45:\n        /* \"#utility.yul\":6387:6411   */\n      tag_126\n        /* \"#utility.yul\":6405:6410   */\n      dup2\n        /* \"#utility.yul\":6387:6411   */\n      tag_25\n      jump\t// in\n    tag_126:\n        /* \"#utility.yul\":6382:6385   */\n      dup3\n        /* \"#utility.yul\":6375:6412   */\n      mstore\n        /* \"#utility.yul\":6300:6418   */\n      pop\n      pop\n      jump\t// out\n        /* \"#utility.yul\":6424:6523   */\n    tag_46:\n        /* \"#utility.yul\":6476:6482   */\n      0x00\n        /* \"#utility.yul\":6510:6515   */\n      dup2\n        /* \"#utility.yul\":6504:6516   */\n      mload\n        /* \"#utility.yul\":6494:6516   */\n      swap1\n      pop\n        /* \"#utility.yul\":6424:6523   */\n      swap2\n      swap1\n      pop\n      jump\t// out\n        /* \"#utility.yul\":6529:6698   */\n    tag_47:\n        /* \"#utility.yul\":6613:6624   */\n      0x00\n        /* \"#utility.yul\":6647:6653   */\n      dup3\n        /* \"#utility.yul\":6642:6645   */\n      dup3\n        /* \"#utility.yul\":6635:6654   */\n      mstore\n        /* \"#utility.yul\":6687:6691   */\n      0x20\n        /* \"#utility.yul\":6682:6685   */\n      dup3\n        /* \"#utility.yul\":6678:6692   */\n      add\n        /* \"#utility.yul\":6663:6692   */\n      swap1\n      pop\n        /* \"#utility.yul\":6529:6698   */\n      swap3\n      swap2\n      pop\n      pop\n      jump\t// out\n        /* \"#utility.yul\":6704:7081   */\n    tag_48:\n        /* \"#utility.yul\":6792:6795   */\n      0x00\n        /* \"#utility.yul\":6820:6859   */\n      tag_130\n        /* \"#utility.yul\":6853:6858   */\n      dup3\n        /* \"#utility.yul\":6820:6859   */\n      tag_46\n      jump\t// in\n    tag_130:\n        /* \"#utility.yul\":6875:6946   */\n      tag_131\n        /* \"#utility.yul\":6939:6945   */\n      dup2\n        /* \"#utility.yul\":6934:6937   */\n      dup6\n        /* \"#utility.yul\":6875:6946   */\n      tag_47\n      jump\t// in\n    tag_131:\n        /* \"#utility.yul\":6868:6946   */\n      swap4\n      pop\n        /* \"#utility.yul\":6955:7020   */\n      tag_132\n        /* \"#utility.yul\":7013:7019   */\n      dup2\n        /* \"#utility.yul\":7008:7011   */\n      dup6\n        /* \"#utility.yul\":7001:7005   */\n      0x20\n        /* \"#utility.yul\":6994:6999   */\n      dup7\n        /* \"#utility.yul\":6990:7006   */\n      add\n        /* \"#utility.yul\":6955:7020   */\n      tag_40\n      jump\t// in\n    tag_132:\n        /* \"#utility.yul\":7045:7074   */\n      tag_133\n        /* \"#utility.yul\":7067:7073   */\n      dup2\n        /* \"#utility.yul\":7045:7074   */\n      tag_30\n      jump\t// in\n    tag_133:\n        /* \"#utility.yul\":7040:7043   */\n      dup5\n        /* \"#utility.yul\":7036:7075   */\n      add\n        /* \"#utility.yul\":7029:7075   */\n      swap2\n      pop\n        /* \"#utility.yul\":6796:7081   */\n      pop\n        /* \"#utility.yul\":6704:7081   */\n      swap3\n      swap2\n      pop\n      pop\n      jump\t// out\n        /* \"#utility.yul\":7087:7510   */\n    tag_16:\n        /* \"#utility.yul\":7228:7232   */\n      0x00\n        /* \"#utility.yul\":7266:7268   */\n      0x40\n        /* \"#utility.yul\":7255:7264   */\n      dup3\n        /* \"#utility.yul\":7251:7269   */\n      add\n        /* \"#utility.yul\":7243:7269   */\n      swap1\n      pop\n        /* \"#utility.yul\":7279:7350   */\n      tag_135\n        /* \"#utility.yul\":7347:7348   */\n      0x00\n        /* \"#utility.yul\":7336:7345   */\n      dup4\n        /* \"#utility.yul\":7332:7349   */\n      add\n        /* \"#utility.yul\":7323:7329   */\n      dup6\n        /* \"#utility.yul\":7279:7350   */\n      tag_45\n      jump\t// in\n    tag_135:\n        /* \"#utility.yul\":7397:7406   */\n      dup2\n        /* \"#utility.yul\":7391:7395   */\n      dup2\n        /* \"#utility.yul\":7387:7407   */\n      sub\n        /* \"#utility.yul\":7382:7384   */\n      0x20\n        /* \"#utility.yul\":7371:7380   */\n      dup4\n        /* \"#utility.yul\":7367:7385   */\n      add\n        /* \"#utility.yul\":7360:7408   */\n      mstore\n        /* \"#utility.yul\":7425:7503   */\n      tag_136\n        /* \"#utility.yul\":7498:7502   */\n      dup2\n        /* \"#utility.yul\":7489:7495   */\n      dup5\n        /* \"#utility.yul\":7425:7503   */\n      tag_48\n      jump\t// in\n    tag_136:\n        /* \"#utility.yul\":7417:7503   */\n      swap1\n      pop\n        /* \"#utility.yul\":7087:7510   */\n      swap4\n      swap3\n      pop\n      pop\n      pop\n      jump\t// out\n        /* \"#utility.yul\":7516:7659   */\n    tag_49:\n        /* \"#utility.yul\":7573:7578   */\n      0x00\n        /* \"#utility.yul\":7604:7610   */\n      dup2\n        /* \"#utility.yul\":7598:7611   */\n      mload\n        /* \"#utility.yul\":7589:7611   */\n      swap1\n      pop\n        /* \"#utility.yul\":7620:7653   */\n      tag_138\n        /* \"#utility.yul\":7647:7652   */\n      dup2\n        /* \"#utility.yul\":7620:7653   */\n      tag_26\n      jump\t// in\n    tag_138:\n        /* \"#utility.yul\":7516:7659   */\n      swap3\n      swap2\n      pop\n      pop\n      jump\t// out\n        /* \"#utility.yul\":7665:8099   */\n    tag_50:\n        /* \"#utility.yul\":7754:7759   */\n      0x00\n        /* \"#utility.yul\":7779:7845   */\n      tag_140\n        /* \"#utility.yul\":7795:7844   */\n      tag_141\n        /* \"#utility.yul\":7837:7843   */\n      dup5\n        /* \"#utility.yul\":7795:7844   */\n      tag_34\n      jump\t// in\n    tag_141:\n        /* \"#utility.yul\":7779:7845   */\n      tag_33\n      jump\t// in\n    tag_140:\n        /* \"#utility.yul\":7770:7845   */\n      swap1\n      pop\n        /* \"#utility.yul\":7868:7874   */\n      dup3\n        /* \"#utility.yul\":7861:7866   */\n      dup2\n        /* \"#utility.yul\":7854:7875   */\n      mstore\n        /* \"#utility.yul\":7906:7910   */\n      0x20\n        /* \"#utility.yul\":7899:7904   */\n      dup2\n        /* \"#utility.yul\":7895:7911   */\n      add\n        /* \"#utility.yul\":7944:7947   */\n      dup5\n        /* \"#utility.yul\":7935:7941   */\n      dup5\n        /* \"#utility.yul\":7930:7933   */\n      dup5\n        /* \"#utility.yul\":7926:7942   */\n      add\n        /* \"#utility.yul\":7923:7948   */\n      gt\n        /* \"#utility.yul\":7920:8032   */\n      iszero\n      tag_142\n      jumpi\n        /* \"#utility.yul\":7951:8030   */\n      tag_143\n      tag_29\n      jump\t// in\n    tag_143:\n        /* \"#utility.yul\":7920:8032   */\n    tag_142:\n        /* \"#utility.yul\":8041:8093   */\n      tag_144\n        /* \"#utility.yul\":8086:8092   */\n      dup5\n        /* \"#utility.yul\":8081:8084   */\n      dup3\n        /* \"#utility.yul\":8076:8079   */\n      dup6\n        /* \"#utility.yul\":8041:8093   */\n      tag_40\n      jump\t// in\n    tag_144:\n        /* \"#utility.yul\":7760:8099   */\n      pop\n        /* \"#utility.yul\":7665:8099   */\n      swap4\n      swap3\n      pop\n      pop\n      pop\n      jump\t// out\n        /* \"#utility.yul\":8119:8474   */\n    tag_51:\n        /* \"#utility.yul\":8186:8191   */\n      0x00\n        /* \"#utility.yul\":8235:8238   */\n      dup3\n        /* \"#utility.yul\":8228:8232   */\n      0x1f\n        /* \"#utility.yul\":8220:8226   */\n      dup4\n        /* \"#utility.yul\":8216:8233   */\n      add\n        /* \"#utility.yul\":8212:8239   */\n      slt\n        /* \"#utility.yul\":8202:8324   */\n      tag_146\n      jumpi\n        /* \"#utility.yul\":8243:8322   */\n      tag_147\n      tag_28\n      jump\t// in\n    tag_147:\n        /* \"#utility.yul\":8202:8324   */\n    tag_146:\n        /* \"#utility.yul\":8353:8359   */\n      dup2\n        /* \"#utility.yul\":8347:8360   */\n      mload\n        /* \"#utility.yul\":8378:8468   */\n      tag_148\n        /* \"#utility.yul\":8464:8467   */\n      dup5\n        /* \"#utility.yul\":8456:8462   */\n      dup3\n        /* \"#utility.yul\":8449:8453   */\n      0x20\n        /* \"#utility.yul\":8441:8447   */\n      dup7\n        /* \"#utility.yul\":8437:8454   */\n      add\n        /* \"#utility.yul\":8378:8468   */\n      tag_50\n      jump\t// in\n    tag_148:\n        /* \"#utility.yul\":8369:8468   */\n      swap2\n      pop\n        /* \"#utility.yul\":8192:8474   */\n      pop\n        /* \"#utility.yul\":8119:8474   */\n      swap3\n      swap2\n      pop\n      pop\n      jump\t// out\n        /* \"#utility.yul\":8480:9160   */\n    tag_21:\n        /* \"#utility.yul\":8569:8575   */\n      0x00\n        /* \"#utility.yul\":8577:8583   */\n      0x00\n        /* \"#utility.yul\":8626:8628   */\n      0x40\n        /* \"#utility.yul\":8614:8623   */\n      dup4\n        /* \"#utility.yul\":8605:8612   */\n      dup6\n        /* \"#utility.yul\":8601:8624   */\n      sub\n        /* \"#utility.yul\":8597:8629   */\n      slt\n        /* \"#utility.yul\":8594:8713   */\n      iszero\n      tag_150\n      jumpi\n        /* \"#utility.yul\":8632:8711   */\n      tag_151\n      tag_23\n      jump\t// in\n    tag_151:\n        /* \"#utility.yul\":8594:8713   */\n    tag_150:\n        /* \"#utility.yul\":8752:8753   */\n      0x00\n        /* \"#utility.yul\":8777:8841   */\n      tag_152\n        /* \"#utility.yul\":8833:8840   */\n      dup6\n        /* \"#utility.yul\":8824:8830   */\n      dup3\n        /* \"#utility.yul\":8813:8822   */\n      dup7\n        /* \"#utility.yul\":8809:8831   */\n      add\n        /* \"#utility.yul\":8777:8841   */\n      tag_49\n      jump\t// in\n    tag_152:\n        /* \"#utility.yul\":8767:8841   */\n      swap3\n      pop\n        /* \"#utility.yul\":8723:8851   */\n      pop\n        /* \"#utility.yul\":8911:8913   */\n      0x20\n        /* \"#utility.yul\":8900:8909   */\n      dup4\n        /* \"#utility.yul\":8896:8914   */\n      add\n        /* \"#utility.yul\":8890:8915   */\n      mload\n        /* \"#utility.yul\":8942:8960   */\n      0xffffffffffffffff\n        /* \"#utility.yul\":8934:8940   */\n      dup2\n        /* \"#utility.yul\":8931:8961   */\n      gt\n        /* \"#utility.yul\":8928:9045   */\n      iszero\n      tag_153\n      jumpi\n        /* \"#utility.yul\":8964:9043   */\n      tag_154\n      tag_24\n      jump\t// in\n    tag_154:\n        /* \"#utility.yul\":8928:9045   */\n    tag_153:\n        /* \"#utility.yul\":9069:9143   */\n      tag_155\n        /* \"#utility.yul\":9135:9142   */\n      dup6\n        /* \"#utility.yul\":9126:9132   */\n      dup3\n        /* \"#utility.yul\":9115:9124   */\n      dup7\n        /* \"#utility.yul\":9111:9133   */\n      add\n        /* \"#utility.yul\":9069:9143   */\n      tag_51\n      jump\t// in\n    tag_155:\n        /* \"#utility.yul\":9059:9143   */\n      swap2\n      pop\n        /* \"#utility.yul\":8861:9153   */\n      pop\n        /* \"#utility.yul\":8480:9160   */\n      swap3\n      pop\n      swap3\n      swap1\n      pop\n      jump\t// out\n\n    auxdata: 0xa26469706673582212200640ced487ab36898345f54a6a234630c2bbf9a361f0d4be4d997e1bbf4ce09464736f6c634300081e0033\n}\n",
				"bytecode": {
					"linkReferences": {},
					"object": "6080604052348015600e575f5ffd5b506105c98061001c5f395ff3fe608060405234801561000f575f5ffd5b5060043610610034575f3560e01c806342a6e67214610038578063b410f64514610068575b5f5ffd5b610052600480360381019061004d9190610269565b610099565b60405161005f9190610323565b60405180910390f35b610082600480360381019061007d91906103e1565b6100c5565b604051610090929190610489565b60405180910390f35b606082826040516020016100ae929190610489565b604051602081830303815290604052905092915050565b5f6060828060200190518101906100dc9190610539565b8092508193505050915091565b5f604051905090565b5f5ffd5b5f5ffd5b5f819050919050565b61010c816100fa565b8114610116575f5ffd5b50565b5f8135905061012781610103565b92915050565b5f5ffd5b5f5ffd5b5f601f19601f8301169050919050565b7f4e487b71000000000000000000000000000000000000000000000000000000005f52604160045260245ffd5b61017b82610135565b810181811067ffffffffffffffff8211171561019a57610199610145565b5b80604052505050565b5f6101ac6100e9565b90506101b88282610172565b919050565b5f67ffffffffffffffff8211156101d7576101d6610145565b5b6101e082610135565b9050602081019050919050565b828183375f83830152505050565b5f61020d610208846101bd565b6101a3565b90508281526020810184848401111561022957610228610131565b5b6102348482856101ed565b509392505050565b5f82601f8301126102505761024f61012d565b5b81356102608482602086016101fb565b91505092915050565b5f5f6040838503121561027f5761027e6100f2565b5b5f61028c85828601610119565b925050602083013567ffffffffffffffff8111156102ad576102ac6100f6565b5b6102b98582860161023c565b9150509250929050565b5f81519050919050565b5f82825260208201905092915050565b8281835e5f83830152505050565b5f6102f5826102c3565b6102ff81856102cd565b935061030f8185602086016102dd565b61031881610135565b840191505092915050565b5f6020820190508181035f83015261033b81846102eb565b905092915050565b5f67ffffffffffffffff82111561035d5761035c610145565b5b61036682610135565b9050602081019050919050565b5f61038561038084610343565b6101a3565b9050828152602081018484840111156103a1576103a0610131565b5b6103ac8482856101ed565b509392505050565b5f82601f8301126103c8576103c761012d565b5b81356103d8848260208601610373565b91505092915050565b5f602082840312156103f6576103f56100f2565b5b5f82013567ffffffffffffffff811115610413576104126100f6565b5b61041f848285016103b4565b91505092915050565b610431816100fa565b82525050565b5f81519050919050565b5f82825260208201905092915050565b5f61045b82610437565b6104658185610441565b93506104758185602086016102dd565b61047e81610135565b840191505092915050565b5f60408201905061049c5f830185610428565b81810360208301526104ae8184610451565b90509392505050565b5f815190506104c581610103565b92915050565b5f6104dd6104d8846101bd565b6101a3565b9050828152602081018484840111156104f9576104f8610131565b5b6105048482856102dd565b509392505050565b5f82601f8301126105205761051f61012d565b5b81516105308482602086016104cb565b91505092915050565b5f5f6040838503121561054f5761054e6100f2565b5b5f61055c858286016104b7565b925050602083015167ffffffffffffffff81111561057d5761057c6100f6565b5b6105898582860161050c565b915050925092905056fea26469706673582212200640ced487ab36898345f54a6a234630c2bbf9a361f0d4be4d997e1bbf4ce09464736f6c634300081e0033",
					"opcodes": "PUSH1 0x80 PUSH1 0x40 MSTORE CALLVALUE DUP1 ISZERO PUSH1 0xE JUMPI PUSH0 PUSH0 REVERT JUMPDEST POP PUSH2 0x5C9 DUP1 PUSH2 0x1C PUSH0 CODECOPY PUSH0 RETURN INVALID PUSH1 0x80 PUSH1 0x40 MSTORE CALLVALUE DUP1 ISZERO PUSH2 0xF JUMPI PUSH0 PUSH0 REVERT JUMPDEST POP PUSH1 0x4 CALLDATASIZE LT PUSH2 0x34 JUMPI PUSH0 CALLDATALOAD PUSH1 0xE0 SHR DUP1 PUSH4 0x42A6E672 EQ PUSH2 0x38 JUMPI DUP1 PUSH4 0xB410F645 EQ PUSH2 0x68 JUMPI JUMPDEST PUSH0 PUSH0 REVERT JUMPDEST PUSH2 0x52 PUSH1 0x4 DUP1 CALLDATASIZE SUB DUP2 ADD SWAP1 PUSH2 0x4D SWAP2 SWAP1 PUSH2 0x269 JUMP JUMPDEST PUSH2 0x99 JUMP JUMPDEST PUSH1 0x40 MLOAD PUSH2 0x5F SWAP2 SWAP1 PUSH2 0x323 JUMP JUMPDEST PUSH1 0x40 MLOAD DUP1 SWAP2 SUB SWAP1 RETURN JUMPDEST PUSH2 0x82 PUSH1 0x4 DUP1 CALLDATASIZE SUB DUP2 ADD SWAP1 PUSH2 0x7D SWAP2 SWAP1 PUSH2 0x3E1 JUMP JUMPDEST PUSH2 0xC5 JUMP JUMPDEST PUSH1 0x40 MLOAD PUSH2 0x90 SWAP3 SWAP2 SWAP1 PUSH2 0x489 JUMP JUMPDEST PUSH1 0x40 MLOAD DUP1 SWAP2 SUB SWAP1 RETURN JUMPDEST PUSH1 0x60 DUP3 DUP3 PUSH1 0x40 MLOAD PUSH1 0x20 ADD PUSH2 0xAE SWAP3 SWAP2 SWAP1 PUSH2 0x489 JUMP JUMPDEST PUSH1 0x40 MLOAD PUSH1 0x20 DUP2 DUP4 SUB SUB DUP2 MSTORE SWAP1 PUSH1 0x40 MSTORE SWAP1 POP SWAP3 SWAP2 POP POP JUMP JUMPDEST PUSH0 PUSH1 0x60 DUP3 DUP1 PUSH1 0x20 ADD SWAP1 MLOAD DUP2 ADD SWAP1 PUSH2 0xDC SWAP2 SWAP1 PUSH2 0x539 JUMP JUMPDEST DUP1 SWAP3 POP DUP2 SWAP4 POP POP POP SWAP2 POP SWAP2 JUMP JUMPDEST PUSH0 PUSH1 0x40 MLOAD SWAP1 POP SWAP1 JUMP JUMPDEST PUSH0 PUSH0 REVERT JUMPDEST PUSH0 PUSH0 REVERT JUMPDEST PUSH0 DUP2 SWAP1 POP SWAP2 SWAP1 POP JUMP JUMPDEST PUSH2 0x10C DUP2 PUSH2 0xFA JUMP JUMPDEST DUP2 EQ PUSH2 0x116 JUMPI PUSH0 PUSH0 REVERT JUMPDEST POP JUMP JUMPDEST PUSH0 DUP2 CALLDATALOAD SWAP1 POP PUSH2 0x127 DUP2 PUSH2 0x103 JUMP JUMPDEST SWAP3 SWAP2 POP POP JUMP JUMPDEST PUSH0 PUSH0 REVERT JUMPDEST PUSH0 PUSH0 REVERT JUMPDEST PUSH0 PUSH1 0x1F NOT PUSH1 0x1F DUP4 ADD AND SWAP1 POP SWAP2 SWAP1 POP JUMP JUMPDEST PUSH32 0x4E487B7100000000000000000000000000000000000000000000000000000000 PUSH0 MSTORE PUSH1 0x41 PUSH1 0x4 MSTORE PUSH1 0x24 PUSH0 REVERT JUMPDEST PUSH2 0x17B DUP3 PUSH2 0x135 JUMP JUMPDEST DUP2 ADD DUP2 DUP2 LT PUSH8 0xFFFFFFFFFFFFFFFF DUP3 GT OR ISZERO PUSH2 0x19A JUMPI PUSH2 0x199 PUSH2 0x145 JUMP JUMPDEST JUMPDEST DUP1 PUSH1 0x40 MSTORE POP POP POP JUMP JUMPDEST PUSH0 PUSH2 0x1AC PUSH2 0xE9 JUMP JUMPDEST SWAP1 POP PUSH2 0x1B8 DUP3 DUP3 PUSH2 0x172 JUMP JUMPDEST SWAP2 SWAP1 POP JUMP JUMPDEST PUSH0 PUSH8 0xFFFFFFFFFFFFFFFF DUP3 GT ISZERO PUSH2 0x1D7 JUMPI PUSH2 0x1D6 PUSH2 0x145 JUMP JUMPDEST JUMPDEST PUSH2 0x1E0 DUP3 PUSH2 0x135 JUMP JUMPDEST SWAP1 POP PUSH1 0x20 DUP2 ADD SWAP1 POP SWAP2 SWAP1 POP JUMP JUMPDEST DUP3 DUP2 DUP4 CALLDATACOPY PUSH0 DUP4 DUP4 ADD MSTORE POP POP POP JUMP JUMPDEST PUSH0 PUSH2 0x20D PUSH2 0x208 DUP5 PUSH2 0x1BD JUMP JUMPDEST PUSH2 0x1A3 JUMP JUMPDEST SWAP1 POP DUP3 DUP2 MSTORE PUSH1 0x20 DUP2 ADD DUP5 DUP5 DUP5 ADD GT ISZERO PUSH2 0x229 JUMPI PUSH2 0x228 PUSH2 0x131 JUMP JUMPDEST JUMPDEST PUSH2 0x234 DUP5 DUP3 DUP6 PUSH2 0x1ED JUMP JUMPDEST POP SWAP4 SWAP3 POP POP POP JUMP JUMPDEST PUSH0 DUP3 PUSH1 0x1F DUP4 ADD SLT PUSH2 0x250 JUMPI PUSH2 0x24F PUSH2 0x12D JUMP JUMPDEST JUMPDEST DUP2 CALLDATALOAD PUSH2 0x260 DUP5 DUP3 PUSH1 0x20 DUP7 ADD PUSH2 0x1FB JUMP JUMPDEST SWAP2 POP POP SWAP3 SWAP2 POP POP JUMP JUMPDEST PUSH0 PUSH0 PUSH1 0x40 DUP4 DUP6 SUB SLT ISZERO PUSH2 0x27F JUMPI PUSH2 0x27E PUSH2 0xF2 JUMP JUMPDEST JUMPDEST PUSH0 PUSH2 0x28C DUP6 DUP3 DUP7 ADD PUSH2 0x119 JUMP JUMPDEST SWAP3 POP POP PUSH1 0x20 DUP4 ADD CALLDATALOAD PUSH8 0xFFFFFFFFFFFFFFFF DUP2 GT ISZERO PUSH2 0x2AD JUMPI PUSH2 0x2AC PUSH2 0xF6 JUMP JUMPDEST JUMPDEST PUSH2 0x2B9 DUP6 DUP3 DUP7 ADD PUSH2 0x23C JUMP JUMPDEST SWAP2 POP POP SWAP3 POP SWAP3 SWAP1 POP JUMP JUMPDEST PUSH0 DUP2 MLOAD SWAP1 POP SWAP2 SWAP1 POP JUMP JUMPDEST PUSH0 DUP3 DUP3 MSTORE PUSH1 0x20 DUP3 ADD SWAP1 POP SWAP3 SWAP2 POP POP JUMP JUMPDEST DUP3 DUP2 DUP4 MCOPY PUSH0 DUP4 DUP4 ADD MSTORE POP POP POP JUMP JUMPDEST PUSH0 PUSH2 0x2F5 DUP3 PUSH2 0x2C3 JUMP JUMPDEST PUSH2 0x2FF DUP2 DUP6 PUSH2 0x2CD JUMP JUMPDEST SWAP4 POP PUSH2 0x30F DUP2 DUP6 PUSH1 0x20 DUP7 ADD PUSH2 0x2DD JUMP JUMPDEST PUSH2 0x318 DUP2 PUSH2 0x135 JUMP JUMPDEST DUP5 ADD SWAP2 POP POP SWAP3 SWAP2 POP POP JUMP JUMPDEST PUSH0 PUSH1 0x20 DUP3 ADD SWAP1 POP DUP2 DUP2 SUB PUSH0 DUP4 ADD MSTORE PUSH2 0x33B DUP2 DUP5 PUSH2 0x2EB JUMP JUMPDEST SWAP1 POP SWAP3 SWAP2 POP POP JUMP JUMPDEST PUSH0 PUSH8 0xFFFFFFFFFFFFFFFF DUP3 GT ISZERO PUSH2 0x35D JUMPI PUSH2 0x35C PUSH2 0x145 JUMP JUMPDEST JUMPDEST PUSH2 0x366 DUP3 PUSH2 0x135 JUMP JUMPDEST SWAP1 POP PUSH1 0x20 DUP2 ADD SWAP1 POP SWAP2 SWAP1 POP JUMP JUMPDEST PUSH0 PUSH2 0x385 PUSH2 0x380 DUP5 PUSH2 0x343 JUMP JUMPDEST PUSH2 0x1A3 JUMP JUMPDEST SWAP1 POP DUP3 DUP2 MSTORE PUSH1 0x20 DUP2 ADD DUP5 DUP5 DUP5 ADD GT ISZERO PUSH2 0x3A1 JUMPI PUSH2 0x3A0 PUSH2 0x131 JUMP JUMPDEST JUMPDEST PUSH2 0x3AC DUP5 DUP3 DUP6 PUSH2 0x1ED JUMP JUMPDEST POP SWAP4 SWAP3 POP POP POP JUMP JUMPDEST PUSH0 DUP3 PUSH1 0x1F DUP4 ADD SLT PUSH2 0x3C8 JUMPI PUSH2 0x3C7 PUSH2 0x12D JUMP JUMPDEST JUMPDEST DUP2 CALLDATALOAD PUSH2 0x3D8 DUP5 DUP3 PUSH1 0x20 DUP7 ADD PUSH2 0x373 JUMP JUMPDEST SWAP2 POP POP SWAP3 SWAP2 POP POP JUMP JUMPDEST PUSH0 PUSH1 0x20 DUP3 DUP5 SUB SLT ISZERO PUSH2 0x3F6 JUMPI PUSH2 0x3F5 PUSH2 0xF2 JUMP JUMPDEST JUMPDEST PUSH0 DUP3 ADD CALLDATALOAD PUSH8 0xFFFFFFFFFFFFFFFF DUP2 GT ISZERO PUSH2 0x413 JUMPI PUSH2 0x412 PUSH2 0xF6 JUMP JUMPDEST JUMPDEST PUSH2 0x41F DUP5 DUP3 DUP6 ADD PUSH2 0x3B4 JUMP JUMPDEST SWAP2 POP POP SWAP3 SWAP2 POP POP JUMP JUMPDEST PUSH2 0x431 DUP2 PUSH2 0xFA JUMP JUMPDEST DUP3 MSTORE POP POP JUMP JUMPDEST PUSH0 DUP2 MLOAD SWAP1 POP SWAP2 SWAP1 POP JUMP JUMPDEST PUSH0 DUP3 DUP3 MSTORE PUSH1 0x20 DUP3 ADD SWAP1 POP SWAP3 SWAP2 POP POP JUMP JUMPDEST PUSH0 PUSH2 0x45B DUP3 PUSH2 0x437 JUMP JUMPDEST PUSH2 0x465 DUP2 DUP6 PUSH2 0x441 JUMP JUMPDEST SWAP4 POP PUSH2 0x475 DUP2 DUP6 PUSH1 0x20 DUP7 ADD PUSH2 0x2DD JUMP JUMPDEST PUSH2 0x47E DUP2 PUSH2 0x135 JUMP JUMPDEST DUP5 ADD SWAP2 POP POP SWAP3 SWAP2 POP POP JUMP JUMPDEST PUSH0 PUSH1 0x40 DUP3 ADD SWAP1 POP PUSH2 0x49C PUSH0 DUP4 ADD DUP6 PUSH2 0x428 JUMP JUMPDEST DUP2 DUP2 SUB PUSH1 0x20 DUP4 ADD MSTORE PUSH2 0x4AE DUP2 DUP5 PUSH2 0x451 JUMP JUMPDEST SWAP1 POP SWAP4 SWAP3 POP POP POP JUMP JUMPDEST PUSH0 DUP2 MLOAD SWAP1 POP PUSH2 0x4C5 DUP2 PUSH2 0x103 JUMP JUMPDEST SWAP3 SWAP2 POP POP JUMP JUMPDEST PUSH0 PUSH2 0x4DD PUSH2 0x4D8 DUP5 PUSH2 0x1BD JUMP JUMPDEST PUSH2 0x1A3 JUMP JUMPDEST SWAP1 POP DUP3 DUP2 MSTORE PUSH1 0x20 DUP2 ADD DUP5 DUP5 DUP5 ADD GT ISZERO PUSH2 0x4F9 JUMPI PUSH2 0x4F8 PUSH2 0x131 JUMP JUMPDEST JUMPDEST PUSH2 0x504 DUP5 DUP3 DUP6 PUSH2 0x2DD JUMP JUMPDEST POP SWAP4 SWAP3 POP POP POP JUMP JUMPDEST PUSH0 DUP3 PUSH1 0x1F DUP4 ADD SLT PUSH2 0x520 JUMPI PUSH2 0x51F PUSH2 0x12D JUMP JUMPDEST JUMPDEST DUP2 MLOAD PUSH2 0x530 DUP5 DUP3 PUSH1 0x20 DUP7 ADD PUSH2 0x4CB JUMP JUMPDEST SWAP2 POP POP SWAP3 SWAP2 POP POP JUMP JUMPDEST PUSH0 PUSH0 PUSH1 0x40 DUP4 DUP6 SUB SLT ISZERO PUSH2 0x54F JUMPI PUSH2 0x54E PUSH2 0xF2 JUMP JUMPDEST JUMPDEST PUSH0 PUSH2 0x55C DUP6 DUP3 DUP7 ADD PUSH2 0x4B7 JUMP JUMPDEST SWAP3 POP POP PUSH1 0x20 DUP4 ADD MLOAD PUSH8 0xFFFFFFFFFFFFFFFF DUP2 GT ISZERO PUSH2 0x57D JUMPI PUSH2 0x57C PUSH2 0xF6 JUMP JUMPDEST JUMPDEST PUSH2 0x589 DUP6 DUP3 DUP7 ADD PUSH2 0x50C JUMP JUMPDEST SWAP2 POP POP SWAP3 POP SWAP3 SWAP1 POP JUMP INVALID LOG2 PUSH5 0x6970667358 0x22 SLT KECCAK256 MOD BLOCKHASH 0xCE 0xD4 DUP8 0xAB CALLDATASIZE DUP10 DUP4 GASLIMIT CREATE2 BLOBBASEFEE PUSH11 0x234630C2BBF9A361F0D4BE 0x4D SWAP10 PUSH31 0x1BBF4CE09464736F6C634300081E0033000000000000000000000000000000 "
				},
				"gasEstimates": {
					"creation": {
						"codeDepositCost": "296200",
						"executionCost": "335",
						"totalCost": "296535"
					},
					"external": {
						"encodeData(uint256,string)": "infinite",
						"receiveData(bytes)": "infinite"
					}
				},
				"methodIdentifiers": {
					"encodeData(uint256,string)": "42a6e672",
					"receiveData(bytes)": "b410f645"
				}
			},
			"storageLayout": {
				"storage": [],
				"types": null
			},
			"userdoc": {
				"kind": "user",
				"methods": {},
				"version": 1
			}
		}
	}
}