{
	".learneth/ethereum/remix-workshops/8.4 Data Structures - Enums/enums_answer.sol": {
		"Enum": {
			"abi": [
				{
					"inputs": [],
					"name": "cancel",
					"outputs": [],
					"stateMutability": "nonpayable",
					"type": "function"
				},
				{
					"inputs": [],
					"name": "get",
					"outputs": [
						{
							"internalType": "enum Enum.Status",
							"name": "",
							"type": "uint8"
						}
					],
					"stateMutability": "view",
					"type": "function"
				},
				{
					"inputs": [],
					"name": "getSize",
					"outputs": [
						{
							"internalType": "enum Enum.Size",
							"name": "",
							"type": "uint8"
						}
					],
					"stateMutability": "view",
					"type": "function"
				},
				{
					"inputs": [],
					"name": "reset",
					"outputs": [],
					"stateMutability": "nonpayable",
					"type": "function"
				},
				{
					"inputs": [
						{
							"internalType": "enum Enum.Status",
							"name": "_status",
							"type": "uint8"
						}
					],
					"name": "set",
					"outputs": [],
					"stateMutability": "nonpayable",
					"type": "function"
				},
				{
					"inputs": [],
					"name": "sizes",
					"outputs": [
						{
							"internalType": "enum Enum.Size",
							"name": "",
							"type": "uint8"
						}
					],
					"stateMutability": "view",
					"type": "function"
				},
				{
					"inputs": [],
					"name": "status",
					"outputs": [
						{
							"internalType": "enum Enum.Status",
							"name": "",
							"type": "uint8"
						}
					],
					"stateMutability": "view",
					"type": "function"
				}
			],
			"devdoc": {
				"kind": "dev",
				"methods": {},
				"version": 1
			},
			"evm": {
				"assembly": "    /* \".learneth/ethereum/remix-workshops/8.4 Data Structures - Enums/enums_answer.sol\":57:964  contract Enum {... */\n  mstore(0x40, 0x80)\n  callvalue\n  dup1\n  iszero\n  tag_1\n  jumpi\n  0x00\n  dup1\n  revert\ntag_1:\n  pop\n  dataSize(sub_0)\n  dup1\n  dataOffset(sub_0)\n  0x00\n  codecopy\n  0x00\n  return\nstop\n\nsub_0: assembly {\n        /* \".learneth/ethereum/remix-workshops/8.4 Data Structures - Enums/enums_answer.sol\":57:964  contract Enum {... */\n      mstore(0x40, 0x80)\n      callvalue\n      dup1\n      iszero\n      tag_1\n      jumpi\n      0x00\n      dup1\n      revert\n    tag_1:\n      pop\n      jumpi(tag_2, lt(calldatasize, 0x04))\n      shr(0xe0, calldataload(0x00))\n      dup1\n      0xd826f88f\n      gt\n      tag_10\n      jumpi\n      dup1\n      0xd826f88f\n      eq\n      tag_6\n      jumpi\n      dup1\n      0xde8fa431\n      eq\n      tag_7\n      jumpi\n      dup1\n      0xe4da41a7\n      eq\n      tag_8\n      jumpi\n      dup1\n      0xea8a1af0\n      eq\n      tag_9\n      jumpi\n      jump(tag_2)\n    tag_10:\n      dup1\n      0x200d2ed2\n      eq\n      tag_3\n      jumpi\n      dup1\n      0x24b8ba5f\n      eq\n      tag_4\n      jumpi\n      dup1\n      0x6d4ce63c\n      eq\n      tag_5\n      jumpi\n    tag_2:\n      0x00\n      dup1\n      revert\n        /* \".learneth/ethereum/remix-workshops/8.4 Data Structures - Enums/enums_answer.sol\":395:415  Status public status */\n    tag_3:\n      tag_11\n      tag_12\n      jump\t// in\n    tag_11:\n      mload(0x40)\n      tag_13\n      swap2\n      swap1\n      tag_14\n      jump\t// in\n    tag_13:\n      mload(0x40)\n      dup1\n      swap2\n      sub\n      swap1\n      return\n        /* \".learneth/ethereum/remix-workshops/8.4 Data Structures - Enums/enums_answer.sol\":658:727  function set(Status _status) public {... */\n    tag_4:\n      tag_15\n      0x04\n      dup1\n      calldatasize\n      sub\n      dup2\n      add\n      swap1\n      tag_16\n      swap2\n      swap1\n      tag_17\n      jump\t// in\n    tag_16:\n      tag_18\n      jump\t// in\n    tag_15:\n      stop\n        /* \".learneth/ethereum/remix-workshops/8.4 Data Structures - Enums/enums_answer.sol\":445:519  function get() public view returns (Status) {... */\n    tag_5:\n      tag_19\n      tag_20\n      jump\t// in\n    tag_19:\n      mload(0x40)\n      tag_21\n      swap2\n      swap1\n      tag_14\n      jump\t// in\n    tag_21:\n      mload(0x40)\n      dup1\n      swap2\n      sub\n      swap1\n      return\n        /* \".learneth/ethereum/remix-workshops/8.4 Data Structures - Enums/enums_answer.sol\":908:962  function reset() public {... */\n    tag_6:\n      tag_22\n      tag_23\n      jump\t// in\n    tag_22:\n      stop\n        /* \".learneth/ethereum/remix-workshops/8.4 Data Structures - Enums/enums_answer.sol\":529:604  function getSize() public view returns (Size) {... */\n    tag_7:\n      tag_24\n      tag_25\n      jump\t// in\n    tag_24:\n      mload(0x40)\n      tag_26\n      swap2\n      swap1\n      tag_27\n      jump\t// in\n    tag_26:\n      mload(0x40)\n      dup1\n      swap2\n      sub\n      swap1\n      return\n        /* \".learneth/ethereum/remix-workshops/8.4 Data Structures - Enums/enums_answer.sol\":421:438  Size public sizes */\n    tag_8:\n      tag_28\n      tag_29\n      jump\t// in\n    tag_28:\n      mload(0x40)\n      tag_30\n      swap2\n      swap1\n      tag_27\n      jump\t// in\n    tag_30:\n      mload(0x40)\n      dup1\n      swap2\n      sub\n      swap1\n      return\n        /* \".learneth/ethereum/remix-workshops/8.4 Data Structures - Enums/enums_answer.sol\":784:850  function cancel() public {... */\n    tag_9:\n      tag_31\n      tag_32\n      jump\t// in\n    tag_31:\n      stop\n        /* \".learneth/ethereum/remix-workshops/8.4 Data Structures - Enums/enums_answer.sol\":395:415  Status public status */\n    tag_12:\n      0x00\n      dup1\n      sload\n      swap1\n      0x0100\n      exp\n      swap1\n      div\n      0xff\n      and\n      dup2\n      jump\t// out\n        /* \".learneth/ethereum/remix-workshops/8.4 Data Structures - Enums/enums_answer.sol\":658:727  function set(Status _status) public {... */\n    tag_18:\n        /* \".learneth/ethereum/remix-workshops/8.4 Data Structures - Enums/enums_answer.sol\":713:720  _status */\n      dup1\n        /* \".learneth/ethereum/remix-workshops/8.4 Data Structures - Enums/enums_answer.sol\":704:710  status */\n      0x00\n      dup1\n        /* \".learneth/ethereum/remix-workshops/8.4 Data Structures - Enums/enums_answer.sol\":704:720  status = _status */\n      0x0100\n      exp\n      dup2\n      sload\n      dup2\n      0xff\n      mul\n      not\n      and\n      swap1\n      dup4\n      0x04\n      dup2\n      gt\n      iszero\n      tag_34\n      jumpi\n      tag_35\n      tag_36\n      jump\t// in\n    tag_35:\n    tag_34:\n      mul\n      or\n      swap1\n      sstore\n      pop\n        /* \".learneth/ethereum/remix-workshops/8.4 Data Structures - Enums/enums_answer.sol\":658:727  function set(Status _status) public {... */\n      pop\n      jump\t// out\n        /* \".learneth/ethereum/remix-workshops/8.4 Data Structures - Enums/enums_answer.sol\":445:519  function get() public view returns (Status) {... */\n    tag_20:\n        /* \".learneth/ethereum/remix-workshops/8.4 Data Structures - Enums/enums_answer.sol\":481:487  Status */\n      0x00\n        /* \".learneth/ethereum/remix-workshops/8.4 Data Structures - Enums/enums_answer.sol\":506:512  status */\n      dup1\n      0x00\n      swap1\n      sload\n      swap1\n      0x0100\n      exp\n      swap1\n      div\n      0xff\n      and\n        /* \".learneth/ethereum/remix-workshops/8.4 Data Structures - Enums/enums_answer.sol\":499:512  return status */\n      swap1\n      pop\n        /* \".learneth/ethereum/remix-workshops/8.4 Data Structures - Enums/enums_answer.sol\":445:519  function get() public view returns (Status) {... */\n      swap1\n      jump\t// out\n        /* \".learneth/ethereum/remix-workshops/8.4 Data Structures - Enums/enums_answer.sol\":908:962  function reset() public {... */\n    tag_23:\n        /* \".learneth/ethereum/remix-workshops/8.4 Data Structures - Enums/enums_answer.sol\":949:955  status */\n      0x00\n      dup1\n        /* \".learneth/ethereum/remix-workshops/8.4 Data Structures - Enums/enums_answer.sol\":942:955  delete status */\n      0x0100\n      exp\n      dup2\n      sload\n      swap1\n      0xff\n      mul\n      not\n      and\n      swap1\n      sstore\n        /* \".learneth/ethereum/remix-workshops/8.4 Data Structures - Enums/enums_answer.sol\":908:962  function reset() public {... */\n      jump\t// out\n        /* \".learneth/ethereum/remix-workshops/8.4 Data Structures - Enums/enums_answer.sol\":529:604  function getSize() public view returns (Size) {... */\n    tag_25:\n        /* \".learneth/ethereum/remix-workshops/8.4 Data Structures - Enums/enums_answer.sol\":569:573  Size */\n      0x00\n        /* \".learneth/ethereum/remix-workshops/8.4 Data Structures - Enums/enums_answer.sol\":592:597  sizes */\n      dup1\n      0x01\n      swap1\n      sload\n      swap1\n      0x0100\n      exp\n      swap1\n      div\n      0xff\n      and\n        /* \".learneth/ethereum/remix-workshops/8.4 Data Structures - Enums/enums_answer.sol\":585:597  return sizes */\n      swap1\n      pop\n        /* \".learneth/ethereum/remix-workshops/8.4 Data Structures - Enums/enums_answer.sol\":529:604  function getSize() public view returns (Size) {... */\n      swap1\n      jump\t// out\n        /* \".learneth/ethereum/remix-workshops/8.4 Data Structures - Enums/enums_answer.sol\":421:438  Size public sizes */\n    tag_29:\n      0x00\n      0x01\n      swap1\n      sload\n      swap1\n      0x0100\n      exp\n      swap1\n      div\n      0xff\n      and\n      dup2\n      jump\t// out\n        /* \".learneth/ethereum/remix-workshops/8.4 Data Structures - Enums/enums_answer.sol\":784:850  function cancel() public {... */\n    tag_32:\n        /* \".learneth/ethereum/remix-workshops/8.4 Data Structures - Enums/enums_answer.sol\":828:843  Status.Canceled */\n      0x04\n        /* \".learneth/ethereum/remix-workshops/8.4 Data Structures - Enums/enums_answer.sol\":819:825  status */\n      0x00\n      dup1\n        /* \".learneth/ethereum/remix-workshops/8.4 Data Structures - Enums/enums_answer.sol\":819:843  status = Status.Canceled */\n      0x0100\n      exp\n      dup2\n      sload\n      dup2\n      0xff\n      mul\n      not\n      and\n      swap1\n      dup4\n      0x04\n      dup2\n      gt\n      iszero\n      tag_41\n      jumpi\n      tag_42\n      tag_36\n      jump\t// in\n    tag_42:\n    tag_41:\n      mul\n      or\n      swap1\n      sstore\n      pop\n        /* \".learneth/ethereum/remix-workshops/8.4 Data Structures - Enums/enums_answer.sol\":784:850  function cancel() public {... */\n      jump\t// out\n        /* \"#utility.yul\":7:187   */\n    tag_36:\n        /* \"#utility.yul\":55:132   */\n      0x4e487b7100000000000000000000000000000000000000000000000000000000\n        /* \"#utility.yul\":52:53   */\n      0x00\n        /* \"#utility.yul\":45:133   */\n      mstore\n        /* \"#utility.yul\":152:156   */\n      0x21\n        /* \"#utility.yul\":149:150   */\n      0x04\n        /* \"#utility.yul\":142:157   */\n      mstore\n        /* \"#utility.yul\":176:180   */\n      0x24\n        /* \"#utility.yul\":173:174   */\n      0x00\n        /* \"#utility.yul\":166:181   */\n      revert\n        /* \"#utility.yul\":193:306   */\n    tag_43:\n        /* \"#utility.yul\":274:275   */\n      0x05\n        /* \"#utility.yul\":267:272   */\n      dup2\n        /* \"#utility.yul\":264:276   */\n      lt\n        /* \"#utility.yul\":254:300   */\n      tag_59\n      jumpi\n        /* \"#utility.yul\":280:298   */\n      tag_60\n      tag_36\n      jump\t// in\n    tag_60:\n        /* \"#utility.yul\":254:300   */\n    tag_59:\n        /* \"#utility.yul\":193:306   */\n      pop\n      jump\t// out\n        /* \"#utility.yul\":312:439   */\n    tag_44:\n        /* \"#utility.yul\":357:364   */\n      0x00\n        /* \"#utility.yul\":386:391   */\n      dup2\n        /* \"#utility.yul\":375:391   */\n      swap1\n      pop\n        /* \"#utility.yul\":392:433   */\n      tag_62\n        /* \"#utility.yul\":427:432   */\n      dup3\n        /* \"#utility.yul\":392:433   */\n      tag_43\n      jump\t// in\n    tag_62:\n        /* \"#utility.yul\":312:439   */\n      swap2\n      swap1\n      pop\n      jump\t// out\n        /* \"#utility.yul\":445:572   */\n    tag_45:\n        /* \"#utility.yul\":501:510   */\n      0x00\n        /* \"#utility.yul\":534:566   */\n      tag_64\n        /* \"#utility.yul\":560:565   */\n      dup3\n        /* \"#utility.yul\":534:566   */\n      tag_44\n      jump\t// in\n    tag_64:\n        /* \"#utility.yul\":521:566   */\n      swap1\n      pop\n        /* \"#utility.yul\":445:572   */\n      swap2\n      swap1\n      pop\n      jump\t// out\n        /* \"#utility.yul\":578:721   */\n    tag_46:\n        /* \"#utility.yul\":671:714   */\n      tag_66\n        /* \"#utility.yul\":708:713   */\n      dup2\n        /* \"#utility.yul\":671:714   */\n      tag_45\n      jump\t// in\n    tag_66:\n        /* \"#utility.yul\":666:669   */\n      dup3\n        /* \"#utility.yul\":659:715   */\n      mstore\n        /* \"#utility.yul\":578:721   */\n      pop\n      pop\n      jump\t// out\n        /* \"#utility.yul\":727:961   */\n    tag_14:\n        /* \"#utility.yul\":826:830   */\n      0x00\n        /* \"#utility.yul\":864:866   */\n      0x20\n        /* \"#utility.yul\":853:862   */\n      dup3\n        /* \"#utility.yul\":849:867   */\n      add\n        /* \"#utility.yul\":841:867   */\n      swap1\n      pop\n        /* \"#utility.yul\":877:954   */\n      tag_68\n        /* \"#utility.yul\":951:952   */\n      0x00\n        /* \"#utility.yul\":940:949   */\n      dup4\n        /* \"#utility.yul\":936:953   */\n      add\n        /* \"#utility.yul\":927:933   */\n      dup5\n        /* \"#utility.yul\":877:954   */\n      tag_46\n      jump\t// in\n    tag_68:\n        /* \"#utility.yul\":727:961   */\n      swap3\n      swap2\n      pop\n      pop\n      jump\t// out\n        /* \"#utility.yul\":1048:1165   */\n    tag_48:\n        /* \"#utility.yul\":1157:1158   */\n      0x00\n        /* \"#utility.yul\":1154:1155   */\n      dup1\n        /* \"#utility.yul\":1147:1159   */\n      revert\n        /* \"#utility.yul\":1294:1401   */\n    tag_50:\n        /* \"#utility.yul\":1375:1376   */\n      0x05\n        /* \"#utility.yul\":1368:1373   */\n      dup2\n        /* \"#utility.yul\":1365:1377   */\n      lt\n        /* \"#utility.yul\":1355:1395   */\n      tag_73\n      jumpi\n        /* \"#utility.yul\":1391:1392   */\n      0x00\n        /* \"#utility.yul\":1388:1389   */\n      dup1\n        /* \"#utility.yul\":1381:1393   */\n      revert\n        /* \"#utility.yul\":1355:1395   */\n    tag_73:\n        /* \"#utility.yul\":1294:1401   */\n      pop\n      jump\t// out\n        /* \"#utility.yul\":1407:1562   */\n    tag_51:\n        /* \"#utility.yul\":1461:1466   */\n      0x00\n        /* \"#utility.yul\":1499:1505   */\n      dup2\n        /* \"#utility.yul\":1486:1506   */\n      calldataload\n        /* \"#utility.yul\":1477:1506   */\n      swap1\n      pop\n        /* \"#utility.yul\":1515:1556   */\n      tag_75\n        /* \"#utility.yul\":1550:1555   */\n      dup2\n        /* \"#utility.yul\":1515:1556   */\n      tag_50\n      jump\t// in\n    tag_75:\n        /* \"#utility.yul\":1407:1562   */\n      swap3\n      swap2\n      pop\n      pop\n      jump\t// out\n        /* \"#utility.yul\":1568:1913   */\n    tag_17:\n        /* \"#utility.yul\":1635:1641   */\n      0x00\n        /* \"#utility.yul\":1684:1686   */\n      0x20\n        /* \"#utility.yul\":1672:1681   */\n      dup3\n        /* \"#utility.yul\":1663:1670   */\n      dup5\n        /* \"#utility.yul\":1659:1682   */\n      sub\n        /* \"#utility.yul\":1655:1687   */\n      slt\n        /* \"#utility.yul\":1652:1771   */\n      iszero\n      tag_77\n      jumpi\n        /* \"#utility.yul\":1690:1769   */\n      tag_78\n      tag_48\n      jump\t// in\n    tag_78:\n        /* \"#utility.yul\":1652:1771   */\n    tag_77:\n        /* \"#utility.yul\":1810:1811   */\n      0x00\n        /* \"#utility.yul\":1835:1896   */\n      tag_79\n        /* \"#utility.yul\":1888:1895   */\n      dup5\n        /* \"#utility.yul\":1879:1885   */\n      dup3\n        /* \"#utility.yul\":1868:1877   */\n      dup6\n        /* \"#utility.yul\":1864:1886   */\n      add\n        /* \"#utility.yul\":1835:1896   */\n      tag_51\n      jump\t// in\n    tag_79:\n        /* \"#utility.yul\":1825:1896   */\n      swap2\n      pop\n        /* \"#utility.yul\":1781:1906   */\n      pop\n        /* \"#utility.yul\":1568:1913   */\n      swap3\n      swap2\n      pop\n      pop\n      jump\t// out\n        /* \"#utility.yul\":1919:2031   */\n    tag_52:\n        /* \"#utility.yul\":1999:2000   */\n      0x03\n        /* \"#utility.yul\":1992:1997   */\n      dup2\n        /* \"#utility.yul\":1989:2001   */\n      lt\n        /* \"#utility.yul\":1979:2025   */\n      tag_81\n      jumpi\n        /* \"#utility.yul\":2005:2023   */\n      tag_82\n      tag_36\n      jump\t// in\n    tag_82:\n        /* \"#utility.yul\":1979:2025   */\n    tag_81:\n        /* \"#utility.yul\":1919:2031   */\n      pop\n      jump\t// out\n        /* \"#utility.yul\":2037:2162   */\n    tag_53:\n        /* \"#utility.yul\":2081:2088   */\n      0x00\n        /* \"#utility.yul\":2110:2115   */\n      dup2\n        /* \"#utility.yul\":2099:2115   */\n      swap1\n      pop\n        /* \"#utility.yul\":2116:2156   */\n      tag_84\n        /* \"#utility.yul\":2150:2155   */\n      dup3\n        /* \"#utility.yul\":2116:2156   */\n      tag_52\n      jump\t// in\n    tag_84:\n        /* \"#utility.yul\":2037:2162   */\n      swap2\n      swap1\n      pop\n      jump\t// out\n        /* \"#utility.yul\":2168:2293   */\n    tag_54:\n        /* \"#utility.yul\":2223:2232   */\n      0x00\n        /* \"#utility.yul\":2256:2287   */\n      tag_86\n        /* \"#utility.yul\":2281:2286   */\n      dup3\n        /* \"#utility.yul\":2256:2287   */\n      tag_53\n      jump\t// in\n    tag_86:\n        /* \"#utility.yul\":2243:2287   */\n      swap1\n      pop\n        /* \"#utility.yul\":2168:2293   */\n      swap2\n      swap1\n      pop\n      jump\t// out\n        /* \"#utility.yul\":2299:2440   */\n    tag_55:\n        /* \"#utility.yul\":2391:2433   */\n      tag_88\n        /* \"#utility.yul\":2427:2432   */\n      dup2\n        /* \"#utility.yul\":2391:2433   */\n      tag_54\n      jump\t// in\n    tag_88:\n        /* \"#utility.yul\":2386:2389   */\n      dup3\n        /* \"#utility.yul\":2379:2434   */\n      mstore\n        /* \"#utility.yul\":2299:2440   */\n      pop\n      pop\n      jump\t// out\n        /* \"#utility.yul\":2446:2678   */\n    tag_27:\n        /* \"#utility.yul\":2544:2548   */\n      0x00\n        /* \"#utility.yul\":2582:2584   */\n      0x20\n        /* \"#utility.yul\":2571:2580   */\n      dup3\n        /* \"#utility.yul\":2567:2585   */\n      add\n        /* \"#utility.yul\":2559:2585   */\n      swap1\n      pop\n        /* \"#utility.yul\":2595:2671   */\n      tag_90\n        /* \"#utility.yul\":2668:2669   */\n      0x00\n        /* \"#utility.yul\":2657:2666   */\n      dup4\n        /* \"#utility.yul\":2653:2670   */\n      add\n        /* \"#utility.yul\":2644:2650   */\n      dup5\n        /* \"#utility.yul\":2595:2671   */\n      tag_55\n      jump\t// in\n    tag_90:\n        /* \"#utility.yul\":2446:2678   */\n      swap3\n      swap2\n      pop\n      pop\n      jump\t// out\n\n    auxdata: 0xa2646970667358221220a72b60f4a6337478314b2c81be9170ec050c0fff7b8f094393763df62b05657464736f6c634300081a0033\n}\n",
				"bytecode": {
					"linkReferences": {},
					"object": "6080604052348015600e575f80fd5b5061034d8061001c5f395ff3fe608060405234801561000f575f80fd5b506004361061007b575f3560e01c8063d826f88f11610059578063d826f88f146100d7578063de8fa431146100e1578063e4da41a7146100ff578063ea8a1af01461011d5761007b565b8063200d2ed21461007f57806324b8ba5f1461009d5780636d4ce63c146100b9575b5f80fd5b610087610127565b604051610094919061024d565b60405180910390f35b6100b760048036038101906100b2919061028d565b610137565b005b6100c1610162565b6040516100ce919061024d565b60405180910390f35b6100df610176565b005b6100e9610188565b6040516100f691906102fe565b60405180910390f35b61010761019d565b60405161011491906102fe565b60405180910390f35b6101256101af565b005b5f8054906101000a900460ff1681565b805f806101000a81548160ff0219169083600481111561015a576101596101da565b5b021790555050565b5f805f9054906101000a900460ff16905090565b5f806101000a81549060ff0219169055565b5f8060019054906101000a900460ff16905090565b5f60019054906101000a900460ff1681565b60045f806101000a81548160ff021916908360048111156101d3576101d26101da565b5b0217905550565b7f4e487b71000000000000000000000000000000000000000000000000000000005f52602160045260245ffd5b60058110610218576102176101da565b5b50565b5f81905061022882610207565b919050565b5f6102378261021b565b9050919050565b6102478161022d565b82525050565b5f6020820190506102605f83018461023e565b92915050565b5f80fd5b60058110610276575f80fd5b50565b5f813590506102878161026a565b92915050565b5f602082840312156102a2576102a1610266565b5b5f6102af84828501610279565b91505092915050565b600381106102c9576102c86101da565b5b50565b5f8190506102d9826102b8565b919050565b5f6102e8826102cc565b9050919050565b6102f8816102de565b82525050565b5f6020820190506103115f8301846102ef565b9291505056fea2646970667358221220a72b60f4a6337478314b2c81be9170ec050c0fff7b8f094393763df62b05657464736f6c634300081a0033",
					"opcodes": "PUSH1 0x80 PUSH1 0x40 MSTORE CALLVALUE DUP1 ISZERO PUSH1 0xE JUMPI PUSH0 DUP1 REVERT JUMPDEST POP PUSH2 0x34D DUP1 PUSH2 0x1C PUSH0 CODECOPY PUSH0 RETURN INVALID PUSH1 0x80 PUSH1 0x40 MSTORE CALLVALUE DUP1 ISZERO PUSH2 0xF JUMPI PUSH0 DUP1 REVERT JUMPDEST POP PUSH1 0x4 CALLDATASIZE LT PUSH2 0x7B JUMPI PUSH0 CALLDATALOAD PUSH1 0xE0 SHR DUP1 PUSH4 0xD826F88F GT PUSH2 0x59 JUMPI DUP1 PUSH4 0xD826F88F EQ PUSH2 0xD7 JUMPI DUP1 PUSH4 0xDE8FA431 EQ PUSH2 0xE1 JUMPI DUP1 PUSH4 0xE4DA41A7 EQ PUSH2 0xFF JUMPI DUP1 PUSH4 0xEA8A1AF0 EQ PUSH2 0x11D JUMPI PUSH2 0x7B JUMP JUMPDEST DUP1 PUSH4 0x200D2ED2 EQ PUSH2 0x7F JUMPI DUP1 PUSH4 0x24B8BA5F EQ PUSH2 0x9D JUMPI DUP1 PUSH4 0x6D4CE63C EQ PUSH2 0xB9 JUMPI JUMPDEST PUSH0 DUP1 REVERT JUMPDEST PUSH2 0x87 PUSH2 0x127 JUMP JUMPDEST PUSH1 0x40 MLOAD PUSH2 0x94 SWAP2 SWAP1 PUSH2 0x24D JUMP JUMPDEST PUSH1 0x40 MLOAD DUP1 SWAP2 SUB SWAP1 RETURN JUMPDEST PUSH2 0xB7 PUSH1 0x4 DUP1 CALLDATASIZE SUB DUP2 ADD SWAP1 PUSH2 0xB2 SWAP2 SWAP1 PUSH2 0x28D JUMP JUMPDEST PUSH2 0x137 JUMP JUMPDEST STOP JUMPDEST PUSH2 0xC1 PUSH2 0x162 JUMP JUMPDEST PUSH1 0x40 MLOAD PUSH2 0xCE SWAP2 SWAP1 PUSH2 0x24D JUMP JUMPDEST PUSH1 0x40 MLOAD DUP1 SWAP2 SUB SWAP1 RETURN JUMPDEST PUSH2 0xDF PUSH2 0x176 JUMP JUMPDEST STOP JUMPDEST PUSH2 0xE9 PUSH2 0x188 JUMP JUMPDEST PUSH1 0x40 MLOAD PUSH2 0xF6 SWAP2 SWAP1 PUSH2 0x2FE JUMP JUMPDEST PUSH1 0x40 MLOAD DUP1 SWAP2 SUB SWAP1 RETURN JUMPDEST PUSH2 0x107 PUSH2 0x19D JUMP JUMPDEST PUSH1 0x40 MLOAD PUSH2 0x114 SWAP2 SWAP1 PUSH2 0x2FE JUMP JUMPDEST PUSH1 0x40 MLOAD DUP1 SWAP2 SUB SWAP1 RETURN JUMPDEST PUSH2 0x125 PUSH2 0x1AF JUMP JUMPDEST STOP JUMPDEST PUSH0 DUP1 SLOAD SWAP1 PUSH2 0x100 EXP SWAP1 DIV PUSH1 0xFF AND DUP2 JUMP JUMPDEST DUP1 PUSH0 DUP1 PUSH2 0x100 EXP DUP2 SLOAD DUP2 PUSH1 0xFF MUL NOT AND SWAP1 DUP4 PUSH1 0x4 DUP2 GT ISZERO PUSH2 0x15A JUMPI PUSH2 0x159 PUSH2 0x1DA JUMP JUMPDEST JUMPDEST MUL OR SWAP1 SSTORE POP POP JUMP JUMPDEST PUSH0 DUP1 PUSH0 SWAP1 SLOAD SWAP1 PUSH2 0x100 EXP SWAP1 DIV PUSH1 0xFF AND SWAP1 POP SWAP1 JUMP JUMPDEST PUSH0 DUP1 PUSH2 0x100 EXP DUP2 SLOAD SWAP1 PUSH1 0xFF MUL NOT AND SWAP1 SSTORE JUMP JUMPDEST PUSH0 DUP1 PUSH1 0x1 SWAP1 SLOAD SWAP1 PUSH2 0x100 EXP SWAP1 DIV PUSH1 0xFF AND SWAP1 POP SWAP1 JUMP JUMPDEST PUSH0 PUSH1 0x1 SWAP1 SLOAD SWAP1 PUSH2 0x100 EXP SWAP1 DIV PUSH1 0xFF AND DUP2 JUMP JUMPDEST PUSH1 0x4 PUSH0 DUP1 PUSH2 0x100 EXP DUP2 SLOAD DUP2 PUSH1 0xFF MUL NOT AND SWAP1 DUP4 PUSH1 0x4 DUP2 GT ISZERO PUSH2 0x1D3 JUMPI PUSH2 0x1D2 PUSH2 0x1DA JUMP JUMPDEST JUMPDEST MUL OR SWAP1 SSTORE POP JUMP JUMPDEST PUSH32 0x4E487B7100000000000000000000000000000000000000000000000000000000 PUSH0 MSTORE PUSH1 0x21 PUSH1 0x4 MSTORE PUSH1 0x24 PUSH0 REVERT JUMPDEST PUSH1 0x5 DUP2 LT PUSH2 0x218 JUMPI PUSH2 0x217 PUSH2 0x1DA JUMP JUMPDEST JUMPDEST POP JUMP JUMPDEST PUSH0 DUP2 SWAP1 POP PUSH2 0x228 DUP3 PUSH2 0x207 JUMP JUMPDEST SWAP2 SWAP1 POP JUMP JUMPDEST PUSH0 PUSH2 0x237 DUP3 PUSH2 0x21B JUMP JUMPDEST SWAP1 POP SWAP2 SWAP1 POP JUMP JUMPDEST PUSH2 0x247 DUP2 PUSH2 0x22D JUMP JUMPDEST DUP3 MSTORE POP POP JUMP JUMPDEST PUSH0 PUSH1 0x20 DUP3 ADD SWAP1 POP PUSH2 0x260 PUSH0 DUP4 ADD DUP5 PUSH2 0x23E JUMP JUMPDEST SWAP3 SWAP2 POP POP JUMP JUMPDEST PUSH0 DUP1 REVERT JUMPDEST PUSH1 0x5 DUP2 LT PUSH2 0x276 JUMPI PUSH0 DUP1 REVERT JUMPDEST POP JUMP JUMPDEST PUSH0 DUP2 CALLDATALOAD SWAP1 POP PUSH2 0x287 DUP2 PUSH2 0x26A JUMP JUMPDEST SWAP3 SWAP2 POP POP JUMP JUMPDEST PUSH0 PUSH1 0x20 DUP3 DUP5 SUB SLT ISZERO PUSH2 0x2A2 JUMPI PUSH2 0x2A1 PUSH2 0x266 JUMP JUMPDEST JUMPDEST PUSH0 PUSH2 0x2AF DUP5 DUP3 DUP6 ADD PUSH2 0x279 JUMP JUMPDEST SWAP2 POP POP SWAP3 SWAP2 POP POP JUMP JUMPDEST PUSH1 0x3 DUP2 LT PUSH2 0x2C9 JUMPI PUSH2 0x2C8 PUSH2 0x1DA JUMP JUMPDEST JUMPDEST POP JUMP JUMPDEST PUSH0 DUP2 SWAP1 POP PUSH2 0x2D9 DUP3 PUSH2 0x2B8 JUMP JUMPDEST SWAP2 SWAP1 POP JUMP JUMPDEST PUSH0 PUSH2 0x2E8 DUP3 PUSH2 0x2CC JUMP JUMPDEST SWAP1 POP SWAP2 SWAP1 POP JUMP JUMPDEST PUSH2 0x2F8 DUP2 PUSH2 0x2DE JUMP JUMPDEST DUP3 MSTORE POP POP JUMP JUMPDEST PUSH0 PUSH1 0x20 DUP3 ADD SWAP1 POP PUSH2 0x311 PUSH0 DUP4 ADD DUP5 PUSH2 0x2EF JUMP JUMPDEST SWAP3 SWAP2 POP POP JUMP INVALID LOG2 PUSH5 0x6970667358 0x22 SLT KECCAK256 0xA7 0x2B PUSH1 0xF4 0xA6 CALLER PUSH21 0x78314B2C81BE9170EC050C0FFF7B8F094393763DF6 0x2B SDIV PUSH6 0x7464736F6C63 NUMBER STOP ADDMOD BYTE STOP CALLER "
				},
				"gasEstimates": {
					"creation": {
						"codeDepositCost": "169000",
						"executionCost": "212",
						"totalCost": "169212"
					},
					"external": {
						"cancel()": "24495",
						"get()": "2606",
						"getSize()": "2634",
						"reset()": "24384",
						"set(uint8)": "24668",
						"sizes()": "2648",
						"status()": "2552"
					}
				},
				"methodIdentifiers": {
					"cancel()": "ea8a1af0",
					"get()": "6d4ce63c",
					"getSize()": "de8fa431",
					"reset()": "d826f88f",
					"set(uint8)": "24b8ba5f",
					"sizes()": "e4da41a7",
					"status()": "200d2ed2"
				}
			},
			"storageLayout": {
				"storage": [
					{
						"astId": 14,
						"contract": ".learneth/ethereum/remix-workshops/8.4 Data Structures - Enums/enums_answer.sol:Enum",
						"label": "status",
						"offset": 0,
						"slot": "0",
						"type": "t_enum(Status)7"
					},
					{
						"astId": 17,
						"contract": ".learneth/ethereum/remix-workshops/8.4 Data Structures - Enums/enums_answer.sol:Enum",
						"label": "sizes",
						"offset": 1,
						"slot": "0",
						"type": "t_enum(Size)11"
					}
				],
				"types": {
					"t_enum(Size)11": {
						"encoding": "inplace",
						"label": "enum Enum.Size",
						"numberOfBytes": "1"
					},
					"t_enum(Status)7": {
						"encoding": "inplace",
						"label": "enum Enum.Status",
						"numberOfBytes": "1"
					}
				}
			},
			"userdoc": {
				"kind": "user",
				"methods": {},
				"version": 1
			}
		}
	}
}