{
	".learneth/ethereum/remix-workshops/10.1 Transactions - Ether and Wei/etherAndWei.sol": {
		"EtherUnits": {
			"abi": [
				{
					"inputs": [],
					"name": "amount",
					"outputs": [
						{
							"internalType": "uint256",
							"name": "",
							"type": "uint256"
						}
					],
					"stateMutability": "view",
					"type": "function"
				},
				{
					"inputs": [],
					"name": "isOneEther",
					"outputs": [
						{
							"internalType": "bool",
							"name": "",
							"type": "bool"
						}
					],
					"stateMutability": "view",
					"type": "function"
				},
				{
					"inputs": [],
					"name": "isOneWei",
					"outputs": [
						{
							"internalType": "bool",
							"name": "",
							"type": "bool"
						}
					],
					"stateMutability": "view",
					"type": "function"
				},
				{
					"inputs": [],
					"name": "oneEther",
					"outputs": [
						{
							"internalType": "uint256",
							"name": "",
							"type": "uint256"
						}
					],
					"stateMutability": "view",
					"type": "function"
				},
				{
					"inputs": [],
					"name": "oneWei",
					"outputs": [
						{
							"internalType": "uint256",
							"name": "",
							"type": "uint256"
						}
					],
					"stateMutability": "view",
					"type": "function"
				}
			],
			"devdoc": {
				"kind": "dev",
				"methods": {},
				"version": 1
			},
			"evm": {
				"assembly": "    /* \".learneth/ethereum/remix-workshops/10.1 Transactions - Ether and Wei/etherAndWei.sol\":57:335  contract EtherUnits {... */\n  mstore(0x40, 0x80)\n    /* \".learneth/ethereum/remix-workshops/10.1 Transactions - Ether and Wei/etherAndWei.sol\":104:109  1 wei */\n  0x01\n    /* \".learneth/ethereum/remix-workshops/10.1 Transactions - Ether and Wei/etherAndWei.sol\":83:109  uint public oneWei = 1 wei */\n  0x00\n  sstore\n    /* \".learneth/ethereum/remix-workshops/10.1 Transactions - Ether and Wei/etherAndWei.sol\":174:175  1 */\n  0x01\n    /* \".learneth/ethereum/remix-workshops/10.1 Transactions - Ether and Wei/etherAndWei.sol\":165:170  1 wei */\n  dup1\n    /* \".learneth/ethereum/remix-workshops/10.1 Transactions - Ether and Wei/etherAndWei.sol\":165:175  1 wei == 1 */\n  eq\n    /* \".learneth/ethereum/remix-workshops/10.1 Transactions - Ether and Wei/etherAndWei.sol\":142:175  bool public isOneWei = 1 wei == 1 */\n  0x01\n  exp(0x0100, 0x00)\n  dup2\n  sload\n  dup2\n  0xff\n  mul\n  not\n  and\n  swap1\n  dup4\n  iszero\n  iszero\n  mul\n  or\n  swap1\n  sstore\n  pop\n    /* \".learneth/ethereum/remix-workshops/10.1 Transactions - Ether and Wei/etherAndWei.sol\":205:212  1 ether */\n  0x0de0b6b3a7640000\n    /* \".learneth/ethereum/remix-workshops/10.1 Transactions - Ether and Wei/etherAndWei.sol\":182:212  uint public oneEther = 1 ether */\n  0x02\n  sstore\n    /* \".learneth/ethereum/remix-workshops/10.1 Transactions - Ether and Wei/etherAndWei.sol\":291:295  1e18 */\n  0x0de0b6b3a7640000\n    /* \".learneth/ethereum/remix-workshops/10.1 Transactions - Ether and Wei/etherAndWei.sol\":280:287  1 ether */\n  dup1\n    /* \".learneth/ethereum/remix-workshops/10.1 Transactions - Ether and Wei/etherAndWei.sol\":280:295  1 ether == 1e18 */\n  eq\n    /* \".learneth/ethereum/remix-workshops/10.1 Transactions - Ether and Wei/etherAndWei.sol\":255:295  bool public isOneEther = 1 ether == 1e18 */\n  0x03\n  exp(0x0100, 0x00)\n  dup2\n  sload\n  dup2\n  0xff\n  mul\n  not\n  and\n  swap1\n  dup4\n  iszero\n  iszero\n  mul\n  or\n  swap1\n  sstore\n  pop\n    /* \".learneth/ethereum/remix-workshops/10.1 Transactions - Ether and Wei/etherAndWei.sol\":323:332  0.1 ether */\n  0x016345785d8a0000\n    /* \".learneth/ethereum/remix-workshops/10.1 Transactions - Ether and Wei/etherAndWei.sol\":302:332  uint public amount = 0.1 ether */\n  0x04\n  sstore\n    /* \".learneth/ethereum/remix-workshops/10.1 Transactions - Ether and Wei/etherAndWei.sol\":57:335  contract EtherUnits {... */\n  callvalue\n  dup1\n  iszero\n  tag_1\n  jumpi\n  0x00\n  dup1\n  revert\ntag_1:\n  pop\n  dataSize(sub_0)\n  dup1\n  dataOffset(sub_0)\n  0x00\n  codecopy\n  0x00\n  return\nstop\n\nsub_0: assembly {\n        /* \".learneth/ethereum/remix-workshops/10.1 Transactions - Ether and Wei/etherAndWei.sol\":57:335  contract EtherUnits {... */\n      mstore(0x40, 0x80)\n      callvalue\n      dup1\n      iszero\n      tag_1\n      jumpi\n      0x00\n      dup1\n      revert\n    tag_1:\n      pop\n      jumpi(tag_2, lt(calldatasize, 0x04))\n      shr(0xe0, calldataload(0x00))\n      dup1\n      0x28dc556f\n      eq\n      tag_3\n      jumpi\n      dup1\n      0x4fb2e0be\n      eq\n      tag_4\n      jumpi\n      dup1\n      0xaa8c217c\n      eq\n      tag_5\n      jumpi\n      dup1\n      0xcf0f5d29\n      eq\n      tag_6\n      jumpi\n      dup1\n      0xd297a89f\n      eq\n      tag_7\n      jumpi\n    tag_2:\n      0x00\n      dup1\n      revert\n        /* \".learneth/ethereum/remix-workshops/10.1 Transactions - Ether and Wei/etherAndWei.sol\":142:175  bool public isOneWei = 1 wei == 1 */\n    tag_3:\n      tag_8\n      tag_9\n      jump\t// in\n    tag_8:\n      mload(0x40)\n      tag_10\n      swap2\n      swap1\n      tag_11\n      jump\t// in\n    tag_10:\n      mload(0x40)\n      dup1\n      swap2\n      sub\n      swap1\n      return\n        /* \".learneth/ethereum/remix-workshops/10.1 Transactions - Ether and Wei/etherAndWei.sol\":83:109  uint public oneWei = 1 wei */\n    tag_4:\n      tag_12\n      tag_13\n      jump\t// in\n    tag_12:\n      mload(0x40)\n      tag_14\n      swap2\n      swap1\n      tag_15\n      jump\t// in\n    tag_14:\n      mload(0x40)\n      dup1\n      swap2\n      sub\n      swap1\n      return\n        /* \".learneth/ethereum/remix-workshops/10.1 Transactions - Ether and Wei/etherAndWei.sol\":302:332  uint public amount = 0.1 ether */\n    tag_5:\n      tag_16\n      tag_17\n      jump\t// in\n    tag_16:\n      mload(0x40)\n      tag_18\n      swap2\n      swap1\n      tag_15\n      jump\t// in\n    tag_18:\n      mload(0x40)\n      dup1\n      swap2\n      sub\n      swap1\n      return\n        /* \".learneth/ethereum/remix-workshops/10.1 Transactions - Ether and Wei/etherAndWei.sol\":255:295  bool public isOneEther = 1 ether == 1e18 */\n    tag_6:\n      tag_19\n      tag_20\n      jump\t// in\n    tag_19:\n      mload(0x40)\n      tag_21\n      swap2\n      swap1\n      tag_11\n      jump\t// in\n    tag_21:\n      mload(0x40)\n      dup1\n      swap2\n      sub\n      swap1\n      return\n        /* \".learneth/ethereum/remix-workshops/10.1 Transactions - Ether and Wei/etherAndWei.sol\":182:212  uint public oneEther = 1 ether */\n    tag_7:\n      tag_22\n      tag_23\n      jump\t// in\n    tag_22:\n      mload(0x40)\n      tag_24\n      swap2\n      swap1\n      tag_15\n      jump\t// in\n    tag_24:\n      mload(0x40)\n      dup1\n      swap2\n      sub\n      swap1\n      return\n        /* \".learneth/ethereum/remix-workshops/10.1 Transactions - Ether and Wei/etherAndWei.sol\":142:175  bool public isOneWei = 1 wei == 1 */\n    tag_9:\n      0x01\n      0x00\n      swap1\n      sload\n      swap1\n      0x0100\n      exp\n      swap1\n      div\n      0xff\n      and\n      dup2\n      jump\t// out\n        /* \".learneth/ethereum/remix-workshops/10.1 Transactions - Ether and Wei/etherAndWei.sol\":83:109  uint public oneWei = 1 wei */\n    tag_13:\n      sload(0x00)\n      dup2\n      jump\t// out\n        /* \".learneth/ethereum/remix-workshops/10.1 Transactions - Ether and Wei/etherAndWei.sol\":302:332  uint public amount = 0.1 ether */\n    tag_17:\n      sload(0x04)\n      dup2\n      jump\t// out\n        /* \".learneth/ethereum/remix-workshops/10.1 Transactions - Ether and Wei/etherAndWei.sol\":255:295  bool public isOneEther = 1 ether == 1e18 */\n    tag_20:\n      0x03\n      0x00\n      swap1\n      sload\n      swap1\n      0x0100\n      exp\n      swap1\n      div\n      0xff\n      and\n      dup2\n      jump\t// out\n        /* \".learneth/ethereum/remix-workshops/10.1 Transactions - Ether and Wei/etherAndWei.sol\":182:212  uint public oneEther = 1 ether */\n    tag_23:\n      sload(0x02)\n      dup2\n      jump\t// out\n        /* \"#utility.yul\":7:97   */\n    tag_25:\n        /* \"#utility.yul\":41:48   */\n      0x00\n        /* \"#utility.yul\":84:89   */\n      dup2\n        /* \"#utility.yul\":77:90   */\n      iszero\n        /* \"#utility.yul\":70:91   */\n      iszero\n        /* \"#utility.yul\":59:91   */\n      swap1\n      pop\n        /* \"#utility.yul\":7:97   */\n      swap2\n      swap1\n      pop\n      jump\t// out\n        /* \"#utility.yul\":103:212   */\n    tag_26:\n        /* \"#utility.yul\":184:205   */\n      tag_32\n        /* \"#utility.yul\":199:204   */\n      dup2\n        /* \"#utility.yul\":184:205   */\n      tag_25\n      jump\t// in\n    tag_32:\n        /* \"#utility.yul\":179:182   */\n      dup3\n        /* \"#utility.yul\":172:206   */\n      mstore\n        /* \"#utility.yul\":103:212   */\n      pop\n      pop\n      jump\t// out\n        /* \"#utility.yul\":218:428   */\n    tag_11:\n        /* \"#utility.yul\":305:309   */\n      0x00\n        /* \"#utility.yul\":343:345   */\n      0x20\n        /* \"#utility.yul\":332:341   */\n      dup3\n        /* \"#utility.yul\":328:346   */\n      add\n        /* \"#utility.yul\":320:346   */\n      swap1\n      pop\n        /* \"#utility.yul\":356:421   */\n      tag_34\n        /* \"#utility.yul\":418:419   */\n      0x00\n        /* \"#utility.yul\":407:416   */\n      dup4\n        /* \"#utility.yul\":403:420   */\n      add\n        /* \"#utility.yul\":394:400   */\n      dup5\n        /* \"#utility.yul\":356:421   */\n      tag_26\n      jump\t// in\n    tag_34:\n        /* \"#utility.yul\":218:428   */\n      swap3\n      swap2\n      pop\n      pop\n      jump\t// out\n        /* \"#utility.yul\":434:511   */\n    tag_27:\n        /* \"#utility.yul\":471:478   */\n      0x00\n        /* \"#utility.yul\":500:505   */\n      dup2\n        /* \"#utility.yul\":489:505   */\n      swap1\n      pop\n        /* \"#utility.yul\":434:511   */\n      swap2\n      swap1\n      pop\n      jump\t// out\n        /* \"#utility.yul\":517:635   */\n    tag_28:\n        /* \"#utility.yul\":604:628   */\n      tag_37\n        /* \"#utility.yul\":622:627   */\n      dup2\n        /* \"#utility.yul\":604:628   */\n      tag_27\n      jump\t// in\n    tag_37:\n        /* \"#utility.yul\":599:602   */\n      dup3\n        /* \"#utility.yul\":592:629   */\n      mstore\n        /* \"#utility.yul\":517:635   */\n      pop\n      pop\n      jump\t// out\n        /* \"#utility.yul\":641:863   */\n    tag_15:\n        /* \"#utility.yul\":734:738   */\n      0x00\n        /* \"#utility.yul\":772:774   */\n      0x20\n        /* \"#utility.yul\":761:770   */\n      dup3\n        /* \"#utility.yul\":757:775   */\n      add\n        /* \"#utility.yul\":749:775   */\n      swap1\n      pop\n        /* \"#utility.yul\":785:856   */\n      tag_39\n        /* \"#utility.yul\":853:854   */\n      0x00\n        /* \"#utility.yul\":842:851   */\n      dup4\n        /* \"#utility.yul\":838:855   */\n      add\n        /* \"#utility.yul\":829:835   */\n      dup5\n        /* \"#utility.yul\":785:856   */\n      tag_28\n      jump\t// in\n    tag_39:\n        /* \"#utility.yul\":641:863   */\n      swap3\n      swap2\n      pop\n      pop\n      jump\t// out\n\n    auxdata: 0xa264697066735822122011585bb83affbcb99e271d98181e5e6e0f6e6b9fa3a66f8bd95cb0f2343eabab64736f6c634300081a0033\n}\n",
				"bytecode": {
					"linkReferences": {},
					"object": "608060405260015f556001801460015f6101000a81548160ff021916908315150217905550670de0b6b3a7640000600255670de0b6b3a7640000801460035f6101000a81548160ff02191690831515021790555067016345785d8a00006004553480156069575f80fd5b506101be806100775f395ff3fe608060405234801561000f575f80fd5b5060043610610055575f3560e01c806328dc556f146100595780634fb2e0be14610077578063aa8c217c14610095578063cf0f5d29146100b3578063d297a89f146100d1575b5f80fd5b6100616100ef565b60405161006e919061013e565b60405180910390f35b61007f610101565b60405161008c919061016f565b60405180910390f35b61009d610106565b6040516100aa919061016f565b60405180910390f35b6100bb61010c565b6040516100c8919061013e565b60405180910390f35b6100d961011e565b6040516100e6919061016f565b60405180910390f35b60015f9054906101000a900460ff1681565b5f5481565b60045481565b60035f9054906101000a900460ff1681565b60025481565b5f8115159050919050565b61013881610124565b82525050565b5f6020820190506101515f83018461012f565b92915050565b5f819050919050565b61016981610157565b82525050565b5f6020820190506101825f830184610160565b9291505056fea264697066735822122011585bb83affbcb99e271d98181e5e6e0f6e6b9fa3a66f8bd95cb0f2343eabab64736f6c634300081a0033",
					"opcodes": "PUSH1 0x80 PUSH1 0x40 MSTORE PUSH1 0x1 PUSH0 SSTORE PUSH1 0x1 DUP1 EQ PUSH1 0x1 PUSH0 PUSH2 0x100 EXP DUP2 SLOAD DUP2 PUSH1 0xFF MUL NOT AND SWAP1 DUP4 ISZERO ISZERO MUL OR SWAP1 SSTORE POP PUSH8 0xDE0B6B3A7640000 PUSH1 0x2 SSTORE PUSH8 0xDE0B6B3A7640000 DUP1 EQ PUSH1 0x3 PUSH0 PUSH2 0x100 EXP DUP2 SLOAD DUP2 PUSH1 0xFF MUL NOT AND SWAP1 DUP4 ISZERO ISZERO MUL OR SWAP1 SSTORE POP PUSH8 0x16345785D8A0000 PUSH1 0x4 SSTORE CALLVALUE DUP1 ISZERO PUSH1 0x69 JUMPI PUSH0 DUP1 REVERT JUMPDEST POP PUSH2 0x1BE DUP1 PUSH2 0x77 PUSH0 CODECOPY PUSH0 RETURN INVALID PUSH1 0x80 PUSH1 0x40 MSTORE CALLVALUE DUP1 ISZERO PUSH2 0xF JUMPI PUSH0 DUP1 REVERT JUMPDEST POP PUSH1 0x4 CALLDATASIZE LT PUSH2 0x55 JUMPI PUSH0 CALLDATALOAD PUSH1 0xE0 SHR DUP1 PUSH4 0x28DC556F EQ PUSH2 0x59 JUMPI DUP1 PUSH4 0x4FB2E0BE EQ PUSH2 0x77 JUMPI DUP1 PUSH4 0xAA8C217C EQ PUSH2 0x95 JUMPI DUP1 PUSH4 0xCF0F5D29 EQ PUSH2 0xB3 JUMPI DUP1 PUSH4 0xD297A89F EQ PUSH2 0xD1 JUMPI JUMPDEST PUSH0 DUP1 REVERT JUMPDEST PUSH2 0x61 PUSH2 0xEF JUMP JUMPDEST PUSH1 0x40 MLOAD PUSH2 0x6E SWAP2 SWAP1 PUSH2 0x13E JUMP JUMPDEST PUSH1 0x40 MLOAD DUP1 SWAP2 SUB SWAP1 RETURN JUMPDEST PUSH2 0x7F PUSH2 0x101 JUMP JUMPDEST PUSH1 0x40 MLOAD PUSH2 0x8C SWAP2 SWAP1 PUSH2 0x16F JUMP JUMPDEST PUSH1 0x40 MLOAD DUP1 SWAP2 SUB SWAP1 RETURN JUMPDEST PUSH2 0x9D PUSH2 0x106 JUMP JUMPDEST PUSH1 0x40 MLOAD PUSH2 0xAA SWAP2 SWAP1 PUSH2 0x16F JUMP JUMPDEST PUSH1 0x40 MLOAD DUP1 SWAP2 SUB SWAP1 RETURN JUMPDEST PUSH2 0xBB PUSH2 0x10C JUMP JUMPDEST PUSH1 0x40 MLOAD PUSH2 0xC8 SWAP2 SWAP1 PUSH2 0x13E JUMP JUMPDEST PUSH1 0x40 MLOAD DUP1 SWAP2 SUB SWAP1 RETURN JUMPDEST PUSH2 0xD9 PUSH2 0x11E JUMP JUMPDEST PUSH1 0x40 MLOAD PUSH2 0xE6 SWAP2 SWAP1 PUSH2 0x16F JUMP JUMPDEST PUSH1 0x40 MLOAD DUP1 SWAP2 SUB SWAP1 RETURN JUMPDEST PUSH1 0x1 PUSH0 SWAP1 SLOAD SWAP1 PUSH2 0x100 EXP SWAP1 DIV PUSH1 0xFF AND DUP2 JUMP JUMPDEST PUSH0 SLOAD DUP2 JUMP JUMPDEST PUSH1 0x4 SLOAD DUP2 JUMP JUMPDEST PUSH1 0x3 PUSH0 SWAP1 SLOAD SWAP1 PUSH2 0x100 EXP SWAP1 DIV PUSH1 0xFF AND DUP2 JUMP JUMPDEST PUSH1 0x2 SLOAD DUP2 JUMP JUMPDEST PUSH0 DUP2 ISZERO ISZERO SWAP1 POP SWAP2 SWAP1 POP JUMP JUMPDEST PUSH2 0x138 DUP2 PUSH2 0x124 JUMP JUMPDEST DUP3 MSTORE POP POP JUMP JUMPDEST PUSH0 PUSH1 0x20 DUP3 ADD SWAP1 POP PUSH2 0x151 PUSH0 DUP4 ADD DUP5 PUSH2 0x12F JUMP JUMPDEST SWAP3 SWAP2 POP POP JUMP JUMPDEST PUSH0 DUP2 SWAP1 POP SWAP2 SWAP1 POP JUMP JUMPDEST PUSH2 0x169 DUP2 PUSH2 0x157 JUMP JUMPDEST DUP3 MSTORE POP POP JUMP JUMPDEST PUSH0 PUSH1 0x20 DUP3 ADD SWAP1 POP PUSH2 0x182 PUSH0 DUP4 ADD DUP5 PUSH2 0x160 JUMP JUMPDEST SWAP3 SWAP2 POP POP JUMP INVALID LOG2 PUSH5 0x6970667358 0x22 SLT KECCAK256 GT PC JUMPDEST 0xB8 GASPRICE SELFDESTRUCT 0xBC 0xB9 SWAP15 0x27 SAR SWAP9 XOR 0x1E MCOPY PUSH15 0xF6E6B9FA3A66F8BD95CB0F2343EAB 0xAB PUSH5 0x736F6C6343 STOP ADDMOD BYTE STOP CALLER "
				},
				"gasEstimates": {
					"creation": {
						"codeDepositCost": "89200",
						"executionCost": "114994",
						"totalCost": "204194"
					},
					"external": {
						"amount()": "2447",
						"isOneEther()": "2510",
						"isOneWei()": "2444",
						"oneEther()": "2491",
						"oneWei()": "2424"
					}
				},
				"methodIdentifiers": {
					"amount()": "aa8c217c",
					"isOneEther()": "cf0f5d29",
					"isOneWei()": "28dc556f",
					"oneEther()": "d297a89f",
					"oneWei()": "4fb2e0be"
				}
			},
			"storageLayout": {
				"storage": [
					{
						"astId": 4,
						"contract": ".learneth/ethereum/remix-workshops/10.1 Transactions - Ether and Wei/etherAndWei.sol:EtherUnits",
						"label": "oneWei",
						"offset": 0,
						"slot": "0",
						"type": "t_uint256"
					},
					{
						"astId": 9,
						"contract": ".learneth/ethereum/remix-workshops/10.1 Transactions - Ether and Wei/etherAndWei.sol:EtherUnits",
						"label": "isOneWei",
						"offset": 0,
						"slot": "1",
						"type": "t_bool"
					},
					{
						"astId": 12,
						"contract": ".learneth/ethereum/remix-workshops/10.1 Transactions - Ether and Wei/etherAndWei.sol:EtherUnits",
						"label": "oneEther",
						"offset": 0,
						"slot": "2",
						"type": "t_uint256"
					},
					{
						"astId": 17,
						"contract": ".learneth/ethereum/remix-workshops/10.1 Transactions - Ether and Wei/etherAndWei.sol:EtherUnits",
						"label": "isOneEther",
						"offset": 0,
						"slot": "3",
						"type": "t_bool"
					},
					{
						"astId": 20,
						"contract": ".learneth/ethereum/remix-workshops/10.1 Transactions - Ether and Wei/etherAndWei.sol:EtherUnits",
						"label": "amount",
						"offset": 0,
						"slot": "4",
						"type": "t_uint256"
					}
				],
				"types": {
					"t_bool": {
						"encoding": "inplace",
						"label": "bool",
						"numberOfBytes": "1"
					},
					"t_uint256": {
						"encoding": "inplace",
						"label": "uint256",
						"numberOfBytes": "32"
					}
				}
			},
			"userdoc": {
				"kind": "user",
				"methods": {},
				"version": 1
			}
		}
	}
}