{
	"data": {
		"bytecode": {
			"linkReferences": {},
			"object": "6080604052348015600e575f5ffd5b506103a88061001c5f395ff3fe608060405234801561000f575f5ffd5b5060043610610029575f3560e01c806342a6e6721461002d575b5f5ffd5b61004760048036038101906100429190610209565b61005d565b60405161005491906102c3565b60405180910390f35b60608282604051602001610072929190610344565b604051602081830303815290604052905092915050565b5f604051905090565b5f5ffd5b5f5ffd5b5f819050919050565b6100ac8161009a565b81146100b6575f5ffd5b50565b5f813590506100c7816100a3565b92915050565b5f5ffd5b5f5ffd5b5f601f19601f8301169050919050565b7f4e487b71000000000000000000000000000000000000000000000000000000005f52604160045260245ffd5b61011b826100d5565b810181811067ffffffffffffffff8211171561013a576101396100e5565b5b80604052505050565b5f61014c610089565b90506101588282610112565b919050565b5f67ffffffffffffffff821115610177576101766100e5565b5b610180826100d5565b9050602081019050919050565b828183375f83830152505050565b5f6101ad6101a88461015d565b610143565b9050828152602081018484840111156101c9576101c86100d1565b5b6101d484828561018d565b509392505050565b5f82601f8301126101f0576101ef6100cd565b5b813561020084826020860161019b565b91505092915050565b5f5f6040838503121561021f5761021e610092565b5b5f61022c858286016100b9565b925050602083013567ffffffffffffffff81111561024d5761024c610096565b5b610259858286016101dc565b9150509250929050565b5f81519050919050565b5f82825260208201905092915050565b8281835e5f83830152505050565b5f61029582610263565b61029f818561026d565b93506102af81856020860161027d565b6102b8816100d5565b840191505092915050565b5f6020820190508181035f8301526102db818461028b565b905092915050565b6102ec8161009a565b82525050565b5f81519050919050565b5f82825260208201905092915050565b5f610316826102f2565b61032081856102fc565b935061033081856020860161027d565b610339816100d5565b840191505092915050565b5f6040820190506103575f8301856102e3565b8181036020830152610369818461030c565b9050939250505056fea2646970667358221220054bef8d46510f9844673e028c35783e163944896d0185a14eb964bef2b8d9cb64736f6c634300081e0033",
			"opcodes": "PUSH1 0x80 PUSH1 0x40 MSTORE CALLVALUE DUP1 ISZERO PUSH1 0xE JUMPI PUSH0 PUSH0 REVERT JUMPDEST POP PUSH2 0x3A8 DUP1 PUSH2 0x1C PUSH0 CODECOPY PUSH0 RETURN INVALID PUSH1 0x80 PUSH1 0x40 MSTORE CALLVALUE DUP1 ISZERO PUSH2 0xF JUMPI PUSH0 PUSH0 REVERT JUMPDEST POP PUSH1 0x4 CALLDATASIZE LT PUSH2 0x29 JUMPI PUSH0 CALLDATALOAD PUSH1 0xE0 SHR DUP1 PUSH4 0x42A6E672 EQ PUSH2 0x2D JUMPI JUMPDEST PUSH0 PUSH0 REVERT JUMPDEST PUSH2 0x47 PUSH1 0x4 DUP1 CALLDATASIZE SUB DUP2 ADD SWAP1 PUSH2 0x42 SWAP2 SWAP1 PUSH2 0x209 JUMP JUMPDEST PUSH2 0x5D JUMP JUMPDEST PUSH1 0x40 MLOAD PUSH2 0x54 SWAP2 SWAP1 PUSH2 0x2C3 JUMP JUMPDEST PUSH1 0x40 MLOAD DUP1 SWAP2 SUB SWAP1 RETURN JUMPDEST PUSH1 0x60 DUP3 DUP3 PUSH1 0x40 MLOAD PUSH1 0x20 ADD PUSH2 0x72 SWAP3 SWAP2 SWAP1 PUSH2 0x344 JUMP JUMPDEST PUSH1 0x40 MLOAD PUSH1 0x20 DUP2 DUP4 SUB SUB DUP2 MSTORE SWAP1 PUSH1 0x40 MSTORE SWAP1 POP SWAP3 SWAP2 POP POP JUMP JUMPDEST PUSH0 PUSH1 0x40 MLOAD SWAP1 POP SWAP1 JUMP JUMPDEST PUSH0 PUSH0 REVERT JUMPDEST PUSH0 PUSH0 REVERT JUMPDEST PUSH0 DUP2 SWAP1 POP SWAP2 SWAP1 POP JUMP JUMPDEST PUSH2 0xAC DUP2 PUSH2 0x9A JUMP JUMPDEST DUP2 EQ PUSH2 0xB6 JUMPI PUSH0 PUSH0 REVERT JUMPDEST POP JUMP JUMPDEST PUSH0 DUP2 CALLDATALOAD SWAP1 POP PUSH2 0xC7 DUP2 PUSH2 0xA3 JUMP JUMPDEST SWAP3 SWAP2 POP POP JUMP JUMPDEST PUSH0 PUSH0 REVERT JUMPDEST PUSH0 PUSH0 REVERT JUMPDEST PUSH0 PUSH1 0x1F NOT PUSH1 0x1F DUP4 ADD AND SWAP1 POP SWAP2 SWAP1 POP JUMP JUMPDEST PUSH32 0x4E487B7100000000000000000000000000000000000000000000000000000000 PUSH0 MSTORE PUSH1 0x41 PUSH1 0x4 MSTORE PUSH1 0x24 PUSH0 REVERT JUMPDEST PUSH2 0x11B DUP3 PUSH2 0xD5 JUMP JUMPDEST DUP2 ADD DUP2 DUP2 LT PUSH8 0xFFFFFFFFFFFFFFFF DUP3 GT OR ISZERO PUSH2 0x13A JUMPI PUSH2 0x139 PUSH2 0xE5 JUMP JUMPDEST JUMPDEST DUP1 PUSH1 0x40 MSTORE POP POP POP JUMP JUMPDEST PUSH0 PUSH2 0x14C PUSH2 0x89 JUMP JUMPDEST SWAP1 POP PUSH2 0x158 DUP3 DUP3 PUSH2 0x112 JUMP JUMPDEST SWAP2 SWAP1 POP JUMP JUMPDEST PUSH0 PUSH8 0xFFFFFFFFFFFFFFFF DUP3 GT ISZERO PUSH2 0x177 JUMPI PUSH2 0x176 PUSH2 0xE5 JUMP JUMPDEST JUMPDEST PUSH2 0x180 DUP3 PUSH2 0xD5 JUMP JUMPDEST SWAP1 POP PUSH1 0x20 DUP2 ADD SWAP1 POP SWAP2 SWAP1 POP JUMP JUMPDEST DUP3 DUP2 DUP4 CALLDATACOPY PUSH0 DUP4 DUP4 ADD MSTORE POP POP POP JUMP JUMPDEST PUSH0 PUSH2 0x1AD PUSH2 0x1A8 DUP5 PUSH2 0x15D JUMP JUMPDEST PUSH2 0x143 JUMP JUMPDEST SWAP1 POP DUP3 DUP2 MSTORE PUSH1 0x20 DUP2 ADD DUP5 DUP5 DUP5 ADD GT ISZERO PUSH2 0x1C9 JUMPI PUSH2 0x1C8 PUSH2 0xD1 JUMP JUMPDEST JUMPDEST PUSH2 0x1D4 DUP5 DUP3 DUP6 PUSH2 0x18D JUMP JUMPDEST POP SWAP4 SWAP3 POP POP POP JUMP JUMPDEST PUSH0 DUP3 PUSH1 0x1F DUP4 ADD SLT PUSH2 0x1F0 JUMPI PUSH2 0x1EF PUSH2 0xCD JUMP JUMPDEST JUMPDEST DUP2 CALLDATALOAD PUSH2 0x200 DUP5 DUP3 PUSH1 0x20 DUP7 ADD PUSH2 0x19B JUMP JUMPDEST SWAP2 POP POP SWAP3 SWAP2 POP POP JUMP JUMPDEST PUSH0 PUSH0 PUSH1 0x40 DUP4 DUP6 SUB SLT ISZERO PUSH2 0x21F JUMPI PUSH2 0x21E PUSH2 0x92 JUMP JUMPDEST JUMPDEST PUSH0 PUSH2 0x22C DUP6 DUP3 DUP7 ADD PUSH2 0xB9 JUMP JUMPDEST SWAP3 POP POP PUSH1 0x20 DUP4 ADD CALLDATALOAD PUSH8 0xFFFFFFFFFFFFFFFF DUP2 GT ISZERO PUSH2 0x24D JUMPI PUSH2 0x24C PUSH2 0x96 JUMP JUMPDEST JUMPDEST PUSH2 0x259 DUP6 DUP3 DUP7 ADD PUSH2 0x1DC JUMP JUMPDEST SWAP2 POP POP SWAP3 POP SWAP3 SWAP1 POP JUMP JUMPDEST PUSH0 DUP2 MLOAD SWAP1 POP SWAP2 SWAP1 POP JUMP JUMPDEST PUSH0 DUP3 DUP3 MSTORE PUSH1 0x20 DUP3 ADD SWAP1 POP SWAP3 SWAP2 POP POP JUMP JUMPDEST DUP3 DUP2 DUP4 MCOPY PUSH0 DUP4 DUP4 ADD MSTORE POP POP POP JUMP JUMPDEST PUSH0 PUSH2 0x295 DUP3 PUSH2 0x263 JUMP JUMPDEST PUSH2 0x29F DUP2 DUP6 PUSH2 0x26D JUMP JUMPDEST SWAP4 POP PUSH2 0x2AF DUP2 DUP6 PUSH1 0x20 DUP7 ADD PUSH2 0x27D JUMP JUMPDEST PUSH2 0x2B8 DUP2 PUSH2 0xD5 JUMP JUMPDEST DUP5 ADD SWAP2 POP POP SWAP3 SWAP2 POP POP JUMP JUMPDEST PUSH0 PUSH1 0x20 DUP3 ADD SWAP1 POP DUP2 DUP2 SUB PUSH0 DUP4 ADD MSTORE PUSH2 0x2DB DUP2 DUP5 PUSH2 0x28B JUMP JUMPDEST SWAP1 POP SWAP3 SWAP2 POP POP JUMP JUMPDEST PUSH2 0x2EC DUP2 PUSH2 0x9A JUMP JUMPDEST DUP3 MSTORE POP POP JUMP JUMPDEST PUSH0 DUP2 MLOAD SWAP1 POP SWAP2 SWAP1 POP JUMP JUMPDEST PUSH0 DUP3 DUP3 MSTORE PUSH1 0x20 DUP3 ADD SWAP1 POP SWAP3 SWAP2 POP POP JUMP JUMPDEST PUSH0 PUSH2 0x316 DUP3 PUSH2 0x2F2 JUMP JUMPDEST PUSH2 0x320 DUP2 DUP6 PUSH2 0x2FC JUMP JUMPDEST SWAP4 POP PUSH2 0x330 DUP2 DUP6 PUSH1 0x20 DUP7 ADD PUSH2 0x27D JUMP JUMPDEST PUSH2 0x339 DUP2 PUSH2 0xD5 JUMP JUMPDEST DUP5 ADD SWAP2 POP POP SWAP3 SWAP2 POP POP JUMP JUMPDEST PUSH0 PUSH1 0x40 DUP3 ADD SWAP1 POP PUSH2 0x357 PUSH0 DUP4 ADD DUP6 PUSH2 0x2E3 JUMP JUMPDEST DUP2 DUP2 SUB PUSH1 0x20 DUP4 ADD MSTORE PUSH2 0x369 DUP2 DUP5 PUSH2 0x30C JUMP JUMPDEST SWAP1 POP SWAP4 SWAP3 POP POP POP JUMP INVALID LOG2 PUSH5 0x6970667358 0x22 SLT KECCAK256 SDIV 0x4B 0xEF DUP14 CHAINID MLOAD 0xF SWAP9 PREVRANDAO PUSH8 0x3E028C35783E1639 PREVRANDAO DUP10 PUSH14 0x185A14EB964BEF2B8D9CB64736F PUSH13 0x634300081E0033000000000000 "
		},
		"gasEstimates": {
			"creation": {
				"codeDepositCost": "187200",
				"executionCost": "230",
				"totalCost": "187430"
			},
			"external": {
				"encodeData(uint256,string)": "infinite"
			}
		},
		"methodIdentifiers": {
			"encodeData(uint256,string)": "42a6e672"
		}
	},
	"abi": [
		{
			"inputs": [
				{
					"internalType": "uint256",
					"name": "number",
					"type": "uint256"
				},
				{
					"internalType": "string",
					"name": "text",
					"type": "string"
				}
			],
			"name": "encodeData",
			"outputs": [
				{
					"internalType": "bytes",
					"name": "",
					"type": "bytes"
				}
			],
			"stateMutability": "pure",
			"type": "function"
		}
	]
}